{
  "_format": "hh-sol-artifact-1",
  "contractName": "NightsAndWeekendsDemo",
  "sourceName": "contracts/YourContract.sol",
  "abi": [
    {
      "inputs": [],
      "stateMutability": "nonpayable",
      "type": "constructor"
    },
    {
      "anonymous": false,
      "inputs": [
        {
          "indexed": true,
          "internalType": "address",
          "name": "owner",
          "type": "address"
        },
        {
          "indexed": true,
          "internalType": "address",
          "name": "approved",
          "type": "address"
        },
        {
          "indexed": true,
          "internalType": "uint256",
          "name": "tokenId",
          "type": "uint256"
        }
      ],
      "name": "Approval",
      "type": "event"
    },
    {
      "anonymous": false,
      "inputs": [
        {
          "indexed": true,
          "internalType": "address",
          "name": "owner",
          "type": "address"
        },
        {
          "indexed": true,
          "internalType": "address",
          "name": "operator",
          "type": "address"
        },
        {
          "indexed": false,
          "internalType": "bool",
          "name": "approved",
          "type": "bool"
        }
      ],
      "name": "ApprovalForAll",
      "type": "event"
    },
    {
      "anonymous": false,
      "inputs": [
        {
          "indexed": true,
          "internalType": "address",
          "name": "previousOwner",
          "type": "address"
        },
        {
          "indexed": true,
          "internalType": "address",
          "name": "newOwner",
          "type": "address"
        }
      ],
      "name": "OwnershipTransferred",
      "type": "event"
    },
    {
      "anonymous": false,
      "inputs": [
        {
          "indexed": true,
          "internalType": "address",
          "name": "from",
          "type": "address"
        },
        {
          "indexed": true,
          "internalType": "address",
          "name": "to",
          "type": "address"
        },
        {
          "indexed": true,
          "internalType": "uint256",
          "name": "tokenId",
          "type": "uint256"
        }
      ],
      "name": "Transfer",
      "type": "event"
    },
    {
      "inputs": [
        {
          "internalType": "address",
          "name": "to",
          "type": "address"
        },
        {
          "internalType": "uint256",
          "name": "tokenId",
          "type": "uint256"
        }
      ],
      "name": "approve",
      "outputs": [],
      "stateMutability": "nonpayable",
      "type": "function"
    },
    {
      "inputs": [],
      "name": "availableTickets",
      "outputs": [
        {
          "internalType": "uint256",
          "name": "",
          "type": "uint256"
        }
      ],
      "stateMutability": "view",
      "type": "function"
    },
    {
      "inputs": [
        {
          "internalType": "address",
          "name": "owner",
          "type": "address"
        }
      ],
      "name": "balanceOf",
      "outputs": [
        {
          "internalType": "uint256",
          "name": "",
          "type": "uint256"
        }
      ],
      "stateMutability": "view",
      "type": "function"
    },
    {
      "inputs": [
        {
          "internalType": "uint256",
          "name": "tokenId",
          "type": "uint256"
        }
      ],
      "name": "checkIn",
      "outputs": [],
      "stateMutability": "nonpayable",
      "type": "function"
    },
    {
      "inputs": [
        {
          "internalType": "uint256",
          "name": "",
          "type": "uint256"
        }
      ],
      "name": "checkIns",
      "outputs": [
        {
          "internalType": "bool",
          "name": "",
          "type": "bool"
        }
      ],
      "stateMutability": "view",
      "type": "function"
    },
    {
      "inputs": [],
      "name": "closeSale",
      "outputs": [],
      "stateMutability": "nonpayable",
      "type": "function"
    },
    {
      "inputs": [
        {
          "internalType": "uint256",
          "name": "tokenId",
          "type": "uint256"
        }
      ],
      "name": "getApproved",
      "outputs": [
        {
          "internalType": "address",
          "name": "",
          "type": "address"
        }
      ],
      "stateMutability": "view",
      "type": "function"
    },
    {
      "inputs": [],
      "name": "getAvailableTickets",
      "outputs": [
        {
          "internalType": "uint256",
          "name": "",
          "type": "uint256"
        }
      ],
      "stateMutability": "view",
      "type": "function"
    },
    {
      "inputs": [],
      "name": "getCurrentId",
      "outputs": [
        {
          "internalType": "uint256",
          "name": "",
          "type": "uint256"
        }
      ],
      "stateMutability": "view",
      "type": "function"
    },
    {
      "inputs": [],
      "name": "getSaleOpen",
      "outputs": [
        {
          "internalType": "bool",
          "name": "",
          "type": "bool"
        }
      ],
      "stateMutability": "view",
      "type": "function"
    },
    {
      "inputs": [],
      "name": "getTotalTickets",
      "outputs": [
        {
          "internalType": "uint256",
          "name": "",
          "type": "uint256"
        }
      ],
      "stateMutability": "view",
      "type": "function"
    },
    {
      "inputs": [],
      "name": "getUserTickets",
      "outputs": [
        {
          "internalType": "uint256[]",
          "name": "",
          "type": "uint256[]"
        }
      ],
      "stateMutability": "view",
      "type": "function"
    },
    {
      "inputs": [
        {
          "internalType": "address",
          "name": "owner",
          "type": "address"
        },
        {
          "internalType": "address",
          "name": "operator",
          "type": "address"
        }
      ],
      "name": "isApprovedForAll",
      "outputs": [
        {
          "internalType": "bool",
          "name": "",
          "type": "bool"
        }
      ],
      "stateMutability": "view",
      "type": "function"
    },
    {
      "inputs": [],
      "name": "mint",
      "outputs": [],
      "stateMutability": "payable",
      "type": "function"
    },
    {
      "inputs": [],
      "name": "name",
      "outputs": [
        {
          "internalType": "string",
          "name": "",
          "type": "string"
        }
      ],
      "stateMutability": "view",
      "type": "function"
    },
    {
      "inputs": [],
      "name": "openSale",
      "outputs": [],
      "stateMutability": "nonpayable",
      "type": "function"
    },
    {
      "inputs": [],
      "name": "owner",
      "outputs": [
        {
          "internalType": "address",
          "name": "",
          "type": "address"
        }
      ],
      "stateMutability": "view",
      "type": "function"
    },
    {
      "inputs": [
        {
          "internalType": "uint256",
          "name": "tokenId",
          "type": "uint256"
        }
      ],
      "name": "ownerOf",
      "outputs": [
        {
          "internalType": "address",
          "name": "",
          "type": "address"
        }
      ],
      "stateMutability": "view",
      "type": "function"
    },
    {
      "inputs": [],
      "name": "renounceOwnership",
      "outputs": [],
      "stateMutability": "nonpayable",
      "type": "function"
    },
    {
      "inputs": [
        {
          "internalType": "address",
          "name": "from",
          "type": "address"
        },
        {
          "internalType": "address",
          "name": "to",
          "type": "address"
        },
        {
          "internalType": "uint256",
          "name": "tokenId",
          "type": "uint256"
        }
      ],
      "name": "safeTransferFrom",
      "outputs": [],
      "stateMutability": "nonpayable",
      "type": "function"
    },
    {
      "inputs": [
        {
          "internalType": "address",
          "name": "from",
          "type": "address"
        },
        {
          "internalType": "address",
          "name": "to",
          "type": "address"
        },
        {
          "internalType": "uint256",
          "name": "tokenId",
          "type": "uint256"
        },
        {
          "internalType": "bytes",
          "name": "_data",
          "type": "bytes"
        }
      ],
      "name": "safeTransferFrom",
      "outputs": [],
      "stateMutability": "nonpayable",
      "type": "function"
    },
    {
      "inputs": [],
      "name": "saleIsActive",
      "outputs": [
        {
          "internalType": "bool",
          "name": "",
          "type": "bool"
        }
      ],
      "stateMutability": "view",
      "type": "function"
    },
    {
      "inputs": [
        {
          "internalType": "address",
          "name": "operator",
          "type": "address"
        },
        {
          "internalType": "bool",
          "name": "approved",
          "type": "bool"
        }
      ],
      "name": "setApprovalForAll",
      "outputs": [],
      "stateMutability": "nonpayable",
      "type": "function"
    },
    {
      "inputs": [
        {
          "internalType": "bytes4",
          "name": "interfaceId",
          "type": "bytes4"
        }
      ],
      "name": "supportsInterface",
      "outputs": [
        {
          "internalType": "bool",
          "name": "",
          "type": "bool"
        }
      ],
      "stateMutability": "view",
      "type": "function"
    },
    {
      "inputs": [],
      "name": "symbol",
      "outputs": [
        {
          "internalType": "string",
          "name": "",
          "type": "string"
        }
      ],
      "stateMutability": "view",
      "type": "function"
    },
    {
      "inputs": [
        {
          "internalType": "address",
          "name": "",
          "type": "address"
        },
        {
          "internalType": "uint256",
          "name": "",
          "type": "uint256"
        }
      ],
      "name": "ticketHolderIds",
      "outputs": [
        {
          "internalType": "uint256",
          "name": "",
          "type": "uint256"
        }
      ],
      "stateMutability": "view",
      "type": "function"
    },
    {
      "inputs": [],
      "name": "ticketPrice",
      "outputs": [
        {
          "internalType": "uint256",
          "name": "",
          "type": "uint256"
        }
      ],
      "stateMutability": "view",
      "type": "function"
    },
    {
      "inputs": [
        {
          "internalType": "uint256",
          "name": "tokenId",
          "type": "uint256"
        }
      ],
      "name": "tokenURI",
      "outputs": [
        {
          "internalType": "string",
          "name": "",
          "type": "string"
        }
      ],
      "stateMutability": "view",
      "type": "function"
    },
    {
      "inputs": [],
      "name": "totalTickets",
      "outputs": [
        {
          "internalType": "uint256",
          "name": "",
          "type": "uint256"
        }
      ],
      "stateMutability": "view",
      "type": "function"
    },
    {
      "inputs": [
        {
          "internalType": "address",
          "name": "from",
          "type": "address"
        },
        {
          "internalType": "address",
          "name": "to",
          "type": "address"
        },
        {
          "internalType": "uint256",
          "name": "tokenId",
          "type": "uint256"
        }
      ],
      "name": "transferFrom",
      "outputs": [],
      "stateMutability": "nonpayable",
      "type": "function"
    },
    {
      "inputs": [
        {
          "internalType": "address",
          "name": "newOwner",
          "type": "address"
        }
      ],
      "name": "transferOwnership",
      "outputs": [],
      "stateMutability": "nonpayable",
      "type": "function"
    }
  ],
  "bytecode": "0x6106806040526105dd6080818152906200383560a03980516200002b9160099160209091019062000220565b5060405180610c400160405280610c1b815260200162003e12610c1b913980516200005f91600a9160209091019062000220565b50604051806103c001604052806103958152602001620027e3610395913980516200009391600b9160209091019062000220565b5060405180610ce00160405280610cbd815260200162002b78610cbd91398051620000c791600c9160209091019062000220565b50604080516020810191829052600090819052620000e891600d9162000220565b50600e805460ff191660019081179091556103e7600f8190556010556011553480156200011457600080fd5b50604051806040016040528060118152602001704e69676874732026205765656b656e647360781b815250604051806040016040528060068152602001654e575330303160d01b8152506200017862000172620001c360201b60201c565b620001c7565b81516200018d90600190602085019062000220565b508051620001a390600290602084019062000220565b505050620001bd60086200021760201b620010e71760201c565b62000303565b3390565b600080546001600160a01b038381166001600160a01b0319831681178455604051919092169283917f8be0079c531659141344cd1fd0a4f28419497f9722a3daafe3b4186f6b6457e09190a35050565b80546001019055565b8280546200022e90620002c6565b90600052602060002090601f0160209004810192826200025257600085556200029d565b82601f106200026d57805160ff19168380011785556200029d565b828001600101855582156200029d579182015b828111156200029d57825182559160200191906001019062000280565b50620002ab929150620002af565b5090565b5b80821115620002ab5760008155600101620002b0565b600181811c90821680620002db57607f821691505b60208210811415620002fd57634e487b7160e01b600052602260045260246000fd5b50919050565b6124d080620003136000396000f3fe6080604052600436106101d85760003560e01c806370a0823111610102578063c87b56dd11610095578063eb8d244411610064578063eb8d244414610539578063ee55efee14610553578063f2fde38b14610568578063f498a9a31461058857600080fd5b8063c87b56dd1461049a578063dd11247e146104ba578063e95a644f146104d0578063e985e9c5146104f057600080fd5b806395d89b41116100d157806395d89b4114610415578063a22cb4651461042a578063b88d4fde1461044a578063c605972a1461046a57600080fd5b806370a08231146103a2578063715018a6146103c25780638a216ab8146103d75780638da5cb5b146103f757600080fd5b80631249c58b1161017a57806342842e0e1161014957806342842e0e146103385780635a8acacc146103585780636352211e1461036d5780636c1438621461038d57600080fd5b80631249c58b146102e5578063167ff46f146102ed57806323b872dd146103025780633cfa7e011461032257600080fd5b8063081812fc116101b6578063081812fc14610253578063093c69ae1461028b578063095ea7b3146102ad5780631209b1f6146102cf57600080fd5b806301ffc9a7146101dd57806306e8337f1461021257806306fdde0314610231575b600080fd5b3480156101e957600080fd5b506101fd6101f8366004611e45565b6105a0565b60405190151581526020015b60405180910390f35b34801561021e57600080fd5b50600f545b604051908152602001610209565b34801561023d57600080fd5b506102466105f2565b604051610209919061221f565b34801561025f57600080fd5b5061027361026e366004611e7d565b610684565b6040516001600160a01b039091168152602001610209565b34801561029757600080fd5b506102a0610711565b60405161020991906121db565b3480156102b957600080fd5b506102cd6102c8366004611e1c565b610771565b005b3480156102db57600080fd5b5061022360115481565b6102cd610887565b3480156102f957600080fd5b506102cd610adf565b34801561030e57600080fd5b506102cd61031d366004611cd2565b610b18565b34801561032e57600080fd5b5061022360105481565b34801561034457600080fd5b506102cd610353366004611cd2565b610b49565b34801561036457600080fd5b50601054610223565b34801561037957600080fd5b50610273610388366004611e7d565b610b64565b34801561039957600080fd5b50610223610bdb565b3480156103ae57600080fd5b506102236103bd366004611c86565b610beb565b3480156103ce57600080fd5b506102cd610c72565b3480156103e357600080fd5b506102236103f2366004611e1c565b610ca8565b34801561040357600080fd5b506000546001600160a01b0316610273565b34801561042157600080fd5b50610246610cd9565b34801561043657600080fd5b506102cd610445366004611de2565b610ce8565b34801561045657600080fd5b506102cd610465366004611d0d565b610cf7565b34801561047657600080fd5b506101fd610485366004611e7d565b60136020526000908152604090205460ff1681565b3480156104a657600080fd5b506102466104b5366004611e7d565b610d2f565b3480156104c657600080fd5b50610223600f5481565b3480156104dc57600080fd5b506102cd6104eb366004611e7d565b610ea6565b3480156104fc57600080fd5b506101fd61050b366004611ca0565b6001600160a01b03918216600090815260066020908152604080832093909416825291909152205460ff1690565b34801561054557600080fd5b50600e546101fd9060ff1681565b34801561055f57600080fd5b506102cd611016565b34801561057457600080fd5b506102cd610583366004611c86565b61104c565b34801561059457600080fd5b50600e5460ff166101fd565b60006001600160e01b031982166380ac58cd60e01b14806105d157506001600160e01b03198216635b5e139f60e01b145b806105ec57506301ffc9a760e01b6001600160e01b03198316145b92915050565b60606001805461060190612398565b80601f016020809104026020016040519081016040528092919081815260200182805461062d90612398565b801561067a5780601f1061064f5761010080835404028352916020019161067a565b820191906000526020600020905b81548152906001019060200180831161065d57829003601f168201915b5050505050905090565b600061068f826110f0565b6106f55760405162461bcd60e51b815260206004820152602c60248201527f4552433732313a20617070726f76656420717565727920666f72206e6f6e657860448201526b34b9ba32b73a103a37b5b2b760a11b60648201526084015b60405180910390fd5b506000908152600560205260409020546001600160a01b031690565b3360009081526012602090815260409182902080548351818402810184019094528084526060939283018282801561067a57602002820191906000526020600020905b815481526020019060010190808311610754575050505050905090565b600061077c82610b64565b9050806001600160a01b0316836001600160a01b031614156107ea5760405162461bcd60e51b815260206004820152602160248201527f4552433732313a20617070726f76616c20746f2063757272656e74206f776e656044820152603960f91b60648201526084016106ec565b336001600160a01b03821614806108065750610806813361050b565b6108785760405162461bcd60e51b815260206004820152603860248201527f4552433732313a20617070726f76652063616c6c6572206973206e6f74206f7760448201527f6e6572206e6f7220617070726f76656420666f7220616c6c000000000000000060648201526084016106ec565b610882838361110d565b505050565b6000601054116108c45760405162461bcd60e51b815260206004820152600860248201526714dbdb19081bdd5d60c21b60448201526064016106ec565b600e5460ff166109165760405162461bcd60e51b815260206004820152601760248201527f5469636b65747320617265206e6f74206f6e2073616c6500000000000000000060448201526064016106ec565b60115434101561095a5760405162461bcd60e51b815260206004820152600f60248201526e596f75206e65656420746f2070617960881b60448201526064016106ec565b600061096560085490565b905060006109728261117b565b9050600a8210156109a85760408051808201909152600280825261030360f41b60209092019182526109a691600d91611bd1565b505b6009821180156109b85750606482105b156109e757604080518082019091526001808252600360fc1b60209092019182526109e591600d91611bd1565b505b60006009600d83600a604051602001610a03949392919061203a565b60405160208183030381529060405290506000610a46610a2283611295565b604051602001610a3291906120e8565b604051602081830303815290604052611295565b9050600081604051602001610a5b9190612159565b6040516020818303038152906040529050610a7e33610a7960085490565b611409565b610a90610a8a60085490565b82611423565b33600090815260126020526040902060085481546001810183556000928352602090922090910155610ac6600880546001019055565b6001601054610ad59190612355565b6010555050505050565b6000546001600160a01b03163314610b095760405162461bcd60e51b81526004016106ec90612284565b600e805460ff19166001179055565b610b2233826114ae565b610b3e5760405162461bcd60e51b81526004016106ec906122b9565b610882838383611594565b61088283838360405180602001604052806000815250610cf7565b6000818152600360205260408120546001600160a01b0316806105ec5760405162461bcd60e51b815260206004820152602960248201527f4552433732313a206f776e657220717565727920666f72206e6f6e657869737460448201526832b73a103a37b5b2b760b91b60648201526084016106ec565b6000610be660085490565b905090565b60006001600160a01b038216610c565760405162461bcd60e51b815260206004820152602a60248201527f4552433732313a2062616c616e636520717565727920666f7220746865207a65604482015269726f206164647265737360b01b60648201526084016106ec565b506001600160a01b031660009081526004602052604090205490565b6000546001600160a01b03163314610c9c5760405162461bcd60e51b81526004016106ec90612284565b610ca66000611734565b565b60126020528160005260406000208181548110610cc457600080fd5b90600052602060002001600091509150505481565b60606002805461060190612398565b610cf3338383611784565b5050565b610d0133836114ae565b610d1d5760405162461bcd60e51b81526004016106ec906122b9565b610d2984848484611853565b50505050565b6060610d3a826110f0565b610da05760405162461bcd60e51b815260206004820152603160248201527f45524337323155524953746f726167653a2055524920717565727920666f72206044820152703737b732bc34b9ba32b73a103a37b5b2b760791b60648201526084016106ec565b60008281526007602052604081208054610db990612398565b80601f0160208091040260200160405190810160405280929190818152602001828054610de590612398565b8015610e325780601f10610e0757610100808354040283529160200191610e32565b820191906000526020600020905b815481529060010190602001808311610e1557829003601f168201915b505050505090506000610e5060408051602081019091526000815290565b9050805160001415610e63575092915050565b815115610e95578082604051602001610e7d92919061200b565b60405160208183030381529060405292505050919050565b610e9e84611886565b949350505050565b60008181526013602052604090205460ff1615610efa5760405162461bcd60e51b815260206004820152601260248201527120b63932b0b23c9031b432b1b5b2b21034b760711b60448201526064016106ec565b6000818152601360205260408120805460ff191660011790558190610f1e8261117b565b9050600a821015610f545760408051808201909152600280825261030360f41b6020909201918252610f5291600d91611bd1565b505b600982118015610f645750606482105b15610f9357604080518082019091526001808252600360fc1b6020909201918252610f9191600d91611bd1565b505b6000600b600d83600c604051602001610faf949392919061203a565b60405160208183030381529060405290506000610fde610fce83611295565b604051602001610a329190612077565b9050600081604051602001610ff39190612159565b604051602081830303815290604052905061100e8682611423565b505050505050565b6000546001600160a01b031633146110405760405162461bcd60e51b81526004016106ec90612284565b600e805460ff19169055565b6000546001600160a01b031633146110765760405162461bcd60e51b81526004016106ec90612284565b6001600160a01b0381166110db5760405162461bcd60e51b815260206004820152602660248201527f4f776e61626c653a206e6577206f776e657220697320746865207a65726f206160448201526564647265737360d01b60648201526084016106ec565b6110e481611734565b50565b80546001019055565b6000908152600360205260409020546001600160a01b0316151590565b600081815260056020526040902080546001600160a01b0319166001600160a01b038416908117909155819061114282610b64565b6001600160a01b03167f8c5be1e5ebec7d5bd14f71427d1e84f3dd0314c0f7b2291e5b200ac8c7c3b92560405160405180910390a45050565b60608161119f5750506040805180820190915260018152600360fc1b602082015290565b8160005b81156111c957806111b3816123d3565b91506111c29050600a83612322565b91506111a3565b60008167ffffffffffffffff8111156111f257634e487b7160e01b600052604160045260246000fd5b6040519080825280601f01601f19166020018201604052801561121c576020820181803683370190505b5090505b8415610e9e57611231600183612355565b915061123e600a866123ee565b61124990603061230a565b60f81b81838151811061126c57634e487b7160e01b600052603260045260246000fd5b60200101906001600160f81b031916908160001a90535061128e600a86612322565b9450611220565b8051606090806112b5575050604080516020810190915260008152919050565b600060036112c483600261230a565b6112ce9190612322565b6112d9906004612336565b905060006112e882602061230a565b67ffffffffffffffff81111561130e57634e487b7160e01b600052604160045260246000fd5b6040519080825280601f01601f191660200182016040528015611338576020820181803683370190505b509050600060405180606001604052806040815260200161245b604091399050600181016020830160005b868110156113c4576003818a01810151603f601282901c8116860151600c83901c8216870151600684901c831688015192909316870151600891821b60ff94851601821b92841692909201901b91160160e01b835260049092019101611363565b5060038606600181146113de57600281146113ef576113fb565b613d3d60f01b6001198301526113fb565b603d60f81b6000198301525b505050918152949350505050565b610cf382826040518060200160405280600081525061195e565b61142c826110f0565b61148f5760405162461bcd60e51b815260206004820152602e60248201527f45524337323155524953746f726167653a2055524920736574206f66206e6f6e60448201526d32bc34b9ba32b73a103a37b5b2b760911b60648201526084016106ec565b6000828152600760209081526040909120825161088292840190611bd1565b60006114b9826110f0565b61151a5760405162461bcd60e51b815260206004820152602c60248201527f4552433732313a206f70657261746f7220717565727920666f72206e6f6e657860448201526b34b9ba32b73a103a37b5b2b760a11b60648201526084016106ec565b600061152583610b64565b9050806001600160a01b0316846001600160a01b031614806115605750836001600160a01b031661155584610684565b6001600160a01b0316145b80610e9e57506001600160a01b0380821660009081526006602090815260408083209388168352929052205460ff16610e9e565b826001600160a01b03166115a782610b64565b6001600160a01b03161461160f5760405162461bcd60e51b815260206004820152602960248201527f4552433732313a207472616e73666572206f6620746f6b656e2074686174206960448201526839903737ba1037bbb760b91b60648201526084016106ec565b6001600160a01b0382166116715760405162461bcd60e51b8152602060048201526024808201527f4552433732313a207472616e7366657220746f20746865207a65726f206164646044820152637265737360e01b60648201526084016106ec565b61167c60008261110d565b6001600160a01b03831660009081526004602052604081208054600192906116a5908490612355565b90915550506001600160a01b03821660009081526004602052604081208054600192906116d390849061230a565b909155505060008181526003602052604080822080546001600160a01b0319166001600160a01b0386811691821790925591518493918716917fddf252ad1be2c89b69c2b068fc378daa952ba7f163c4a11628f55a4df523b3ef91a4505050565b600080546001600160a01b038381166001600160a01b0319831681178455604051919092169283917f8be0079c531659141344cd1fd0a4f28419497f9722a3daafe3b4186f6b6457e09190a35050565b816001600160a01b0316836001600160a01b031614156117e65760405162461bcd60e51b815260206004820152601960248201527f4552433732313a20617070726f766520746f2063616c6c65720000000000000060448201526064016106ec565b6001600160a01b03838116600081815260066020908152604080832094871680845294825291829020805460ff191686151590811790915591519182527f17307eab39ab6107e8899845ad3d59bd9653f200f220920489ca2b5937696c31910160405180910390a3505050565b61185e848484611594565b61186a84848484611991565b610d295760405162461bcd60e51b81526004016106ec90612232565b6060611891826110f0565b6118f55760405162461bcd60e51b815260206004820152602f60248201527f4552433732314d657461646174613a2055524920717565727920666f72206e6f60448201526e3732bc34b9ba32b73a103a37b5b2b760891b60648201526084016106ec565b600061190c60408051602081019091526000815290565b9050600081511161192c5760405180602001604052806000815250611957565b806119368461117b565b60405160200161194792919061200b565b6040516020818303038152906040525b9392505050565b6119688383611a9e565b6119756000848484611991565b6108825760405162461bcd60e51b81526004016106ec90612232565b60006001600160a01b0384163b15611a9357604051630a85bd0160e11b81526001600160a01b0385169063150b7a02906119d590339089908890889060040161219e565b602060405180830381600087803b1580156119ef57600080fd5b505af1925050508015611a1f575060408051601f3d908101601f19168201909252611a1c91810190611e61565b60015b611a79573d808015611a4d576040519150601f19603f3d011682016040523d82523d6000602084013e611a52565b606091505b508051611a715760405162461bcd60e51b81526004016106ec90612232565b805181602001fd5b6001600160e01b031916630a85bd0160e11b149050610e9e565b506001949350505050565b6001600160a01b038216611af45760405162461bcd60e51b815260206004820181905260248201527f4552433732313a206d696e7420746f20746865207a65726f206164647265737360448201526064016106ec565b611afd816110f0565b15611b4a5760405162461bcd60e51b815260206004820152601c60248201527f4552433732313a20746f6b656e20616c7265616479206d696e7465640000000060448201526064016106ec565b6001600160a01b0382166000908152600460205260408120805460019290611b7390849061230a565b909155505060008181526003602052604080822080546001600160a01b0319166001600160a01b03861690811790915590518392907fddf252ad1be2c89b69c2b068fc378daa952ba7f163c4a11628f55a4df523b3ef908290a45050565b828054611bdd90612398565b90600052602060002090601f016020900481019282611bff5760008555611c45565b82601f10611c1857805160ff1916838001178555611c45565b82800160010185558215611c45579182015b82811115611c45578251825591602001919060010190611c2a565b50611c51929150611c55565b5090565b5b80821115611c515760008155600101611c56565b80356001600160a01b0381168114611c8157600080fd5b919050565b600060208284031215611c97578081fd5b61195782611c6a565b60008060408385031215611cb2578081fd5b611cbb83611c6a565b9150611cc960208401611c6a565b90509250929050565b600080600060608486031215611ce6578081fd5b611cef84611c6a565b9250611cfd60208501611c6a565b9150604084013590509250925092565b60008060008060808587031215611d22578081fd5b611d2b85611c6a565b9350611d3960208601611c6a565b925060408501359150606085013567ffffffffffffffff80821115611d5c578283fd5b818701915087601f830112611d6f578283fd5b813581811115611d8157611d8161242e565b604051601f8201601f19908116603f01168101908382118183101715611da957611da961242e565b816040528281528a6020848701011115611dc1578586fd5b82602086016020830137918201602001949094529598949750929550505050565b60008060408385031215611df4578182fd5b611dfd83611c6a565b915060208301358015158114611e11578182fd5b809150509250929050565b60008060408385031215611e2e578182fd5b611e3783611c6a565b946020939093013593505050565b600060208284031215611e56578081fd5b813561195781612444565b600060208284031215611e72578081fd5b815161195781612444565b600060208284031215611e8e578081fd5b5035919050565b60008151808452611ead81602086016020860161236c565b601f01601f19169290920160200192915050565b8054600090600181811c9080831680611edb57607f831692505b6020808410821415611efb57634e487b7160e01b86526022600452602486fd5b818015611f0f5760018114611f2057611f4d565b60ff19861689528489019650611f4d565b60008881526020902060005b86811015611f455781548b820152908501908301611f2c565b505084890196505b50505050505092915050565b7f7b226e616d65223a20224e69676874732026205765656b656e6473205365617381527f6f6e2031222c20226465736372697074696f6e223a2022353030206275696c6460208201527f657273207368697070696e6720666f722036207765656b732e204754464f4c2060408201527f6f72204754464f222c2022696d616765223a2022646174613a696d6167652f7360608201526d1d99cade1b5b0ed8985cd94d8d0b60921b6080820152608e0190565b6000835161201d81846020880161236c565b83519083019061203181836020880161236c565b01949350505050565b600061204f6120498388611ec1565b86611ec1565b845161205f81836020890161236c565b61206b81830186611ec1565b98975050505050505050565b600061208282611f59565b835161209281836020880161236c565b7f222c202261747472696275746573223a205b7b2274726169745f74797065223a91019081527f2022436865636b20496e222c202276616c7565223a202274727565227d5d7d006020820152603f019392505050565b60006120f382611f59565b835161210381836020880161236c565b7f222c202261747472696275746573223a205b7b2274726169745f74797065223a91019081527f2022436865636b20496e222c202276616c7565223a202266616c7365227d5d7d60208201526040019392505050565b7f646174613a6170706c69636174696f6e2f6a736f6e3b6261736536342c00000081526000825161219181601d85016020870161236c565b91909101601d0192915050565b6001600160a01b03858116825284166020820152604081018390526080606082018190526000906121d190830184611e95565b9695505050505050565b6020808252825182820181905260009190848201906040850190845b81811015612213578351835292840192918401916001016121f7565b50909695505050505050565b6020815260006119576020830184611e95565b60208082526032908201527f4552433732313a207472616e7366657220746f206e6f6e20455243373231526560408201527131b2b4bb32b91034b6b83632b6b2b73a32b960711b606082015260800190565b6020808252818101527f4f776e61626c653a2063616c6c6572206973206e6f7420746865206f776e6572604082015260600190565b60208082526031908201527f4552433732313a207472616e736665722063616c6c6572206973206e6f74206f6040820152701ddb995c881b9bdc88185c1c1c9bdd9959607a1b606082015260800190565b6000821982111561231d5761231d612402565b500190565b60008261233157612331612418565b500490565b600081600019048311821515161561235057612350612402565b500290565b60008282101561236757612367612402565b500390565b60005b8381101561238757818101518382015260200161236f565b83811115610d295750506000910152565b600181811c908216806123ac57607f821691505b602082108114156123cd57634e487b7160e01b600052602260045260246000fd5b50919050565b60006000198214156123e7576123e7612402565b5060010190565b6000826123fd576123fd612418565b500690565b634e487b7160e01b600052601160045260246000fd5b634e487b7160e01b600052601260045260246000fd5b634e487b7160e01b600052604160045260246000fd5b6001600160e01b0319811681146110e457600080fdfe4142434445464748494a4b4c4d4e4f505152535455565758595a6162636465666768696a6b6c6d6e6f707172737475767778797a303132333435363738392b2fa2646970667358221220a654d9d479a8d4c99a89fdc37bd886d573e3c279f06c579d1ff7a1c92e4fadf164736f6c634300080400333c73766720786d6c6e733d27687474703a2f2f7777772e77332e6f72672f323030302f737667272077696474683d2734303027206865696768743d27363030273e3c646566733e3c6c696e6561724772616469656e742069643d2761272078313d2730272078323d2730272079313d2730272079323d2731273e3c73746f70206f66667365743d273025272073746f702d636f6c6f723d2723303630613166272f3e3c73746f70206f66667365743d27353025272073746f702d636f6c6f723d2723333231633365272f3e3c73746f70206f66667365743d2731303025272073746f702d636f6c6f723d2723303630613166272f3e3c2f6c696e6561724772616469656e743e3c2f646566733e3c706174682066696c6c3d2775726c2823612927207374726f6b653d272330303027207374726f6b652d77696474683d27322720643d274d313020313068343030763630304831307a272f3e3c7465787420783d2733352720793d2738352720666f6e742d66616d696c793d2756657264616e612720666f6e742d73697a653d273635273ef09f8c993c2f746578743e3c7465787420783d2735332720793d273138302720666f6e742d7765696768743d27626f6c642720666f6e742d66616d696c793d2756657264616e612720666f6e742d73697a653d273132272066696c6c3d27726762283235352c203235352c203235352c202e3529273e6d336d656e746f2070726573656e74733c2f746578743e3c7465787420783d2737302720793d273236352720666f6e742d66616d696c793d2756657264616e612720666f6e742d73697a653d273530272066696c6c3d2723464143433135273e415454454e4445443c2f746578743e3c7465787420783d273132382720793d273331302720666f6e742d66616d696c793d2756657264616e612720666f6e742d73697a653d273233272066696c6c3d2772676261283235302c203230342c2032312c202e39292720666f6e742d7765696768743d27626f6c64273e44454d4f204441593c2f746578743e3c7465787420783d2734352720793d273436302720666f6e742d66616d696c793d2756657264616e612720666f6e742d73697a653d27313330273ef09fa5b33c2f746578743e3c7465787420783d273232302720793d273436302720666f6e742d66616d696c793d2756657264616e612720666f6e742d73697a653d273635272066696c6c3d27236637303061612720666f6e742d7765696768743d27626f6c64273e3c2f746578743e3c7465787420783d2734352720793d273533302720666f6e742d66616d696c793d2756657264616e612720666f6e742d73697a653d2731362720666f6e742d7765696768743d27626f6c64272066696c6c3d2772676261283235352c203235352c203235352c202e3629273e5748454e3a203c2f746578743e3c7465787420783d273131322720793d273533302720666f6e742d66616d696c793d2756657264616e612720666f6e742d73697a653d273136272066696c6c3d2772676261283235352c203235352c203235352c202e3629273e417567757374203674682c2032303232203c2f746578743e3c7465787420783d2734352720793d273536302720666f6e742d66616d696c793d2756657264616e612720666f6e742d73697a653d2731362720666f6e742d7765696768743d27626f6c64272066696c6c3d2772676261283235352c203235352c203235352c202e3629273e54494d453a3c2f746578743e3c7465787420783d273130322720793d273536302720666f6e742d66616d696c793d2756657264616e612720666f6e742d73697a653d273136272066696c6c3d2772676261283235352c203235352c203235352c202e3629273e333a3030706d20555443203c2f746578743e3c73766720783d273237352720793d2733302720786d6c6e733d27687474703a2f2f7777772e77332e6f72672f323030302f73766727206865696768743d27313030272077696474683d27313030272076696577426f783d27302030203239203239273e3c706174682066696c6c3d27233036304131462720643d274d30203068323976323948307a272073686170652d72656e646572696e673d2763726973704564676573272f3e3c706174682066696c6c3d27236666662720643d274d3020306837763148307a6d3820306835763148387a6d36203068317631682d317a6d32203068357631682d357a6d36203068377631682d377a4d3020316831763148307a6d3620306831763148367a6d3220306831763148387a6d33203068347631682d347a6d37203068317631682d317a6d34203068317631682d317a6d36203068317631682d317a4d3020326831763148307a6d3220306833763148327a6d3420306831763148367a6d3320306836763148397a6d3131203068317631682d317a6d32203068317631682d317a6d32203068337631682d337a6d34203068317631682d317a4d3020336831763148307a6d3220306833763148327a6d3420306831763148367a6d3220306831763148387a6d37203068317631682d317a6d32203068317631682d317a6d32203068317631682d317a6d33203068317631682d317a6d32203068337631682d337a6d34203068317631682d317a4d3020346831763148307a6d3220306833763148327a6d3420306831763148367a6d3320306832763148397a6d34203068347631682d347a6d36203068327631682d327a6d33203068317631682d317a6d32203068337631682d337a6d34203068317631682d317a4d3020356831763148307a6d3620306831763148367a6d3320306831763148397a6d33203068317631682d317a6d32203068317631682d317a6d32203068317631682d317a6d33203068327631682d327a6d33203068317631682d317a6d36203068317631682d317a4d3020366837763148307a6d3820306831763148387a6d32203068317631682d317a6d32203068317631682d317a6d32203068317631682d317a6d32203068317631682d317a6d32203068317631682d317a6d32203068317631682d317a6d32203068377631682d377a4d3820376831763148387a6d32203068313076314831307a4d3020386831763148307a6d3220306832763148327a6d3320306833763148357a6d3420306831763148397a6d34203068367631682d367a6d39203068317631682d317a6d33203068317631682d317a6d32203068327631682d327a4d3020396833763148307a6d3420306831763148347a6d3420306831763148387a6d38203068317631682d317a6d32203068377631682d377a6d3130203068317631682d317a4d302031306832763148307a6d3420306831763148347a6d3220306834763148367a6d35203068317631682d317a6d33203068317631682d317a6d32203068317631682d317a6d32203068317631682d317a6d33203068317631682d317a6d32203068317631682d317a6d33203068327631682d327a4d302031316831763148307a6d3320306833763148337a6d3520306831763148387a6d35203068327631682d327a6d35203068317631682d317a6d34203068337631682d337a6d36203068317631682d317a4d342031326831763148347a6d3220306831763148367a6d3220306831763148387a6d32203068317631682d317a6d32203068317631682d317a6d33203068317631682d317a6d32203068317631682d317a6d33203068317631682d317a6d35203068327631682d327a4d302031336831763148307a6d3220306834763148327a6d3520306831763148377a6d3220306835763148397a6d36203068327631682d327a6d34203068317631682d317a6d32203068327631682d327a6d35203068337631682d337a4d302031346832763148307a6d3520306833763148357a6d3420306832763148397a6d35203068317631682d317a6d35203068317631682d317a6d33203068327631682d327a6d34203068337631682d337a4d302031356831763148307a6d3220306833763148327a6d38203068327631682d327a6d33203068317631682d317a6d35203068337631682d337a6d34203068317631682d317a6d35203068317631682d317a4d302031366831763148307a6d3320306831763148337a6d3320306831763148367a6d3220306831763148387a6d32203068337631682d337a6d35203068317631682d317a6d33203068347631682d347a6d35203068337631682d337a6d34203068317631682d317a4d352031376831763148357a6d3320306831763148387a6d33203068337631682d337a6d34203068317631682d317a6d33203068317631682d317a6d33203068317631682d317a6d32203068317631682d317a6d32203068337631682d337a4d302031386831763148307a6d3320306834763148337a6d3620306831763148397a6d32203068327631682d327a6d34203068327631682d327a6d35203068327631682d327a6d33203068327631682d327a6d33203068317631682d317a4d322031396832763148327a6d3720306831763148397a6d32203068317631682d317a6d35203068327631682d327a6d3130203068317631682d317a4d312032306832763148317a6d3520306832763148367a6d3320306835763148397a6d37203068313176314831367a6d2d3820316831763148387a6d34203068337631682d337a6d34203068317631682d317a6d34203068317631682d317a6d34203068357631682d357a4d302032326837763148307a6d3820306832763148387a6d34203068327631682d327a6d34203068317631682d317a6d33203068327631682d327a6d33203068317631682d317a6d32203068327631682d327a6d33203068317631682d317a4d302032336831763148307a6d3620306831763148367a6d3220306834763148387a6d3130203068317631682d317a6d32203068317631682d317a6d34203068327631682d327a6d33203068327631682d327a4d302032346831763148307a6d3220306833763148327a6d3420306831763148367a6d3320306833763148397a6d35203068327631682d327a6d33203068327631682d327a6d33203068357631682d357a6d36203068317631682d317a4d302032356831763148307a6d3220306833763148327a6d3420306831763148367a6d3220306831763148387a6d33203068327631682d327a6d33203068337631682d337a6d35203068317631682d317a6d32203068317631682d317a6d33203068327631682d327a6d34203068317631682d317a4d302032366831763148307a6d3220306833763148327a6d3420306831763148367a6d3220306831763148387a6d33203068327631682d327a6d33203068317631682d317a6d34203068327631682d327a6d35203068317631682d317a6d33203068317631682d317a6d32203068317631682d317a4d302032376831763148307a6d3620306831763148367a6d34203068317631682d317a6d32203068327631682d327a6d34203068317631682d317a6d34203068327631682d327a6d35203068317631682d317a6d32203068317631682d317a4d302032386837763148307a6d3820306831763148387a6d32203068337631682d337a6d36203068317631682d317a6d32203068347631682d347a6d35203068317631682d317a6d34203068317631682d317a272073686170652d72656e646572696e673d2763726973704564676573272f3e3c2f7376673e3c2f7376673e3c73766720786d6c6e733d27687474703a2f2f7777772e77332e6f72672f323030302f737667272077696474683d2734303027206865696768743d27363030273e3c646566733e3c6c696e6561724772616469656e742069643d274772616469656e74272078313d2730272078323d2730272079313d2730272079323d2731272063783d27302e35272063793d27302e352720723d27302e35272066783d27302e3235272066793d27302e3235273e3c73746f70206f66667365743d273025272073746f702d636f6c6f723d272330363061316627202f3e3c73746f70206f66667365743d27353025272073746f702d636f6c6f723d272333323163336527202f3e3c73746f70206f66667365743d2731303025272073746f702d636f6c6f723d272330363061316627202f3e3c2f6c696e6561724772616469656e743e3c2f646566733e3c7265637420783d2731302720793d273130272077696474683d2734303027206865696768743d27363030272066696c6c3d2775726c28234772616469656e742927207374726f6b653d27626c61636b27207374726f6b652d77696474683d273227202f3e3c7465787420783d2733352720793d2738352720666f6e742d66616d696c793d2756657264616e612720666f6e742d73697a653d273635273ef09f8c993c2f746578743e3c7465787420783d2735332720793d273138302720666f6e742d7765696768743d27626f6c642720666f6e742d66616d696c793d2756657264616e612720666f6e742d73697a653d273132272066696c6c3d27726762283235352c203235352c203235352c202e3529273e6d336d656e746f2070726573656e74733c2f746578743e3c7465787420783d2737302720793d273236352720666f6e742d66616d696c793d2756657264616e612720666f6e742d73697a653d273530272066696c6c3d27726762283235302c203230342c20323129273e4e49474854532026616d703b3c2f746578743e3c7465787420783d2736302720793d273331302720666f6e742d66616d696c793d2756657264616e612720666f6e742d73697a653d273530272066696c6c3d27726762283235302c203230342c20323129273e5745454b454e44533c2f746578743e3c7465787420783d273132382720793d273334322720666f6e742d66616d696c793d2756657264616e612720666f6e742d73697a653d273233272066696c6c3d2772676261283235302c203230342c2032312c202e39292720666f6e742d7765696768743d27626f6c64273e44454d4f204441593c2f746578743e3c7465787420783d2734352720793d273431302720666f6e742d66616d696c793d2756657264616e612720666f6e742d73697a653d2731362720666f6e742d7765696768743d27626f6c64272066696c6c3d277768697465273e5748454e3a203c2f746578743e3c7465787420783d273131322720793d273431302720666f6e742d66616d696c793d2756657264616e612720666f6e742d73697a653d273136272066696c6c3d277768697465273e417567757374203674682c2032303232203c2f746578743e3c7465787420783d2734352720793d273434302720666f6e742d66616d696c793d2756657264616e612720666f6e742d73697a653d2731362720666f6e742d7765696768743d27626f6c64272066696c6c3d277768697465273e54494d453a3c2f746578743e3c7465787420783d273130322720793d273434302720666f6e742d66616d696c793d2756657264616e612720666f6e742d73697a653d273136272066696c6c3d277768697465273e333a3030706d20555443203c2f746578743e3c7465787420783d2734352720793d273537302720666f6e742d66616d696c793d2756657264616e612720666f6e742d73697a653d27313330273ef09fa6843c2f746578743e3c7465787420783d273232302720793d273535302720666f6e742d66616d696c793d2756657264616e612720666f6e742d73697a653d273635272066696c6c3d27236666656666612720666f6e742d7765696768743d27626f6c64273e3c2f746578743e3c73766720783d273237352720793d2733302720786d6c6e733d27687474703a2f2f7777772e77332e6f72672f323030302f73766727206865696768743d27313030272077696474683d27313030272076696577426f783d2730203020323920323927207265646e657241733d27737667273e3c706174682066696c6c3d27233036304131462720643d274d302c302068323976323948307a272073686170652d72656e646572696e673d2763726973704564676573273e3c2f706174683e3c706174682066696c6c3d2777686974652720643d274d3020306837763148307a4d3820306835763148387a4d31342030683176314831347a4d31362030683576314831367a4d32322c3020683776314832327a4d3020316831763148307a4d3620316831763148367a4d3820316831763148387a4d31312031683476314831317a4d31382031683176314831387a4d32322031683176314832327a4d32382c3120683176314832387a4d3020326831763148307a4d3220326833763148327a4d3620326831763148367a4d3920326836763148397a4d32302032683176314832307a4d32322032683176314832327a4d32342032683376314832347a4d32382c3220683176314832387a4d3020336831763148307a4d3220336833763148327a4d3620336831763148367a4d3820336831763148387a4d31352033683176314831357a4d31372033683176314831377a4d31392033683176314831397a4d32322033683176314832327a4d32342033683376314832347a4d32382c3320683176314832387a4d3020346831763148307a4d3220346833763148327a4d3620346831763148367a4d3920346832763148397a4d31332034683476314831337a4d31392034683276314831397a4d32322034683176314832327a4d32342034683376314832347a4d32382c3420683176314832387a4d3020356831763148307a4d3620356831763148367a4d3920356831763148397a4d31322035683176314831327a4d31342035683176314831347a4d31362035683176314831367a4d31392035683276314831397a4d32322035683176314832327a4d32382c3520683176314832387a4d3020366837763148307a4d3820366831763148387a4d31302036683176314831307a4d31322036683176314831327a4d31342036683176314831347a4d31362036683176314831367a4d31382036683176314831387a4d32302036683176314832307a4d32322c3620683776314832327a4d3820376831763148387a4d3130203768313076314831307a4d3020386831763148307a4d3220386832763148327a4d3520386833763148357a4d3920386831763148397a4d31332038683676314831337a4d32322038683176314832327a4d32352038683176314832357a4d32372c3820683276314832377a4d3020396833763148307a4d3420396831763148347a4d3820396831763148387a4d31362039683176314831367a4d31382039683776314831387a4d32382c3920683176314832387a4d302031306832763148307a4d342031306831763148347a4d362031306834763148367a4d3131203130683176314831317a4d3134203130683176314831347a4d3136203130683176314831367a4d3138203130683176314831387a4d3231203130683176314832317a4d3233203130683176314832337a4d3236203130683276314832367a4d302031316831763148307a4d332031316833763148337a4d382031316831763148387a4d3133203131683276314831337a4d3138203131683176314831387a4d3232203131683376314832327a4d32382c313120683176314832387a4d342031326831763148347a4d362031326831763148367a4d382031326831763148387a4d3130203132683176314831307a4d3132203132683176314831327a4d3135203132683176314831357a4d3137203132683176314831377a4d3230203132683176314832307a4d3235203132683276314832357a4d302031336831763148307a4d322031336834763148327a4d372031336831763148377a4d392031336835763148397a4d3135203133683276314831357a4d3139203133683176314831397a4d3231203133683276314832317a4d32362c313320683376314832367a4d302031346832763148307a4d352031346833763148357a4d392031346832763148397a4d3134203134683176314831347a4d3139203134683176314831397a4d3232203134683276314832327a4d32362c313420683376314832367a4d302031356831763148307a4d322031356833763148327a4d3130203135683276314831307a4d3133203135683176314831337a4d3138203135683376314831387a4d3232203135683176314832327a4d3237203135683176314832377a4d302031366831763148307a4d332031366831763148337a4d362031366831763148367a4d382031366831763148387a4d3130203136683376314831307a4d3135203136683176314831357a4d3138203136683476314831387a4d3233203136683376314832337a4d3237203136683176314832377a4d352031376831763148357a4d382031376831763148387a4d3131203137683376314831317a4d3135203137683176314831357a4d3138203137683176314831387a4d3231203137683176314832317a4d3233203137683176314832337a4d3235203137683376314832357a4d302031386831763148307a4d332031386834763148337a4d392031386831763148397a4d3131203138683276314831317a4d3135203138683276314831357a4d3230203138683276314832307a4d3233203138683276314832337a4d3236203138683176314832367a4d322031396832763148327a4d392031396831763148397a4d3131203139683176314831317a4d3136203139683276314831367a4d3236203139683176314832367a4d312032306832763148317a4d362032306832763148367a4d392032306835763148397a4d313620323068313176314831367a4d382032316831763148387a4d3132203231683376314831327a4d3136203231683176314831367a4d3230203231683176314832307a4d32342c323120683576314832347a4d302032326837763148307a4d382032326832763148387a4d3132203232683276314831327a4d3136203232683176314831367a4d3139203232683276314831397a4d3232203232683176314832327a4d3234203232683276314832347a4d3237203232683176314832377a4d302032336831763148307a4d362032336831763148367a4d382032336834763148387a4d3138203233683176314831387a4d3230203233683176314832307a4d3234203233683276314832347a4d32372c323320683276314832377a4d302032346831763148307a4d322032346833763148327a4d362032346831763148367a4d392032346833763148397a4d3134203234683276314831347a4d3137203234683276314831377a4d3230203234683576314832307a4d3236203234683176314832367a4d302032356831763148307a4d322032356833763148327a4d362032356831763148367a4d382032356831763148387a4d3131203235683276314831317a4d3134203235683376314831347a4d3139203235683176314831397a4d3231203235683176314832317a4d3234203235683276314832347a4d32382c323520683176314832387a4d302032366831763148307a4d322032366833763148327a4d362032366831763148367a4d382032366831763148387a4d3131203236683276314831317a4d3134203236683176314831347a4d3138203236683276314831387a4d3233203236683176314832337a4d3236203236683176314832367a4d32382c323620683176314832387a4d302032376831763148307a4d362032376831763148367a4d3130203237683176314831307a4d3132203237683276314831327a4d3136203237683176314831367a4d3230203237683276314832307a4d3235203237683176314832357a4d3237203237683176314832377a4d302032386837763148307a4d382032386831763148387a4d3130203238683376314831307a4d3136203238683176314831367a4d3138203238683476314831387a4d3233203238683176314832337a4d3237203238683176314832377a272073686170652d72656e646572696e673d2763726973704564676573273e3c2f706174683e3c2f7376673e3c2f7376673e",
  "linkReferences": {},
  "deployedLinkReferences": {}
}