{
  "_format": "hh-sol-artifact-1",
  "contractName": "YourContract",
  "sourceName": "contracts/YourContract.sol",
  "abi": [
    {
      "inputs": [],
      "stateMutability": "nonpayable",
      "type": "constructor"
    },
    {
      "anonymous": false,
      "inputs": [
        {
          "indexed": true,
          "internalType": "address",
          "name": "owner",
          "type": "address"
        },
        {
          "indexed": true,
          "internalType": "address",
          "name": "approved",
          "type": "address"
        },
        {
          "indexed": true,
          "internalType": "uint256",
          "name": "tokenId",
          "type": "uint256"
        }
      ],
      "name": "Approval",
      "type": "event"
    },
    {
      "anonymous": false,
      "inputs": [
        {
          "indexed": true,
          "internalType": "address",
          "name": "owner",
          "type": "address"
        },
        {
          "indexed": true,
          "internalType": "address",
          "name": "operator",
          "type": "address"
        },
        {
          "indexed": false,
          "internalType": "bool",
          "name": "approved",
          "type": "bool"
        }
      ],
      "name": "ApprovalForAll",
      "type": "event"
    },
    {
      "anonymous": false,
      "inputs": [
        {
          "indexed": true,
          "internalType": "address",
          "name": "previousOwner",
          "type": "address"
        },
        {
          "indexed": true,
          "internalType": "address",
          "name": "newOwner",
          "type": "address"
        }
      ],
      "name": "OwnershipTransferred",
      "type": "event"
    },
    {
      "anonymous": false,
      "inputs": [
        {
          "indexed": true,
          "internalType": "address",
          "name": "from",
          "type": "address"
        },
        {
          "indexed": true,
          "internalType": "address",
          "name": "to",
          "type": "address"
        },
        {
          "indexed": true,
          "internalType": "uint256",
          "name": "tokenId",
          "type": "uint256"
        }
      ],
      "name": "Transfer",
      "type": "event"
    },
    {
      "inputs": [
        {
          "internalType": "address",
          "name": "to",
          "type": "address"
        },
        {
          "internalType": "uint256",
          "name": "tokenId",
          "type": "uint256"
        }
      ],
      "name": "approve",
      "outputs": [],
      "stateMutability": "nonpayable",
      "type": "function"
    },
    {
      "inputs": [],
      "name": "availableTickets",
      "outputs": [
        {
          "internalType": "uint256",
          "name": "",
          "type": "uint256"
        }
      ],
      "stateMutability": "view",
      "type": "function"
    },
    {
      "inputs": [
        {
          "internalType": "address",
          "name": "owner",
          "type": "address"
        }
      ],
      "name": "balanceOf",
      "outputs": [
        {
          "internalType": "uint256",
          "name": "",
          "type": "uint256"
        }
      ],
      "stateMutability": "view",
      "type": "function"
    },
    {
      "inputs": [
        {
          "internalType": "address",
          "name": "addy",
          "type": "address"
        }
      ],
      "name": "checkIn",
      "outputs": [],
      "stateMutability": "nonpayable",
      "type": "function"
    },
    {
      "inputs": [
        {
          "internalType": "address",
          "name": "",
          "type": "address"
        }
      ],
      "name": "checkIns",
      "outputs": [
        {
          "internalType": "bool",
          "name": "",
          "type": "bool"
        }
      ],
      "stateMutability": "view",
      "type": "function"
    },
    {
      "inputs": [],
      "name": "closeSale",
      "outputs": [],
      "stateMutability": "nonpayable",
      "type": "function"
    },
    {
      "inputs": [
        {
          "internalType": "uint256",
          "name": "tokenId",
          "type": "uint256"
        }
      ],
      "name": "getApproved",
      "outputs": [
        {
          "internalType": "address",
          "name": "",
          "type": "address"
        }
      ],
      "stateMutability": "view",
      "type": "function"
    },
    {
      "inputs": [],
      "name": "getAvailableTickets",
      "outputs": [
        {
          "internalType": "uint256",
          "name": "",
          "type": "uint256"
        }
      ],
      "stateMutability": "view",
      "type": "function"
    },
    {
      "inputs": [
        {
          "internalType": "address",
          "name": "addy",
          "type": "address"
        }
      ],
      "name": "getConfirmOwnership",
      "outputs": [
        {
          "internalType": "bool",
          "name": "",
          "type": "bool"
        }
      ],
      "stateMutability": "view",
      "type": "function"
    },
    {
      "inputs": [],
      "name": "getCurrentId",
      "outputs": [
        {
          "internalType": "uint256",
          "name": "",
          "type": "uint256"
        }
      ],
      "stateMutability": "view",
      "type": "function"
    },
    {
      "inputs": [],
      "name": "getSaleOpen",
      "outputs": [
        {
          "internalType": "bool",
          "name": "",
          "type": "bool"
        }
      ],
      "stateMutability": "view",
      "type": "function"
    },
    {
      "inputs": [],
      "name": "getTotalTickets",
      "outputs": [
        {
          "internalType": "uint256",
          "name": "",
          "type": "uint256"
        }
      ],
      "stateMutability": "view",
      "type": "function"
    },
    {
      "inputs": [
        {
          "internalType": "address",
          "name": "owner",
          "type": "address"
        },
        {
          "internalType": "address",
          "name": "operator",
          "type": "address"
        }
      ],
      "name": "isApprovedForAll",
      "outputs": [
        {
          "internalType": "bool",
          "name": "",
          "type": "bool"
        }
      ],
      "stateMutability": "view",
      "type": "function"
    },
    {
      "inputs": [],
      "name": "mint",
      "outputs": [],
      "stateMutability": "payable",
      "type": "function"
    },
    {
      "inputs": [],
      "name": "name",
      "outputs": [
        {
          "internalType": "string",
          "name": "",
          "type": "string"
        }
      ],
      "stateMutability": "view",
      "type": "function"
    },
    {
      "inputs": [],
      "name": "openSale",
      "outputs": [],
      "stateMutability": "nonpayable",
      "type": "function"
    },
    {
      "inputs": [],
      "name": "owner",
      "outputs": [
        {
          "internalType": "address",
          "name": "",
          "type": "address"
        }
      ],
      "stateMutability": "view",
      "type": "function"
    },
    {
      "inputs": [
        {
          "internalType": "uint256",
          "name": "tokenId",
          "type": "uint256"
        }
      ],
      "name": "ownerOf",
      "outputs": [
        {
          "internalType": "address",
          "name": "",
          "type": "address"
        }
      ],
      "stateMutability": "view",
      "type": "function"
    },
    {
      "inputs": [],
      "name": "renounceOwnership",
      "outputs": [],
      "stateMutability": "nonpayable",
      "type": "function"
    },
    {
      "inputs": [
        {
          "internalType": "address",
          "name": "from",
          "type": "address"
        },
        {
          "internalType": "address",
          "name": "to",
          "type": "address"
        },
        {
          "internalType": "uint256",
          "name": "tokenId",
          "type": "uint256"
        }
      ],
      "name": "safeTransferFrom",
      "outputs": [],
      "stateMutability": "nonpayable",
      "type": "function"
    },
    {
      "inputs": [
        {
          "internalType": "address",
          "name": "from",
          "type": "address"
        },
        {
          "internalType": "address",
          "name": "to",
          "type": "address"
        },
        {
          "internalType": "uint256",
          "name": "tokenId",
          "type": "uint256"
        },
        {
          "internalType": "bytes",
          "name": "_data",
          "type": "bytes"
        }
      ],
      "name": "safeTransferFrom",
      "outputs": [],
      "stateMutability": "nonpayable",
      "type": "function"
    },
    {
      "inputs": [],
      "name": "saleIsActive",
      "outputs": [
        {
          "internalType": "bool",
          "name": "",
          "type": "bool"
        }
      ],
      "stateMutability": "view",
      "type": "function"
    },
    {
      "inputs": [
        {
          "internalType": "address",
          "name": "operator",
          "type": "address"
        },
        {
          "internalType": "bool",
          "name": "approved",
          "type": "bool"
        }
      ],
      "name": "setApprovalForAll",
      "outputs": [],
      "stateMutability": "nonpayable",
      "type": "function"
    },
    {
      "inputs": [
        {
          "internalType": "bytes4",
          "name": "interfaceId",
          "type": "bytes4"
        }
      ],
      "name": "supportsInterface",
      "outputs": [
        {
          "internalType": "bool",
          "name": "",
          "type": "bool"
        }
      ],
      "stateMutability": "view",
      "type": "function"
    },
    {
      "inputs": [],
      "name": "symbol",
      "outputs": [
        {
          "internalType": "string",
          "name": "",
          "type": "string"
        }
      ],
      "stateMutability": "view",
      "type": "function"
    },
    {
      "inputs": [
        {
          "internalType": "address",
          "name": "",
          "type": "address"
        },
        {
          "internalType": "uint256",
          "name": "",
          "type": "uint256"
        }
      ],
      "name": "ticketHolderIds",
      "outputs": [
        {
          "internalType": "uint256",
          "name": "",
          "type": "uint256"
        }
      ],
      "stateMutability": "view",
      "type": "function"
    },
    {
      "inputs": [],
      "name": "ticketPrice",
      "outputs": [
        {
          "internalType": "uint256",
          "name": "",
          "type": "uint256"
        }
      ],
      "stateMutability": "view",
      "type": "function"
    },
    {
      "inputs": [
        {
          "internalType": "uint256",
          "name": "tokenId",
          "type": "uint256"
        }
      ],
      "name": "tokenURI",
      "outputs": [
        {
          "internalType": "string",
          "name": "",
          "type": "string"
        }
      ],
      "stateMutability": "view",
      "type": "function"
    },
    {
      "inputs": [],
      "name": "totalTickets",
      "outputs": [
        {
          "internalType": "uint256",
          "name": "",
          "type": "uint256"
        }
      ],
      "stateMutability": "view",
      "type": "function"
    },
    {
      "inputs": [
        {
          "internalType": "address",
          "name": "from",
          "type": "address"
        },
        {
          "internalType": "address",
          "name": "to",
          "type": "address"
        },
        {
          "internalType": "uint256",
          "name": "tokenId",
          "type": "uint256"
        }
      ],
      "name": "transferFrom",
      "outputs": [],
      "stateMutability": "nonpayable",
      "type": "function"
    },
    {
      "inputs": [
        {
          "internalType": "address",
          "name": "newOwner",
          "type": "address"
        }
      ],
      "name": "transferOwnership",
      "outputs": [],
      "stateMutability": "nonpayable",
      "type": "function"
    }
  ],
  "bytecode": "0x6103806040526102d6608081815290620033c060a03980516200002b91600991602090910190620001ab565b5060405180610c400160405280610c1c8152602001620027a4610c1c913980516200005f91600a91602090910190620001ab565b506040805160208101918290526000908190526200008091600b91620001ab565b50600c805460ff191660019081179091556101f4600d819055600e55600f55348015620000ac57600080fd5b50604051806040016040528060078152602001662a32b9ba10181b60c91b815250604051806040016040528060038152602001622a181b60e91b81525062000103620000fd6200014e60201b60201c565b62000152565b815162000118906001906020850190620001ab565b5080516200012e906002906020840190620001ab565b505050620001486008620001a260201b620011461760201c565b6200028e565b3390565b600080546001600160a01b038381166001600160a01b0319831681178455604051919092169283917f8be0079c531659141344cd1fd0a4f28419497f9722a3daafe3b4186f6b6457e09190a35050565b80546001019055565b828054620001b99062000251565b90600052602060002090601f016020900481019282620001dd576000855562000228565b82601f10620001f857805160ff191683800117855562000228565b8280016001018555821562000228579182015b82811115620002285782518255916020019190600101906200020b565b50620002369291506200023a565b5090565b5b808211156200023657600081556001016200023b565b600181811c908216806200026657607f821691505b602082108114156200028857634e487b7160e01b600052602260045260246000fd5b50919050565b612506806200029e6000396000f3fe6080604052600436106101d85760003560e01c806370a0823111610102578063c87b56dd11610095578063eb8d244411610064578063eb8d24441461054f578063ee55efee14610569578063f2fde38b1461057e578063f498a9a31461059e57600080fd5b8063c87b56dd146104b0578063d9a59e33146104d0578063dd11247e146104f0578063e985e9c51461050657600080fd5b806395d89b41116100d157806395d89b41146104235780639d3efe8614610438578063a22cb46514610470578063b88d4fde1461049057600080fd5b806370a08231146103b0578063715018a6146103d05780638a216ab8146103e55780638da5cb5b1461040557600080fd5b8063167ff46f1161017a57806342842e0e1161014957806342842e0e146103465780635a8acacc146103665780636352211e1461037b5780636c1438621461039b57600080fd5b8063167ff46f146102cb5780631acc9b62146102e057806323b872dd146103105780633cfa7e011461033057600080fd5b8063081812fc116101b6578063081812fc14610253578063095ea7b31461028b5780631209b1f6146102ad5780631249c58b146102c357600080fd5b806301ffc9a7146101dd57806306e8337f1461021257806306fdde0314610231575b600080fd5b3480156101e957600080fd5b506101fd6101f8366004611f0a565b6105b6565b60405190151581526020015b60405180910390f35b34801561021e57600080fd5b50600d545b604051908152602001610209565b34801561023d57600080fd5b50610246610608565b6040516102099190612227565b34801561025f57600080fd5b5061027361026e366004611f42565b61069a565b6040516001600160a01b039091168152602001610209565b34801561029757600080fd5b506102ab6102a6366004611ee1565b610727565b005b3480156102b957600080fd5b50610223600f5481565b6102ab61083d565b3480156102d757600080fd5b506102ab610ac9565b3480156102ec57600080fd5b506101fd6102fb366004611d4b565b60116020526000908152604090205460ff1681565b34801561031c57600080fd5b506102ab61032b366004611d97565b610b02565b34801561033c57600080fd5b50610223600e5481565b34801561035257600080fd5b506102ab610361366004611d97565b610b33565b34801561037257600080fd5b50600e54610223565b34801561038757600080fd5b50610273610396366004611f42565b610b4e565b3480156103a757600080fd5b50610223610bc5565b3480156103bc57600080fd5b506102236103cb366004611d4b565b610bd5565b3480156103dc57600080fd5b506102ab610c5c565b3480156103f157600080fd5b50610223610400366004611ee1565b610c92565b34801561041157600080fd5b506000546001600160a01b0316610273565b34801561042f57600080fd5b50610246610cc3565b34801561044457600080fd5b506101fd610453366004611d4b565b6001600160a01b0316600090815260106020526040902054151590565b34801561047c57600080fd5b506102ab61048b366004611ea7565b610cd2565b34801561049c57600080fd5b506102ab6104ab366004611dd2565b610ce1565b3480156104bc57600080fd5b506102466104cb366004611f42565b610d19565b3480156104dc57600080fd5b506102ab6104eb366004611d4b565b610e90565b3480156104fc57600080fd5b50610223600d5481565b34801561051257600080fd5b506101fd610521366004611d65565b6001600160a01b03918216600090815260066020908152604080832093909416825291909152205460ff1690565b34801561055b57600080fd5b50600c546101fd9060ff1681565b34801561057557600080fd5b506102ab611075565b34801561058a57600080fd5b506102ab610599366004611d4b565b6110ab565b3480156105aa57600080fd5b50600c5460ff166101fd565b60006001600160e01b031982166380ac58cd60e01b14806105e757506001600160e01b03198216635b5e139f60e01b145b8061060257506301ffc9a760e01b6001600160e01b03198316145b92915050565b606060018054610617906123ce565b80601f0160208091040260200160405190810160405280929190818152602001828054610643906123ce565b80156106905780601f1061066557610100808354040283529160200191610690565b820191906000526020600020905b81548152906001019060200180831161067357829003601f168201915b5050505050905090565b60006106a58261114f565b61070b5760405162461bcd60e51b815260206004820152602c60248201527f4552433732313a20617070726f76656420717565727920666f72206e6f6e657860448201526b34b9ba32b73a103a37b5b2b760a11b60648201526084015b60405180910390fd5b506000908152600560205260409020546001600160a01b031690565b600061073282610b4e565b9050806001600160a01b0316836001600160a01b031614156107a05760405162461bcd60e51b815260206004820152602160248201527f4552433732313a20617070726f76616c20746f2063757272656e74206f776e656044820152603960f91b6064820152608401610702565b336001600160a01b03821614806107bc57506107bc8133610521565b61082e5760405162461bcd60e51b815260206004820152603860248201527f4552433732313a20617070726f76652063616c6c6572206973206e6f74206f7760448201527f6e6572206e6f7220617070726f76656420666f7220616c6c00000000000000006064820152608401610702565b610838838361116c565b505050565b6000600e541161087a5760405162461bcd60e51b815260206004820152600860248201526714dbdb19081bdd5d60c21b6044820152606401610702565b600c5460ff166108cc5760405162461bcd60e51b815260206004820152601760248201527f5469636b65747320617265206e6f74206f6e2073616c650000000000000000006044820152606401610702565b600f543410156109105760405162461bcd60e51b815260206004820152600f60248201526e596f75206e65656420746f2070617960881b6044820152606401610702565b600061091b60085490565b90506000610928826111da565b9050600a82101561095e5760408051808201909152600280825261030360f41b602090920191825261095c91600b91611c96565b505b60098211801561096e5750606482105b1561099d57604080518082019091526001808252600360fc1b602090920191825261099b91600b91611c96565b505b60006009600b83600a6040516020016109b9949392919061204d565b604051602081830303815290604052905060006109fc6109d8836112f4565b6040516020016109e8919061208a565b6040516020818303038152906040526112f4565b9050600081604051602001610a1191906121a5565b6040516020818303038152906040529050610a3433610a2f60085490565b611468565b610a46610a4060085490565b82611482565b610a7a6040518060400160405280601281526020017103a37b5b2b72aa9249034b71036b4b73a1d160751b8152508261150d565b33600090815260106020526040902060085481546001810183556000928352602090922090910155610ab0600880546001019055565b6001600e54610abf919061238b565b600e555050505050565b6000546001600160a01b03163314610af35760405162461bcd60e51b8152600401610702906122ba565b600c805460ff19166001179055565b610b0c3382611552565b610b285760405162461bcd60e51b8152600401610702906122ef565b610838838383611638565b61083883838360405180602001604052806000815250610ce1565b6000818152600360205260408120546001600160a01b0316806106025760405162461bcd60e51b815260206004820152602960248201527f4552433732313a206f776e657220717565727920666f72206e6f6e657869737460448201526832b73a103a37b5b2b760b91b6064820152608401610702565b6000610bd060085490565b905090565b60006001600160a01b038216610c405760405162461bcd60e51b815260206004820152602a60248201527f4552433732313a2062616c616e636520717565727920666f7220746865207a65604482015269726f206164647265737360b01b6064820152608401610702565b506001600160a01b031660009081526004602052604090205490565b6000546001600160a01b03163314610c865760405162461bcd60e51b8152600401610702906122ba565b610c9060006117d8565b565b60106020528160005260406000208181548110610cae57600080fd5b90600052602060002001600091509150505481565b606060028054610617906123ce565b610cdd338383611828565b5050565b610ceb3383611552565b610d075760405162461bcd60e51b8152600401610702906122ef565b610d13848484846118f7565b50505050565b6060610d248261114f565b610d8a5760405162461bcd60e51b815260206004820152603160248201527f45524337323155524953746f726167653a2055524920717565727920666f72206044820152703737b732bc34b9ba32b73a103a37b5b2b760791b6064820152608401610702565b60008281526007602052604081208054610da3906123ce565b80601f0160208091040260200160405190810160405280929190818152602001828054610dcf906123ce565b8015610e1c5780601f10610df157610100808354040283529160200191610e1c565b820191906000526020600020905b815481529060010190602001808311610dff57829003601f168201915b505050505090506000610e3a60408051602081019091526000815290565b9050805160001415610e4d575092915050565b815115610e7f578082604051602001610e6792919061201e565b60405160208183030381529060405292505050919050565b610e888461192a565b949350505050565b6001600160a01b0381166000908152601160209081526040808320805460ff191660011790556010909152812080548290610edb57634e487b7160e01b600052603260045260246000fd5b9060005260206000200154905060006110156040516020016109e8907f7b226e616d65223a20224e69676874732026205765656b656e6473205365617381527f6f6e2031222c20226465736372697074696f6e223a2022353030206275696c6460208201527f657273207368697070696e6720666f722036207765656b732e204754464f4c2060408201527f6f72204754464f222c2022696d616765223a2022697066733a2f2f516d62654560608201527f4343415a6e5a646b644632795675323344514873753475633357536e734d533160808201527f676e7750346a384c33222c202261747472696275746573223a205b7b2274726160a08201527f69745f74797065223a2022436865636b20496e222c202276616c7565223a202260c08201526774727565227d5d7d60c01b60e082015260e80190565b905060008160405160200161102a91906121a5565b60408051601f19818403018152828201909152601582527403a37b5b2b72aa9249034b71031b432b1b5a4b71d1605d1b6020830152915061106b908261150d565b610d138382611482565b6000546001600160a01b0316331461109f5760405162461bcd60e51b8152600401610702906122ba565b600c805460ff19169055565b6000546001600160a01b031633146110d55760405162461bcd60e51b8152600401610702906122ba565b6001600160a01b03811661113a5760405162461bcd60e51b815260206004820152602660248201527f4f776e61626c653a206e6577206f776e657220697320746865207a65726f206160448201526564647265737360d01b6064820152608401610702565b611143816117d8565b50565b80546001019055565b6000908152600360205260409020546001600160a01b0316151590565b600081815260056020526040902080546001600160a01b0319166001600160a01b03841690811790915581906111a182610b4e565b6001600160a01b03167f8c5be1e5ebec7d5bd14f71427d1e84f3dd0314c0f7b2291e5b200ac8c7c3b92560405160405180910390a45050565b6060816111fe5750506040805180820190915260018152600360fc1b602082015290565b8160005b8115611228578061121281612409565b91506112219050600a83612358565b9150611202565b60008167ffffffffffffffff81111561125157634e487b7160e01b600052604160045260246000fd5b6040519080825280601f01601f19166020018201604052801561127b576020820181803683370190505b5090505b8415610e885761129060018361238b565b915061129d600a86612424565b6112a8906030612340565b60f81b8183815181106112cb57634e487b7160e01b600052603260045260246000fd5b60200101906001600160f81b031916908160001a9053506112ed600a86612358565b945061127f565b805160609080611314575050604080516020810190915260008152919050565b60006003611323836002612340565b61132d9190612358565b61133890600461236c565b90506000611347826020612340565b67ffffffffffffffff81111561136d57634e487b7160e01b600052604160045260246000fd5b6040519080825280601f01601f191660200182016040528015611397576020820181803683370190505b5090506000604051806060016040528060408152602001612491604091399050600181016020830160005b86811015611423576003818a01810151603f601282901c8116860151600c83901c8216870151600684901c831688015192909316870151600891821b60ff94851601821b92841692909201901b91160160e01b8352600490920191016113c2565b50600386066001811461143d576002811461144e5761145a565b613d3d60f01b60011983015261145a565b603d60f81b6000198301525b505050918152949350505050565b610cdd828260405180602001604052806000815250611a02565b61148b8261114f565b6114ee5760405162461bcd60e51b815260206004820152602e60248201527f45524337323155524953746f726167653a2055524920736574206f66206e6f6e60448201526d32bc34b9ba32b73a103a37b5b2b760911b6064820152608401610702565b6000828152600760209081526040909120825161083892840190611c96565b610cdd828260405160240161152392919061223a565b60408051601f198184030181529190526020810180516001600160e01b0316634b5c427760e01b179052611a35565b600061155d8261114f565b6115be5760405162461bcd60e51b815260206004820152602c60248201527f4552433732313a206f70657261746f7220717565727920666f72206e6f6e657860448201526b34b9ba32b73a103a37b5b2b760a11b6064820152608401610702565b60006115c983610b4e565b9050806001600160a01b0316846001600160a01b031614806116045750836001600160a01b03166115f98461069a565b6001600160a01b0316145b80610e8857506001600160a01b0380821660009081526006602090815260408083209388168352929052205460ff16610e88565b826001600160a01b031661164b82610b4e565b6001600160a01b0316146116b35760405162461bcd60e51b815260206004820152602960248201527f4552433732313a207472616e73666572206f6620746f6b656e2074686174206960448201526839903737ba1037bbb760b91b6064820152608401610702565b6001600160a01b0382166117155760405162461bcd60e51b8152602060048201526024808201527f4552433732313a207472616e7366657220746f20746865207a65726f206164646044820152637265737360e01b6064820152608401610702565b61172060008261116c565b6001600160a01b038316600090815260046020526040812080546001929061174990849061238b565b90915550506001600160a01b0382166000908152600460205260408120805460019290611777908490612340565b909155505060008181526003602052604080822080546001600160a01b0319166001600160a01b0386811691821790925591518493918716917fddf252ad1be2c89b69c2b068fc378daa952ba7f163c4a11628f55a4df523b3ef91a4505050565b600080546001600160a01b038381166001600160a01b0319831681178455604051919092169283917f8be0079c531659141344cd1fd0a4f28419497f9722a3daafe3b4186f6b6457e09190a35050565b816001600160a01b0316836001600160a01b0316141561188a5760405162461bcd60e51b815260206004820152601960248201527f4552433732313a20617070726f766520746f2063616c6c6572000000000000006044820152606401610702565b6001600160a01b03838116600081815260066020908152604080832094871680845294825291829020805460ff191686151590811790915591519182527f17307eab39ab6107e8899845ad3d59bd9653f200f220920489ca2b5937696c31910160405180910390a3505050565b611902848484611638565b61190e84848484611a56565b610d135760405162461bcd60e51b815260040161070290612268565b60606119358261114f565b6119995760405162461bcd60e51b815260206004820152602f60248201527f4552433732314d657461646174613a2055524920717565727920666f72206e6f60448201526e3732bc34b9ba32b73a103a37b5b2b760891b6064820152608401610702565b60006119b060408051602081019091526000815290565b905060008151116119d057604051806020016040528060008152506119fb565b806119da846111da565b6040516020016119eb92919061201e565b6040516020818303038152906040525b9392505050565b611a0c8383611b63565b611a196000848484611a56565b6108385760405162461bcd60e51b815260040161070290612268565b80516a636f6e736f6c652e6c6f67602083016000808483855afa5050505050565b60006001600160a01b0384163b15611b5857604051630a85bd0160e11b81526001600160a01b0385169063150b7a0290611a9a9033908990889088906004016121ea565b602060405180830381600087803b158015611ab457600080fd5b505af1925050508015611ae4575060408051601f3d908101601f19168201909252611ae191810190611f26565b60015b611b3e573d808015611b12576040519150601f19603f3d011682016040523d82523d6000602084013e611b17565b606091505b508051611b365760405162461bcd60e51b815260040161070290612268565b805181602001fd5b6001600160e01b031916630a85bd0160e11b149050610e88565b506001949350505050565b6001600160a01b038216611bb95760405162461bcd60e51b815260206004820181905260248201527f4552433732313a206d696e7420746f20746865207a65726f20616464726573736044820152606401610702565b611bc28161114f565b15611c0f5760405162461bcd60e51b815260206004820152601c60248201527f4552433732313a20746f6b656e20616c7265616479206d696e746564000000006044820152606401610702565b6001600160a01b0382166000908152600460205260408120805460019290611c38908490612340565b909155505060008181526003602052604080822080546001600160a01b0319166001600160a01b03861690811790915590518392907fddf252ad1be2c89b69c2b068fc378daa952ba7f163c4a11628f55a4df523b3ef908290a45050565b828054611ca2906123ce565b90600052602060002090601f016020900481019282611cc45760008555611d0a565b82601f10611cdd57805160ff1916838001178555611d0a565b82800160010185558215611d0a579182015b82811115611d0a578251825591602001919060010190611cef565b50611d16929150611d1a565b5090565b5b80821115611d165760008155600101611d1b565b80356001600160a01b0381168114611d4657600080fd5b919050565b600060208284031215611d5c578081fd5b6119fb82611d2f565b60008060408385031215611d77578081fd5b611d8083611d2f565b9150611d8e60208401611d2f565b90509250929050565b600080600060608486031215611dab578081fd5b611db484611d2f565b9250611dc260208501611d2f565b9150604084013590509250925092565b60008060008060808587031215611de7578081fd5b611df085611d2f565b9350611dfe60208601611d2f565b925060408501359150606085013567ffffffffffffffff80821115611e21578283fd5b818701915087601f830112611e34578283fd5b813581811115611e4657611e46612464565b604051601f8201601f19908116603f01168101908382118183101715611e6e57611e6e612464565b816040528281528a6020848701011115611e86578586fd5b82602086016020830137918201602001949094529598949750929550505050565b60008060408385031215611eb9578182fd5b611ec283611d2f565b915060208301358015158114611ed6578182fd5b809150509250929050565b60008060408385031215611ef3578182fd5b611efc83611d2f565b946020939093013593505050565b600060208284031215611f1b578081fd5b81356119fb8161247a565b600060208284031215611f37578081fd5b81516119fb8161247a565b600060208284031215611f53578081fd5b5035919050565b60008151808452611f728160208601602086016123a2565b601f01601f19169290920160200192915050565b8054600090600181811c9080831680611fa057607f831692505b6020808410821415611fc057634e487b7160e01b86526022600452602486fd5b818015611fd45760018114611fe557612012565b60ff19861689528489019650612012565b60008881526020902060005b8681101561200a5781548b820152908501908301611ff1565b505084890196505b50505050505092915050565b600083516120308184602088016123a2565b8351908301906120448183602088016123a2565b01949350505050565b600061206261205c8388611f86565b86611f86565b84516120728183602089016123a2565b61207e81830186611f86565b98975050505050505050565b7f7b226e616d65223a20224e69676874732026205765656b656e6473205365617381527f6f6e2031222c20226465736372697074696f6e223a2022353030206275696c6460208201527f657273207368697070696e6720666f722036207765656b732e204754464f4c2060408201527f6f72204754464f222c2022696d616765223a2022646174613a696d6167652f7360608201526d1d99cade1b5b0ed8985cd94d8d0b60921b60808201526000825161214b81608e8501602087016123a2565b7f222c202261747472696275746573223a205b7b2274726169745f74797065223a608e9390910192830152507f2022436865636b20496e222c202276616c7565223a202266616c7365227d5d7d60ae82015260ce01919050565b7f646174613a6170706c69636174696f6e2f6a736f6e3b6261736536342c0000008152600082516121dd81601d8501602087016123a2565b91909101601d0192915050565b6001600160a01b038581168252841660208201526040810183905260806060820181905260009061221d90830184611f5a565b9695505050505050565b6020815260006119fb6020830184611f5a565b60408152600061224d6040830185611f5a565b828103602084015261225f8185611f5a565b95945050505050565b60208082526032908201527f4552433732313a207472616e7366657220746f206e6f6e20455243373231526560408201527131b2b4bb32b91034b6b83632b6b2b73a32b960711b606082015260800190565b6020808252818101527f4f776e61626c653a2063616c6c6572206973206e6f7420746865206f776e6572604082015260600190565b60208082526031908201527f4552433732313a207472616e736665722063616c6c6572206973206e6f74206f6040820152701ddb995c881b9bdc88185c1c1c9bdd9959607a1b606082015260800190565b6000821982111561235357612353612438565b500190565b6000826123675761236761244e565b500490565b600081600019048311821515161561238657612386612438565b500290565b60008282101561239d5761239d612438565b500390565b60005b838110156123bd5781810151838201526020016123a5565b83811115610d135750506000910152565b600181811c908216806123e257607f821691505b6020821081141561240357634e487b7160e01b600052602260045260246000fd5b50919050565b600060001982141561241d5761241d612438565b5060010190565b6000826124335761243361244e565b500690565b634e487b7160e01b600052601160045260246000fd5b634e487b7160e01b600052601260045260246000fd5b634e487b7160e01b600052604160045260246000fd5b6001600160e01b03198116811461114357600080fdfe4142434445464748494a4b4c4d4e4f505152535455565758595a6162636465666768696a6b6c6d6e6f707172737475767778797a303132333435363738392b2fa2646970667358221220f8417daf5d6334fa89f25bfed51152540c648a7838aee7ded1cb7f52990435bb64736f6c634300080400333c2f746578743e3c73766720783d273238302720793d273439302720786d6c6e733d27687474703a2f2f7777772e77332e6f72672f323030302f73766727206865696768743d27313030272077696474683d27313030272076696577426f783d2730203020323920323927207265646e657241733d27737667273e3c706174682066696c6c3d27233036304131462720643d274d302c302068323976323948307a272073686170652d72656e646572696e673d2763726973704564676573273e3c2f706174683e3c706174682066696c6c3d2777686974652720643d274d3020306837763148307a4d3820306835763148387a4d31342030683176314831347a4d31362030683576314831367a4d32322c3020683776314832327a4d3020316831763148307a4d3620316831763148367a4d3820316831763148387a4d31312031683476314831317a4d31382031683176314831387a4d32322031683176314832327a4d32382c3120683176314832387a4d3020326831763148307a4d3220326833763148327a4d3620326831763148367a4d3920326836763148397a4d32302032683176314832307a4d32322032683176314832327a4d32342032683376314832347a4d32382c3220683176314832387a4d3020336831763148307a4d3220336833763148327a4d3620336831763148367a4d3820336831763148387a4d31352033683176314831357a4d31372033683176314831377a4d31392033683176314831397a4d32322033683176314832327a4d32342033683376314832347a4d32382c3320683176314832387a4d3020346831763148307a4d3220346833763148327a4d3620346831763148367a4d3920346832763148397a4d31332034683476314831337a4d31392034683276314831397a4d32322034683176314832327a4d32342034683376314832347a4d32382c3420683176314832387a4d3020356831763148307a4d3620356831763148367a4d3920356831763148397a4d31322035683176314831327a4d31342035683176314831347a4d31362035683176314831367a4d31392035683276314831397a4d32322035683176314832327a4d32382c3520683176314832387a4d3020366837763148307a4d3820366831763148387a4d31302036683176314831307a4d31322036683176314831327a4d31342036683176314831347a4d31362036683176314831367a4d31382036683176314831387a4d32302036683176314832307a4d32322c3620683776314832327a4d3820376831763148387a4d3130203768313076314831307a4d3020386831763148307a4d3220386832763148327a4d3520386833763148357a4d3920386831763148397a4d31332038683676314831337a4d32322038683176314832327a4d32352038683176314832357a4d32372c3820683276314832377a4d3020396833763148307a4d3420396831763148347a4d3820396831763148387a4d31362039683176314831367a4d31382039683776314831387a4d32382c3920683176314832387a4d302031306832763148307a4d342031306831763148347a4d362031306834763148367a4d3131203130683176314831317a4d3134203130683176314831347a4d3136203130683176314831367a4d3138203130683176314831387a4d3231203130683176314832317a4d3233203130683176314832337a4d3236203130683276314832367a4d302031316831763148307a4d332031316833763148337a4d382031316831763148387a4d3133203131683276314831337a4d3138203131683176314831387a4d3232203131683376314832327a4d32382c313120683176314832387a4d342031326831763148347a4d362031326831763148367a4d382031326831763148387a4d3130203132683176314831307a4d3132203132683176314831327a4d3135203132683176314831357a4d3137203132683176314831377a4d3230203132683176314832307a4d3235203132683276314832357a4d302031336831763148307a4d322031336834763148327a4d372031336831763148377a4d392031336835763148397a4d3135203133683276314831357a4d3139203133683176314831397a4d3231203133683276314832317a4d32362c313320683376314832367a4d302031346832763148307a4d352031346833763148357a4d392031346832763148397a4d3134203134683176314831347a4d3139203134683176314831397a4d3232203134683276314832327a4d32362c313420683376314832367a4d302031356831763148307a4d322031356833763148327a4d3130203135683276314831307a4d3133203135683176314831337a4d3138203135683376314831387a4d3232203135683176314832327a4d3237203135683176314832377a4d302031366831763148307a4d332031366831763148337a4d362031366831763148367a4d382031366831763148387a4d3130203136683376314831307a4d3135203136683176314831357a4d3138203136683476314831387a4d3233203136683376314832337a4d3237203136683176314832377a4d352031376831763148357a4d382031376831763148387a4d3131203137683376314831317a4d3135203137683176314831357a4d3138203137683176314831387a4d3231203137683176314832317a4d3233203137683176314832337a4d3235203137683376314832357a4d302031386831763148307a4d332031386834763148337a4d392031386831763148397a4d3131203138683276314831317a4d3135203138683276314831357a4d3230203138683276314832307a4d3233203138683276314832337a4d3236203138683176314832367a4d322031396832763148327a4d392031396831763148397a4d3131203139683176314831317a4d3136203139683276314831367a4d3236203139683176314832367a4d312032306832763148317a4d362032306832763148367a4d392032306835763148397a4d313620323068313176314831367a4d382032316831763148387a4d3132203231683376314831327a4d3136203231683176314831367a4d3230203231683176314832307a4d32342c323120683576314832347a4d302032326837763148307a4d382032326832763148387a4d3132203232683276314831327a4d3136203232683176314831367a4d3139203232683276314831397a4d3232203232683176314832327a4d3234203232683276314832347a4d3237203232683176314832377a4d302032336831763148307a4d362032336831763148367a4d382032336834763148387a4d3138203233683176314831387a4d3230203233683176314832307a4d3234203233683276314832347a4d32372c323320683276314832377a4d302032346831763148307a4d322032346833763148327a4d362032346831763148367a4d392032346833763148397a4d3134203234683276314831347a4d3137203234683276314831377a4d3230203234683576314832307a4d3236203234683176314832367a4d302032356831763148307a4d322032356833763148327a4d362032356831763148367a4d382032356831763148387a4d3131203235683276314831317a4d3134203235683376314831347a4d3139203235683176314831397a4d3231203235683176314832317a4d3234203235683276314832347a4d32382c323520683176314832387a4d302032366831763148307a4d322032366833763148327a4d362032366831763148367a4d382032366831763148387a4d3131203236683276314831317a4d3134203236683176314831347a4d3138203236683276314831387a4d3233203236683176314832337a4d3236203236683176314832367a4d32382c323620683176314832387a4d302032376831763148307a4d362032376831763148367a4d3130203237683176314831307a4d3132203237683276314831327a4d3136203237683176314831367a4d3230203237683276314832307a4d3235203237683176314832357a4d3237203237683176314832377a4d302032386837763148307a4d382032386831763148387a4d3130203238683376314831307a4d3136203238683176314831367a4d3138203238683476314831387a4d3233203238683176314832337a4d3237203238683176314832377a272073686170652d72656e646572696e673d2763726973704564676573273e3c2f706174683e3c2f7376673e3c2f7376673e3c73766720786d6c6e733d27687474703a2f2f7777772e77332e6f72672f323030302f737667272077696474683d2734303027206865696768743d27363030273e3c726563742077696474683d2734303027206865696768743d2736303027207374796c653d2766696c6c3a72676228362c2031302c203331293b7374726f6b652d77696474683a3327202f3e3c7465787420783d2732352720793d2737352720666f6e742d66616d696c793d2756657264616e612720666f6e742d73697a653d273630273ef09f8c993c2f746578743e3c7465787420783d2739302720793d273136352720666f6e742d66616d696c793d2756657264616e612720666f6e742d73697a653d273435272066696c6c3d27726762283235302c203230342c20323129273e4e49474854532026616d703b3c2f746578743e3c7465787420783d2738302720793d273230302720666f6e742d66616d696c793d2756657264616e612720666f6e742d73697a653d273435272066696c6c3d27726762283235302c203230342c20323129273e5745454b454e44533c2f746578743e3c7465787420783d273132302720793d273339302720666f6e742d66616d696c793d2756657264616e612720666f6e742d73697a653d27313430273ef09fa6843c2f746578743e3c7465787420783d273132302720793d273435352720666f6e742d66616d696c793d2756657264616e612720666f6e742d73697a653d273330272066696c6c3d27726762283235302c203230342c20323129273e534541534f4e2030313c2f746578743e3c7265637420783d27302720793d27343735272077696474683d2734303027206865696768743d27323030272066696c6c3d277267622839312c2035312c20393229273e3c2f726563743e3c7465787420783d2738302720793d273535302720666f6e742d66616d696c793d2756657264616e612720666f6e742d73697a653d273530272066696c6c3d277768697465273e",
  "linkReferences": {},
  "deployedLinkReferences": {}
}