{
  "_format": "hh-sol-artifact-1",
  "contractName": "YourContract",
  "sourceName": "contracts/YourContract.sol",
  "abi": [
    {
      "inputs": [],
      "stateMutability": "nonpayable",
      "type": "constructor"
    },
    {
      "anonymous": false,
      "inputs": [
        {
          "indexed": true,
          "internalType": "address",
          "name": "owner",
          "type": "address"
        },
        {
          "indexed": true,
          "internalType": "address",
          "name": "approved",
          "type": "address"
        },
        {
          "indexed": true,
          "internalType": "uint256",
          "name": "tokenId",
          "type": "uint256"
        }
      ],
      "name": "Approval",
      "type": "event"
    },
    {
      "anonymous": false,
      "inputs": [
        {
          "indexed": true,
          "internalType": "address",
          "name": "owner",
          "type": "address"
        },
        {
          "indexed": true,
          "internalType": "address",
          "name": "operator",
          "type": "address"
        },
        {
          "indexed": false,
          "internalType": "bool",
          "name": "approved",
          "type": "bool"
        }
      ],
      "name": "ApprovalForAll",
      "type": "event"
    },
    {
      "anonymous": false,
      "inputs": [
        {
          "indexed": true,
          "internalType": "address",
          "name": "previousOwner",
          "type": "address"
        },
        {
          "indexed": true,
          "internalType": "address",
          "name": "newOwner",
          "type": "address"
        }
      ],
      "name": "OwnershipTransferred",
      "type": "event"
    },
    {
      "anonymous": false,
      "inputs": [
        {
          "indexed": true,
          "internalType": "address",
          "name": "from",
          "type": "address"
        },
        {
          "indexed": true,
          "internalType": "address",
          "name": "to",
          "type": "address"
        },
        {
          "indexed": true,
          "internalType": "uint256",
          "name": "tokenId",
          "type": "uint256"
        }
      ],
      "name": "Transfer",
      "type": "event"
    },
    {
      "inputs": [
        {
          "internalType": "address",
          "name": "to",
          "type": "address"
        },
        {
          "internalType": "uint256",
          "name": "tokenId",
          "type": "uint256"
        }
      ],
      "name": "approve",
      "outputs": [],
      "stateMutability": "nonpayable",
      "type": "function"
    },
    {
      "inputs": [],
      "name": "availableTickets",
      "outputs": [
        {
          "internalType": "uint256",
          "name": "",
          "type": "uint256"
        }
      ],
      "stateMutability": "view",
      "type": "function"
    },
    {
      "inputs": [
        {
          "internalType": "address",
          "name": "owner",
          "type": "address"
        }
      ],
      "name": "balanceOf",
      "outputs": [
        {
          "internalType": "uint256",
          "name": "",
          "type": "uint256"
        }
      ],
      "stateMutability": "view",
      "type": "function"
    },
    {
      "inputs": [
        {
          "internalType": "uint256",
          "name": "tokenId",
          "type": "uint256"
        }
      ],
      "name": "checkIn",
      "outputs": [],
      "stateMutability": "nonpayable",
      "type": "function"
    },
    {
      "inputs": [
        {
          "internalType": "uint256",
          "name": "",
          "type": "uint256"
        }
      ],
      "name": "checkIns",
      "outputs": [
        {
          "internalType": "bool",
          "name": "",
          "type": "bool"
        }
      ],
      "stateMutability": "view",
      "type": "function"
    },
    {
      "inputs": [],
      "name": "closeSale",
      "outputs": [],
      "stateMutability": "nonpayable",
      "type": "function"
    },
    {
      "inputs": [
        {
          "internalType": "uint256",
          "name": "tokenId",
          "type": "uint256"
        }
      ],
      "name": "getApproved",
      "outputs": [
        {
          "internalType": "address",
          "name": "",
          "type": "address"
        }
      ],
      "stateMutability": "view",
      "type": "function"
    },
    {
      "inputs": [],
      "name": "getAvailableTickets",
      "outputs": [
        {
          "internalType": "uint256",
          "name": "",
          "type": "uint256"
        }
      ],
      "stateMutability": "view",
      "type": "function"
    },
    {
      "inputs": [],
      "name": "getCurrentId",
      "outputs": [
        {
          "internalType": "uint256",
          "name": "",
          "type": "uint256"
        }
      ],
      "stateMutability": "view",
      "type": "function"
    },
    {
      "inputs": [],
      "name": "getSaleOpen",
      "outputs": [
        {
          "internalType": "bool",
          "name": "",
          "type": "bool"
        }
      ],
      "stateMutability": "view",
      "type": "function"
    },
    {
      "inputs": [],
      "name": "getTotalTickets",
      "outputs": [
        {
          "internalType": "uint256",
          "name": "",
          "type": "uint256"
        }
      ],
      "stateMutability": "view",
      "type": "function"
    },
    {
      "inputs": [],
      "name": "getUserTickets",
      "outputs": [
        {
          "internalType": "uint256[]",
          "name": "",
          "type": "uint256[]"
        }
      ],
      "stateMutability": "view",
      "type": "function"
    },
    {
      "inputs": [
        {
          "internalType": "address",
          "name": "owner",
          "type": "address"
        },
        {
          "internalType": "address",
          "name": "operator",
          "type": "address"
        }
      ],
      "name": "isApprovedForAll",
      "outputs": [
        {
          "internalType": "bool",
          "name": "",
          "type": "bool"
        }
      ],
      "stateMutability": "view",
      "type": "function"
    },
    {
      "inputs": [],
      "name": "mint",
      "outputs": [],
      "stateMutability": "payable",
      "type": "function"
    },
    {
      "inputs": [],
      "name": "name",
      "outputs": [
        {
          "internalType": "string",
          "name": "",
          "type": "string"
        }
      ],
      "stateMutability": "view",
      "type": "function"
    },
    {
      "inputs": [],
      "name": "openSale",
      "outputs": [],
      "stateMutability": "nonpayable",
      "type": "function"
    },
    {
      "inputs": [],
      "name": "owner",
      "outputs": [
        {
          "internalType": "address",
          "name": "",
          "type": "address"
        }
      ],
      "stateMutability": "view",
      "type": "function"
    },
    {
      "inputs": [
        {
          "internalType": "uint256",
          "name": "tokenId",
          "type": "uint256"
        }
      ],
      "name": "ownerOf",
      "outputs": [
        {
          "internalType": "address",
          "name": "",
          "type": "address"
        }
      ],
      "stateMutability": "view",
      "type": "function"
    },
    {
      "inputs": [],
      "name": "renounceOwnership",
      "outputs": [],
      "stateMutability": "nonpayable",
      "type": "function"
    },
    {
      "inputs": [
        {
          "internalType": "address",
          "name": "from",
          "type": "address"
        },
        {
          "internalType": "address",
          "name": "to",
          "type": "address"
        },
        {
          "internalType": "uint256",
          "name": "tokenId",
          "type": "uint256"
        }
      ],
      "name": "safeTransferFrom",
      "outputs": [],
      "stateMutability": "nonpayable",
      "type": "function"
    },
    {
      "inputs": [
        {
          "internalType": "address",
          "name": "from",
          "type": "address"
        },
        {
          "internalType": "address",
          "name": "to",
          "type": "address"
        },
        {
          "internalType": "uint256",
          "name": "tokenId",
          "type": "uint256"
        },
        {
          "internalType": "bytes",
          "name": "data",
          "type": "bytes"
        }
      ],
      "name": "safeTransferFrom",
      "outputs": [],
      "stateMutability": "nonpayable",
      "type": "function"
    },
    {
      "inputs": [],
      "name": "saleIsActive",
      "outputs": [
        {
          "internalType": "bool",
          "name": "",
          "type": "bool"
        }
      ],
      "stateMutability": "view",
      "type": "function"
    },
    {
      "inputs": [
        {
          "internalType": "address",
          "name": "operator",
          "type": "address"
        },
        {
          "internalType": "bool",
          "name": "approved",
          "type": "bool"
        }
      ],
      "name": "setApprovalForAll",
      "outputs": [],
      "stateMutability": "nonpayable",
      "type": "function"
    },
    {
      "inputs": [
        {
          "internalType": "bytes4",
          "name": "interfaceId",
          "type": "bytes4"
        }
      ],
      "name": "supportsInterface",
      "outputs": [
        {
          "internalType": "bool",
          "name": "",
          "type": "bool"
        }
      ],
      "stateMutability": "view",
      "type": "function"
    },
    {
      "inputs": [],
      "name": "symbol",
      "outputs": [
        {
          "internalType": "string",
          "name": "",
          "type": "string"
        }
      ],
      "stateMutability": "view",
      "type": "function"
    },
    {
      "inputs": [
        {
          "internalType": "address",
          "name": "",
          "type": "address"
        },
        {
          "internalType": "uint256",
          "name": "",
          "type": "uint256"
        }
      ],
      "name": "ticketHolderIds",
      "outputs": [
        {
          "internalType": "uint256",
          "name": "",
          "type": "uint256"
        }
      ],
      "stateMutability": "view",
      "type": "function"
    },
    {
      "inputs": [],
      "name": "ticketPrice",
      "outputs": [
        {
          "internalType": "uint256",
          "name": "",
          "type": "uint256"
        }
      ],
      "stateMutability": "view",
      "type": "function"
    },
    {
      "inputs": [
        {
          "internalType": "uint256",
          "name": "tokenId",
          "type": "uint256"
        }
      ],
      "name": "tokenURI",
      "outputs": [
        {
          "internalType": "string",
          "name": "",
          "type": "string"
        }
      ],
      "stateMutability": "view",
      "type": "function"
    },
    {
      "inputs": [],
      "name": "totalTickets",
      "outputs": [
        {
          "internalType": "uint256",
          "name": "",
          "type": "uint256"
        }
      ],
      "stateMutability": "view",
      "type": "function"
    },
    {
      "inputs": [
        {
          "internalType": "address",
          "name": "from",
          "type": "address"
        },
        {
          "internalType": "address",
          "name": "to",
          "type": "address"
        },
        {
          "internalType": "uint256",
          "name": "tokenId",
          "type": "uint256"
        }
      ],
      "name": "transferFrom",
      "outputs": [],
      "stateMutability": "nonpayable",
      "type": "function"
    },
    {
      "inputs": [
        {
          "internalType": "address",
          "name": "newOwner",
          "type": "address"
        }
      ],
      "name": "transferOwnership",
      "outputs": [],
      "stateMutability": "nonpayable",
      "type": "function"
    }
  ],
  "bytecode": "0x6103806040526102d66080818152906200346c60a03980516200002b91600991602090910190620001ab565b5060405180610c400160405280610c1c815260200162002850610c1c913980516200005f91600a91602090910190620001ab565b506040805160208101918290526000908190526200008091600b91620001ab565b50600c805460ff191660019081179091556101f4600d819055600e55600f55348015620000ac57600080fd5b50604051806040016040528060078152602001665465737420303760c81b8152506040518060400160405280600381526020016254303760e81b81525062000103620000fd6200014e60201b60201c565b62000152565b815162000118906001906020850190620001ab565b5080516200012e906002906020840190620001ab565b505050620001486008620001a260201b620011791760201c565b6200028e565b3390565b600080546001600160a01b038381166001600160a01b0319831681178455604051919092169283917f8be0079c531659141344cd1fd0a4f28419497f9722a3daafe3b4186f6b6457e09190a35050565b80546001019055565b828054620001b99062000251565b90600052602060002090601f016020900481019282620001dd576000855562000228565b82601f10620001f857805160ff191683800117855562000228565b8280016001018555821562000228579182015b82811115620002285782518255916020019190600101906200020b565b50620002369291506200023a565b5090565b5b808211156200023657600081556001016200023b565b600181811c908216806200026657607f821691505b602082108114156200028857634e487b7160e01b600052602260045260246000fd5b50919050565b6125b2806200029e6000396000f3fe6080604052600436106101d85760003560e01c806370a0823111610102578063c87b56dd11610095578063eb8d244411610064578063eb8d244414610539578063ee55efee14610553578063f2fde38b14610568578063f498a9a31461058857600080fd5b8063c87b56dd1461049a578063dd11247e146104ba578063e95a644f146104d0578063e985e9c5146104f057600080fd5b806395d89b41116100d157806395d89b4114610415578063a22cb4651461042a578063b88d4fde1461044a578063c605972a1461046a57600080fd5b806370a08231146103a2578063715018a6146103c25780638a216ab8146103d75780638da5cb5b146103f757600080fd5b80631249c58b1161017a57806342842e0e1161014957806342842e0e146103385780635a8acacc146103585780636352211e1461036d5780636c1438621461038d57600080fd5b80631249c58b146102e5578063167ff46f146102ed57806323b872dd146103025780633cfa7e011461032257600080fd5b8063081812fc116101b6578063081812fc14610253578063093c69ae1461028b578063095ea7b3146102ad5780631209b1f6146102cf57600080fd5b806301ffc9a7146101dd57806306e8337f1461021257806306fdde0314610231575b600080fd5b3480156101e957600080fd5b506101fd6101f836600461206a565b6105a0565b60405190151581526020015b60405180910390f35b34801561021e57600080fd5b50600d545b604051908152602001610209565b34801561023d57600080fd5b5061024661063d565b60405161020991906123d9565b34801561025f57600080fd5b5061027361026e3660046120a2565b6106cf565b6040516001600160a01b039091168152602001610209565b34801561029757600080fd5b506102a06106f6565b6040516102099190612395565b3480156102b957600080fd5b506102cd6102c8366004612041565b610756565b005b3480156102db57600080fd5b50610223600f5481565b6102cd61088d565b3480156102f957600080fd5b506102cd610b23565b34801561030e57600080fd5b506102cd61031d366004611ef7565b610b3a565b34801561032e57600080fd5b50610223600e5481565b34801561034457600080fd5b506102cd610353366004611ef7565b610bc1565b34801561036457600080fd5b50600e54610223565b34801561037957600080fd5b506102736103883660046120a2565b610bdc565b34801561039957600080fd5b50610223610c41565b3480156103ae57600080fd5b506102236103bd366004611eab565b610c51565b3480156103ce57600080fd5b506102cd610ceb565b3480156103e357600080fd5b506102236103f2366004612041565b610cff565b34801561040357600080fd5b506000546001600160a01b0316610273565b34801561042157600080fd5b50610246610d30565b34801561043657600080fd5b506102cd610445366004612007565b610d3f565b34801561045657600080fd5b506102cd610465366004611f32565b610d4e565b34801561047657600080fd5b506101fd6104853660046120a2565b60116020526000908152604090205460ff1681565b3480156104a657600080fd5b506102466104b53660046120a2565b610ddc565b3480156104c657600080fd5b50610223600d5481565b3480156104dc57600080fd5b506102cd6104eb3660046120a2565b610eed565b3480156104fc57600080fd5b506101fd61050b366004611ec5565b6001600160a01b03918216600090815260066020908152604080832093909416825291909152205460ff1690565b34801561054557600080fd5b50600c546101fd9060ff1681565b34801561055f57600080fd5b506102cd6110d5565b34801561057457600080fd5b506102cd610583366004611eab565b6110e9565b34801561059457600080fd5b50600c5460ff166101fd565b60006001600160e01b031982167f80ac58cd00000000000000000000000000000000000000000000000000000000148061060357506001600160e01b031982167f5b5e139f00000000000000000000000000000000000000000000000000000000145b8061063757507f01ffc9a7000000000000000000000000000000000000000000000000000000006001600160e01b03198316145b92915050565b60606001805461064c9061247a565b80601f01602080910402602001604051908101604052809291908181526020018280546106789061247a565b80156106c55780601f1061069a576101008083540402835291602001916106c5565b820191906000526020600020905b8154815290600101906020018083116106a857829003601f168201915b5050505050905090565b60006106da82611182565b506000908152600560205260409020546001600160a01b031690565b336000908152601060209081526040918290208054835181840281018401909452808452606093928301828280156106c557602002820191906000526020600020905b815481526020019060010190808311610739575050505050905090565b600061076182610bdc565b9050806001600160a01b0316836001600160a01b031614156107f05760405162461bcd60e51b815260206004820152602160248201527f4552433732313a20617070726f76616c20746f2063757272656e74206f776e6560448201527f720000000000000000000000000000000000000000000000000000000000000060648201526084015b60405180910390fd5b336001600160a01b038216148061080c575061080c813361050b565b61087e5760405162461bcd60e51b815260206004820152603e60248201527f4552433732313a20617070726f76652063616c6c6572206973206e6f7420746f60448201527f6b656e206f776e6572206e6f7220617070726f76656420666f7220616c6c000060648201526084016107e7565b61088883836111e6565b505050565b6000600e54116108df5760405162461bcd60e51b815260206004820152600860248201527f536f6c64206f757400000000000000000000000000000000000000000000000060448201526064016107e7565b600c5460ff166109315760405162461bcd60e51b815260206004820152601760248201527f5469636b65747320617265206e6f74206f6e2073616c6500000000000000000060448201526064016107e7565b600f543410156109835760405162461bcd60e51b815260206004820152600f60248201527f596f75206e65656420746f20706179000000000000000000000000000000000060448201526064016107e7565b600061098e60085490565b9050600061099b82611261565b9050600a8210156109ec576040805180820190915260028082527f303000000000000000000000000000000000000000000000000000000000000060209092019182526109ea91600b91611df6565b505b6009821180156109fc5750606482105b15610a2b57604080518082019091526001808252600360fc1b6020909201918252610a2991600b91611df6565b505b60006009600b83600a604051602001610a4794939291906121ad565b60405160208183030381529060405290506000610a8a610a6683611393565b604051602001610a7691906121ea565b604051602081830303815290604052611393565b9050600081604051602001610a9f9190612314565b6040516020818303038152906040529050610ac233610abd60085490565b61153e565b610ad4610ace60085490565b82611558565b33600090815260106020526040902060085481546001810183556000928352602090922090910155610b0a600880546001019055565b6001600e54610b199190612437565b600e555050505050565b610b2b611601565b600c805460ff19166001179055565b610b44338261165b565b610bb65760405162461bcd60e51b815260206004820152602e60248201527f4552433732313a2063616c6c6572206973206e6f7420746f6b656e206f776e6560448201527f72206e6f7220617070726f76656400000000000000000000000000000000000060648201526084016107e7565b6108888383836116d9565b61088883838360405180602001604052806000815250610d4e565b6000818152600360205260408120546001600160a01b0316806106375760405162461bcd60e51b815260206004820152601860248201527f4552433732313a20696e76616c696420746f6b656e204944000000000000000060448201526064016107e7565b6000610c4c60085490565b905090565b60006001600160a01b038216610ccf5760405162461bcd60e51b815260206004820152602960248201527f4552433732313a2061646472657373207a65726f206973206e6f74206120766160448201527f6c6964206f776e6572000000000000000000000000000000000000000000000060648201526084016107e7565b506001600160a01b031660009081526004602052604090205490565b610cf3611601565b610cfd60006118b3565b565b60106020528160005260406000208181548110610d1b57600080fd5b90600052602060002001600091509150505481565b60606002805461064c9061247a565b610d4a338383611910565b5050565b610d58338361165b565b610dca5760405162461bcd60e51b815260206004820152602e60248201527f4552433732313a2063616c6c6572206973206e6f7420746f6b656e206f776e6560448201527f72206e6f7220617070726f76656400000000000000000000000000000000000060648201526084016107e7565b610dd6848484846119df565b50505050565b6060610de782611182565b60008281526007602052604081208054610e009061247a565b80601f0160208091040260200160405190810160405280929190818152602001828054610e2c9061247a565b8015610e795780601f10610e4e57610100808354040283529160200191610e79565b820191906000526020600020905b815481529060010190602001808311610e5c57829003601f168201915b505050505090506000610e9760408051602081019091526000815290565b9050805160001415610eaa575092915050565b815115610edc578082604051602001610ec492919061217e565b60405160208183030381529060405292505050919050565b610ee584611a5d565b949350505050565b60008181526011602052604090205460ff1615610f4c5760405162461bcd60e51b815260206004820152601260248201527f416c726561647920636865636b656420696e000000000000000000000000000060448201526064016107e7565b6000818152601160209081526040808320805460ff19166001179055516110a591610a7691017f7b226e616d65223a20224e69676874732026205765656b656e6473205365617381527f6f6e2031222c20226465736372697074696f6e223a2022353030206275696c6460208201527f657273207368697070696e6720666f722036207765656b732e204754464f4c2060408201527f6f72204754464f222c2022696d616765223a2022697066733a2f2f516d62654560608201527f4343415a6e5a646b644632795675323344514873753475633357536e734d533160808201527f676e7750346a384c33222c202261747472696275746573223a205b7b2274726160a08201527f69745f74797065223a2022436865636b20496e222c202276616c7565223a202260c08201527f74727565227d5d7d00000000000000000000000000000000000000000000000060e082015260e80190565b90506000816040516020016110ba9190612314565b60405160208183030381529060405290506108888382611558565b6110dd611601565b600c805460ff19169055565b6110f1611601565b6001600160a01b03811661116d5760405162461bcd60e51b815260206004820152602660248201527f4f776e61626c653a206e6577206f776e657220697320746865207a65726f206160448201527f646472657373000000000000000000000000000000000000000000000000000060648201526084016107e7565b611176816118b3565b50565b80546001019055565b6000818152600360205260409020546001600160a01b03166111765760405162461bcd60e51b815260206004820152601860248201527f4552433732313a20696e76616c696420746f6b656e204944000000000000000060448201526064016107e7565b6000818152600560205260409020805473ffffffffffffffffffffffffffffffffffffffff19166001600160a01b038416908117909155819061122882610bdc565b6001600160a01b03167f8c5be1e5ebec7d5bd14f71427d1e84f3dd0314c0f7b2291e5b200ac8c7c3b92560405160405180910390a45050565b6060816112855750506040805180820190915260018152600360fc1b602082015290565b8160005b81156112af5780611299816124b5565b91506112a89050600a83612404565b9150611289565b60008167ffffffffffffffff8111156112d857634e487b7160e01b600052604160045260246000fd5b6040519080825280601f01601f191660200182016040528015611302576020820181803683370190505b5090505b8415610ee557611317600183612437565b9150611324600a866124d0565b61132f9060306123ec565b60f81b81838151811061135257634e487b7160e01b600052603260045260246000fd5b60200101907effffffffffffffffffffffffffffffffffffffffffffffffffffffffffffff1916908160001a90535061138c600a86612404565b9450611306565b8051606090806113b3575050604080516020810190915260008152919050565b600060036113c28360026123ec565b6113cc9190612404565b6113d7906004612418565b905060006113e68260206123ec565b67ffffffffffffffff81111561140c57634e487b7160e01b600052604160045260246000fd5b6040519080825280601f01601f191660200182016040528015611436576020820181803683370190505b509050600060405180606001604052806040815260200161253d604091399050600181016020830160005b868110156114c2576003818a01810151603f601282901c8116860151600c83901c8216870151600684901c831688015192909316870151600891821b60ff94851601821b92841692909201901b91160160e01b835260049092019101611461565b5060038606600181146114dc576002811461150857611530565b7f3d3d000000000000000000000000000000000000000000000000000000000000600119830152611530565b7f3d000000000000000000000000000000000000000000000000000000000000006000198301525b505050918152949350505050565b610d4a828260405180602001604052806000815250611ad1565b6000828152600360205260409020546001600160a01b03166115e25760405162461bcd60e51b815260206004820152602e60248201527f45524337323155524953746f726167653a2055524920736574206f66206e6f6e60448201527f6578697374656e7420746f6b656e00000000000000000000000000000000000060648201526084016107e7565b6000828152600760209081526040909120825161088892840190611df6565b6000546001600160a01b03163314610cfd5760405162461bcd60e51b815260206004820181905260248201527f4f776e61626c653a2063616c6c6572206973206e6f7420746865206f776e657260448201526064016107e7565b60008061166783610bdc565b9050806001600160a01b0316846001600160a01b031614806116ae57506001600160a01b0380821660009081526006602090815260408083209388168352929052205460ff165b80610ee55750836001600160a01b03166116c7846106cf565b6001600160a01b031614949350505050565b826001600160a01b03166116ec82610bdc565b6001600160a01b0316146117685760405162461bcd60e51b815260206004820152602560248201527f4552433732313a207472616e736665722066726f6d20696e636f72726563742060448201527f6f776e657200000000000000000000000000000000000000000000000000000060648201526084016107e7565b6001600160a01b0382166117e35760405162461bcd60e51b8152602060048201526024808201527f4552433732313a207472616e7366657220746f20746865207a65726f2061646460448201527f726573730000000000000000000000000000000000000000000000000000000060648201526084016107e7565b6117ee6000826111e6565b6001600160a01b0383166000908152600460205260408120805460019290611817908490612437565b90915550506001600160a01b03821660009081526004602052604081208054600192906118459084906123ec565b9091555050600081815260036020526040808220805473ffffffffffffffffffffffffffffffffffffffff19166001600160a01b0386811691821790925591518493918716917fddf252ad1be2c89b69c2b068fc378daa952ba7f163c4a11628f55a4df523b3ef91a4505050565b600080546001600160a01b0383811673ffffffffffffffffffffffffffffffffffffffff19831681178455604051919092169283917f8be0079c531659141344cd1fd0a4f28419497f9722a3daafe3b4186f6b6457e09190a35050565b816001600160a01b0316836001600160a01b031614156119725760405162461bcd60e51b815260206004820152601960248201527f4552433732313a20617070726f766520746f2063616c6c65720000000000000060448201526064016107e7565b6001600160a01b03838116600081815260066020908152604080832094871680845294825291829020805460ff191686151590811790915591519182527f17307eab39ab6107e8899845ad3d59bd9653f200f220920489ca2b5937696c31910160405180910390a3505050565b6119ea8484846116d9565b6119f684848484611b4f565b610dd65760405162461bcd60e51b815260206004820152603260248201527f4552433732313a207472616e7366657220746f206e6f6e20455243373231526560448201527131b2b4bb32b91034b6b83632b6b2b73a32b960711b60648201526084016107e7565b6060611a6882611182565b6000611a7f60408051602081019091526000815290565b90506000815111611a9f5760405180602001604052806000815250611aca565b80611aa984611261565b604051602001611aba92919061217e565b6040516020818303038152906040525b9392505050565b611adb8383611ca7565b611ae86000848484611b4f565b6108885760405162461bcd60e51b815260206004820152603260248201527f4552433732313a207472616e7366657220746f206e6f6e20455243373231526560448201527131b2b4bb32b91034b6b83632b6b2b73a32b960711b60648201526084016107e7565b60006001600160a01b0384163b15611c9c57604051630a85bd0160e11b81526001600160a01b0385169063150b7a0290611b93903390899088908890600401612359565b602060405180830381600087803b158015611bad57600080fd5b505af1925050508015611bdd575060408051601f3d908101601f19168201909252611bda91810190612086565b60015b611c82573d808015611c0b576040519150601f19603f3d011682016040523d82523d6000602084013e611c10565b606091505b508051611c7a5760405162461bcd60e51b815260206004820152603260248201527f4552433732313a207472616e7366657220746f206e6f6e20455243373231526560448201527131b2b4bb32b91034b6b83632b6b2b73a32b960711b60648201526084016107e7565b805181602001fd5b6001600160e01b031916630a85bd0160e11b149050610ee5565b506001949350505050565b6001600160a01b038216611cfd5760405162461bcd60e51b815260206004820181905260248201527f4552433732313a206d696e7420746f20746865207a65726f206164647265737360448201526064016107e7565b6000818152600360205260409020546001600160a01b031615611d625760405162461bcd60e51b815260206004820152601c60248201527f4552433732313a20746f6b656e20616c7265616479206d696e7465640000000060448201526064016107e7565b6001600160a01b0382166000908152600460205260408120805460019290611d8b9084906123ec565b9091555050600081815260036020526040808220805473ffffffffffffffffffffffffffffffffffffffff19166001600160a01b03861690811790915590518392907fddf252ad1be2c89b69c2b068fc378daa952ba7f163c4a11628f55a4df523b3ef908290a45050565b828054611e029061247a565b90600052602060002090601f016020900481019282611e245760008555611e6a565b82601f10611e3d57805160ff1916838001178555611e6a565b82800160010185558215611e6a579182015b82811115611e6a578251825591602001919060010190611e4f565b50611e76929150611e7a565b5090565b5b80821115611e765760008155600101611e7b565b80356001600160a01b0381168114611ea657600080fd5b919050565b600060208284031215611ebc578081fd5b611aca82611e8f565b60008060408385031215611ed7578081fd5b611ee083611e8f565b9150611eee60208401611e8f565b90509250929050565b600080600060608486031215611f0b578081fd5b611f1484611e8f565b9250611f2260208501611e8f565b9150604084013590509250925092565b60008060008060808587031215611f47578081fd5b611f5085611e8f565b9350611f5e60208601611e8f565b925060408501359150606085013567ffffffffffffffff80821115611f81578283fd5b818701915087601f830112611f94578283fd5b813581811115611fa657611fa6612510565b604051601f8201601f19908116603f01168101908382118183101715611fce57611fce612510565b816040528281528a6020848701011115611fe6578586fd5b82602086016020830137918201602001949094529598949750929550505050565b60008060408385031215612019578182fd5b61202283611e8f565b915060208301358015158114612036578182fd5b809150509250929050565b60008060408385031215612053578182fd5b61205c83611e8f565b946020939093013593505050565b60006020828403121561207b578081fd5b8135611aca81612526565b600060208284031215612097578081fd5b8151611aca81612526565b6000602082840312156120b3578081fd5b5035919050565b600081518084526120d281602086016020860161244e565b601f01601f19169290920160200192915050565b8054600090600181811c908083168061210057607f831692505b602080841082141561212057634e487b7160e01b86526022600452602486fd5b818015612134576001811461214557612172565b60ff19861689528489019650612172565b60008881526020902060005b8681101561216a5781548b820152908501908301612151565b505084890196505b50505050505092915050565b6000835161219081846020880161244e565b8351908301906121a481836020880161244e565b01949350505050565b60006121c26121bc83886120e6565b866120e6565b84516121d281836020890161244e565b6121de818301866120e6565b98975050505050505050565b7f7b226e616d65223a20224e69676874732026205765656b656e6473205365617381527f6f6e2031222c20226465736372697074696f6e223a2022353030206275696c6460208201527f657273207368697070696e6720666f722036207765656b732e204754464f4c2060408201527f6f72204754464f222c2022696d616765223a2022646174613a696d6167652f7360608201527f76672b786d6c3b6261736536342c0000000000000000000000000000000000006080820152600082516122ba81608e85016020870161244e565b7f222c202261747472696275746573223a205b7b2274726169745f74797065223a608e9390910192830152507f2022436865636b20496e222c202276616c7565223a202266616c7365227d5d7d60ae82015260ce01919050565b7f646174613a6170706c69636174696f6e2f6a736f6e3b6261736536342c00000081526000825161234c81601d85016020870161244e565b91909101601d0192915050565b60006001600160a01b0380871683528086166020840152508360408301526080606083015261238b60808301846120ba565b9695505050505050565b6020808252825182820181905260009190848201906040850190845b818110156123cd578351835292840192918401916001016123b1565b50909695505050505050565b602081526000611aca60208301846120ba565b600082198211156123ff576123ff6124e4565b500190565b600082612413576124136124fa565b500490565b6000816000190483118215151615612432576124326124e4565b500290565b600082821015612449576124496124e4565b500390565b60005b83811015612469578181015183820152602001612451565b83811115610dd65750506000910152565b600181811c9082168061248e57607f821691505b602082108114156124af57634e487b7160e01b600052602260045260246000fd5b50919050565b60006000198214156124c9576124c96124e4565b5060010190565b6000826124df576124df6124fa565b500690565b634e487b7160e01b600052601160045260246000fd5b634e487b7160e01b600052601260045260246000fd5b634e487b7160e01b600052604160045260246000fd5b6001600160e01b03198116811461117657600080fdfe4142434445464748494a4b4c4d4e4f505152535455565758595a6162636465666768696a6b6c6d6e6f707172737475767778797a303132333435363738392b2fa26469706673582212207421e4f2b09447c0dfcea1bb6196d7eeafa73923a56a5126888be50d0bcdc7b564736f6c634300080400333c2f746578743e3c73766720783d273238302720793d273439302720786d6c6e733d27687474703a2f2f7777772e77332e6f72672f323030302f73766727206865696768743d27313030272077696474683d27313030272076696577426f783d2730203020323920323927207265646e657241733d27737667273e3c706174682066696c6c3d27233036304131462720643d274d302c302068323976323948307a272073686170652d72656e646572696e673d2763726973704564676573273e3c2f706174683e3c706174682066696c6c3d2777686974652720643d274d3020306837763148307a4d3820306835763148387a4d31342030683176314831347a4d31362030683576314831367a4d32322c3020683776314832327a4d3020316831763148307a4d3620316831763148367a4d3820316831763148387a4d31312031683476314831317a4d31382031683176314831387a4d32322031683176314832327a4d32382c3120683176314832387a4d3020326831763148307a4d3220326833763148327a4d3620326831763148367a4d3920326836763148397a4d32302032683176314832307a4d32322032683176314832327a4d32342032683376314832347a4d32382c3220683176314832387a4d3020336831763148307a4d3220336833763148327a4d3620336831763148367a4d3820336831763148387a4d31352033683176314831357a4d31372033683176314831377a4d31392033683176314831397a4d32322033683176314832327a4d32342033683376314832347a4d32382c3320683176314832387a4d3020346831763148307a4d3220346833763148327a4d3620346831763148367a4d3920346832763148397a4d31332034683476314831337a4d31392034683276314831397a4d32322034683176314832327a4d32342034683376314832347a4d32382c3420683176314832387a4d3020356831763148307a4d3620356831763148367a4d3920356831763148397a4d31322035683176314831327a4d31342035683176314831347a4d31362035683176314831367a4d31392035683276314831397a4d32322035683176314832327a4d32382c3520683176314832387a4d3020366837763148307a4d3820366831763148387a4d31302036683176314831307a4d31322036683176314831327a4d31342036683176314831347a4d31362036683176314831367a4d31382036683176314831387a4d32302036683176314832307a4d32322c3620683776314832327a4d3820376831763148387a4d3130203768313076314831307a4d3020386831763148307a4d3220386832763148327a4d3520386833763148357a4d3920386831763148397a4d31332038683676314831337a4d32322038683176314832327a4d32352038683176314832357a4d32372c3820683276314832377a4d3020396833763148307a4d3420396831763148347a4d3820396831763148387a4d31362039683176314831367a4d31382039683776314831387a4d32382c3920683176314832387a4d302031306832763148307a4d342031306831763148347a4d362031306834763148367a4d3131203130683176314831317a4d3134203130683176314831347a4d3136203130683176314831367a4d3138203130683176314831387a4d3231203130683176314832317a4d3233203130683176314832337a4d3236203130683276314832367a4d302031316831763148307a4d332031316833763148337a4d382031316831763148387a4d3133203131683276314831337a4d3138203131683176314831387a4d3232203131683376314832327a4d32382c313120683176314832387a4d342031326831763148347a4d362031326831763148367a4d382031326831763148387a4d3130203132683176314831307a4d3132203132683176314831327a4d3135203132683176314831357a4d3137203132683176314831377a4d3230203132683176314832307a4d3235203132683276314832357a4d302031336831763148307a4d322031336834763148327a4d372031336831763148377a4d392031336835763148397a4d3135203133683276314831357a4d3139203133683176314831397a4d3231203133683276314832317a4d32362c313320683376314832367a4d302031346832763148307a4d352031346833763148357a4d392031346832763148397a4d3134203134683176314831347a4d3139203134683176314831397a4d3232203134683276314832327a4d32362c313420683376314832367a4d302031356831763148307a4d322031356833763148327a4d3130203135683276314831307a4d3133203135683176314831337a4d3138203135683376314831387a4d3232203135683176314832327a4d3237203135683176314832377a4d302031366831763148307a4d332031366831763148337a4d362031366831763148367a4d382031366831763148387a4d3130203136683376314831307a4d3135203136683176314831357a4d3138203136683476314831387a4d3233203136683376314832337a4d3237203136683176314832377a4d352031376831763148357a4d382031376831763148387a4d3131203137683376314831317a4d3135203137683176314831357a4d3138203137683176314831387a4d3231203137683176314832317a4d3233203137683176314832337a4d3235203137683376314832357a4d302031386831763148307a4d332031386834763148337a4d392031386831763148397a4d3131203138683276314831317a4d3135203138683276314831357a4d3230203138683276314832307a4d3233203138683276314832337a4d3236203138683176314832367a4d322031396832763148327a4d392031396831763148397a4d3131203139683176314831317a4d3136203139683276314831367a4d3236203139683176314832367a4d312032306832763148317a4d362032306832763148367a4d392032306835763148397a4d313620323068313176314831367a4d382032316831763148387a4d3132203231683376314831327a4d3136203231683176314831367a4d3230203231683176314832307a4d32342c323120683576314832347a4d302032326837763148307a4d382032326832763148387a4d3132203232683276314831327a4d3136203232683176314831367a4d3139203232683276314831397a4d3232203232683176314832327a4d3234203232683276314832347a4d3237203232683176314832377a4d302032336831763148307a4d362032336831763148367a4d382032336834763148387a4d3138203233683176314831387a4d3230203233683176314832307a4d3234203233683276314832347a4d32372c323320683276314832377a4d302032346831763148307a4d322032346833763148327a4d362032346831763148367a4d392032346833763148397a4d3134203234683276314831347a4d3137203234683276314831377a4d3230203234683576314832307a4d3236203234683176314832367a4d302032356831763148307a4d322032356833763148327a4d362032356831763148367a4d382032356831763148387a4d3131203235683276314831317a4d3134203235683376314831347a4d3139203235683176314831397a4d3231203235683176314832317a4d3234203235683276314832347a4d32382c323520683176314832387a4d302032366831763148307a4d322032366833763148327a4d362032366831763148367a4d382032366831763148387a4d3131203236683276314831317a4d3134203236683176314831347a4d3138203236683276314831387a4d3233203236683176314832337a4d3236203236683176314832367a4d32382c323620683176314832387a4d302032376831763148307a4d362032376831763148367a4d3130203237683176314831307a4d3132203237683276314831327a4d3136203237683176314831367a4d3230203237683276314832307a4d3235203237683176314832357a4d3237203237683176314832377a4d302032386837763148307a4d382032386831763148387a4d3130203238683376314831307a4d3136203238683176314831367a4d3138203238683476314831387a4d3233203238683176314832337a4d3237203238683176314832377a272073686170652d72656e646572696e673d2763726973704564676573273e3c2f706174683e3c2f7376673e3c2f7376673e3c73766720786d6c6e733d27687474703a2f2f7777772e77332e6f72672f323030302f737667272077696474683d2734303027206865696768743d27363030273e3c726563742077696474683d2734303027206865696768743d2736303027207374796c653d2766696c6c3a72676228362c2031302c203331293b7374726f6b652d77696474683a3327202f3e3c7465787420783d2732352720793d2737352720666f6e742d66616d696c793d2756657264616e612720666f6e742d73697a653d273630273ef09f8c993c2f746578743e3c7465787420783d2739302720793d273136352720666f6e742d66616d696c793d2756657264616e612720666f6e742d73697a653d273435272066696c6c3d27726762283235302c203230342c20323129273e4e49474854532026616d703b3c2f746578743e3c7465787420783d2738302720793d273230302720666f6e742d66616d696c793d2756657264616e612720666f6e742d73697a653d273435272066696c6c3d27726762283235302c203230342c20323129273e5745454b454e44533c2f746578743e3c7465787420783d273132302720793d273339302720666f6e742d66616d696c793d2756657264616e612720666f6e742d73697a653d27313430273ef09fa6843c2f746578743e3c7465787420783d273132302720793d273435352720666f6e742d66616d696c793d2756657264616e612720666f6e742d73697a653d273330272066696c6c3d27726762283235302c203230342c20323129273e534541534f4e2030313c2f746578743e3c7265637420783d27302720793d27343735272077696474683d2734303027206865696768743d27323030272066696c6c3d277267622839312c2035312c20393229273e3c2f726563743e3c7465787420783d2738302720793d273535302720666f6e742d66616d696c793d2756657264616e612720666f6e742d73697a653d273530272066696c6c3d277768697465273e",
  "linkReferences": {},
  "deployedLinkReferences": {}
}