{
  "_format": "hh-sol-artifact-1",
  "contractName": "NWS01NFT",
  "sourceName": "contracts/NWS01NFT.sol",
  "abi": [
    {
      "inputs": [],
      "stateMutability": "nonpayable",
      "type": "constructor"
    },
    {
      "anonymous": false,
      "inputs": [
        {
          "indexed": true,
          "internalType": "address",
          "name": "owner",
          "type": "address"
        },
        {
          "indexed": true,
          "internalType": "address",
          "name": "approved",
          "type": "address"
        },
        {
          "indexed": true,
          "internalType": "uint256",
          "name": "tokenId",
          "type": "uint256"
        }
      ],
      "name": "Approval",
      "type": "event"
    },
    {
      "anonymous": false,
      "inputs": [
        {
          "indexed": true,
          "internalType": "address",
          "name": "owner",
          "type": "address"
        },
        {
          "indexed": true,
          "internalType": "address",
          "name": "operator",
          "type": "address"
        },
        {
          "indexed": false,
          "internalType": "bool",
          "name": "approved",
          "type": "bool"
        }
      ],
      "name": "ApprovalForAll",
      "type": "event"
    },
    {
      "anonymous": false,
      "inputs": [
        {
          "indexed": true,
          "internalType": "address",
          "name": "previousOwner",
          "type": "address"
        },
        {
          "indexed": true,
          "internalType": "address",
          "name": "newOwner",
          "type": "address"
        }
      ],
      "name": "OwnershipTransferred",
      "type": "event"
    },
    {
      "anonymous": false,
      "inputs": [
        {
          "indexed": true,
          "internalType": "address",
          "name": "from",
          "type": "address"
        },
        {
          "indexed": true,
          "internalType": "address",
          "name": "to",
          "type": "address"
        },
        {
          "indexed": true,
          "internalType": "uint256",
          "name": "tokenId",
          "type": "uint256"
        }
      ],
      "name": "Transfer",
      "type": "event"
    },
    {
      "inputs": [
        {
          "internalType": "address",
          "name": "to",
          "type": "address"
        },
        {
          "internalType": "uint256",
          "name": "tokenId",
          "type": "uint256"
        }
      ],
      "name": "approve",
      "outputs": [],
      "stateMutability": "nonpayable",
      "type": "function"
    },
    {
      "inputs": [],
      "name": "availableTicketCount",
      "outputs": [
        {
          "internalType": "uint256",
          "name": "",
          "type": "uint256"
        }
      ],
      "stateMutability": "view",
      "type": "function"
    },
    {
      "inputs": [],
      "name": "availableTickets",
      "outputs": [
        {
          "internalType": "uint256",
          "name": "",
          "type": "uint256"
        }
      ],
      "stateMutability": "view",
      "type": "function"
    },
    {
      "inputs": [
        {
          "internalType": "address",
          "name": "owner",
          "type": "address"
        }
      ],
      "name": "balanceOf",
      "outputs": [
        {
          "internalType": "uint256",
          "name": "",
          "type": "uint256"
        }
      ],
      "stateMutability": "view",
      "type": "function"
    },
    {
      "inputs": [
        {
          "internalType": "address",
          "name": "addy",
          "type": "address"
        }
      ],
      "name": "checkIn",
      "outputs": [],
      "stateMutability": "nonpayable",
      "type": "function"
    },
    {
      "inputs": [
        {
          "internalType": "address",
          "name": "",
          "type": "address"
        }
      ],
      "name": "checkIns",
      "outputs": [
        {
          "internalType": "bool",
          "name": "",
          "type": "bool"
        }
      ],
      "stateMutability": "view",
      "type": "function"
    },
    {
      "inputs": [],
      "name": "closeSale",
      "outputs": [],
      "stateMutability": "nonpayable",
      "type": "function"
    },
    {
      "inputs": [
        {
          "internalType": "address",
          "name": "addy",
          "type": "address"
        }
      ],
      "name": "confirmOwnership",
      "outputs": [
        {
          "internalType": "bool",
          "name": "",
          "type": "bool"
        }
      ],
      "stateMutability": "view",
      "type": "function"
    },
    {
      "inputs": [
        {
          "internalType": "uint256",
          "name": "tokenId",
          "type": "uint256"
        }
      ],
      "name": "getApproved",
      "outputs": [
        {
          "internalType": "address",
          "name": "",
          "type": "address"
        }
      ],
      "stateMutability": "view",
      "type": "function"
    },
    {
      "inputs": [],
      "name": "getCurrentId",
      "outputs": [
        {
          "internalType": "uint256",
          "name": "",
          "type": "uint256"
        }
      ],
      "stateMutability": "view",
      "type": "function"
    },
    {
      "inputs": [
        {
          "internalType": "address",
          "name": "owner",
          "type": "address"
        },
        {
          "internalType": "address",
          "name": "operator",
          "type": "address"
        }
      ],
      "name": "isApprovedForAll",
      "outputs": [
        {
          "internalType": "bool",
          "name": "",
          "type": "bool"
        }
      ],
      "stateMutability": "view",
      "type": "function"
    },
    {
      "inputs": [],
      "name": "isSaleOpen",
      "outputs": [
        {
          "internalType": "bool",
          "name": "",
          "type": "bool"
        }
      ],
      "stateMutability": "view",
      "type": "function"
    },
    {
      "inputs": [],
      "name": "mint",
      "outputs": [],
      "stateMutability": "nonpayable",
      "type": "function"
    },
    {
      "inputs": [],
      "name": "mintPrice",
      "outputs": [
        {
          "internalType": "uint256",
          "name": "",
          "type": "uint256"
        }
      ],
      "stateMutability": "view",
      "type": "function"
    },
    {
      "inputs": [],
      "name": "name",
      "outputs": [
        {
          "internalType": "string",
          "name": "",
          "type": "string"
        }
      ],
      "stateMutability": "view",
      "type": "function"
    },
    {
      "inputs": [],
      "name": "openSale",
      "outputs": [],
      "stateMutability": "nonpayable",
      "type": "function"
    },
    {
      "inputs": [],
      "name": "owner",
      "outputs": [
        {
          "internalType": "address",
          "name": "",
          "type": "address"
        }
      ],
      "stateMutability": "view",
      "type": "function"
    },
    {
      "inputs": [
        {
          "internalType": "uint256",
          "name": "tokenId",
          "type": "uint256"
        }
      ],
      "name": "ownerOf",
      "outputs": [
        {
          "internalType": "address",
          "name": "",
          "type": "address"
        }
      ],
      "stateMutability": "view",
      "type": "function"
    },
    {
      "inputs": [],
      "name": "renounceOwnership",
      "outputs": [],
      "stateMutability": "nonpayable",
      "type": "function"
    },
    {
      "inputs": [
        {
          "internalType": "address",
          "name": "from",
          "type": "address"
        },
        {
          "internalType": "address",
          "name": "to",
          "type": "address"
        },
        {
          "internalType": "uint256",
          "name": "tokenId",
          "type": "uint256"
        }
      ],
      "name": "safeTransferFrom",
      "outputs": [],
      "stateMutability": "nonpayable",
      "type": "function"
    },
    {
      "inputs": [
        {
          "internalType": "address",
          "name": "from",
          "type": "address"
        },
        {
          "internalType": "address",
          "name": "to",
          "type": "address"
        },
        {
          "internalType": "uint256",
          "name": "tokenId",
          "type": "uint256"
        },
        {
          "internalType": "bytes",
          "name": "_data",
          "type": "bytes"
        }
      ],
      "name": "safeTransferFrom",
      "outputs": [],
      "stateMutability": "nonpayable",
      "type": "function"
    },
    {
      "inputs": [],
      "name": "saleIsActive",
      "outputs": [
        {
          "internalType": "bool",
          "name": "",
          "type": "bool"
        }
      ],
      "stateMutability": "view",
      "type": "function"
    },
    {
      "inputs": [
        {
          "internalType": "address",
          "name": "operator",
          "type": "address"
        },
        {
          "internalType": "bool",
          "name": "approved",
          "type": "bool"
        }
      ],
      "name": "setApprovalForAll",
      "outputs": [],
      "stateMutability": "nonpayable",
      "type": "function"
    },
    {
      "inputs": [
        {
          "internalType": "bytes4",
          "name": "interfaceId",
          "type": "bytes4"
        }
      ],
      "name": "supportsInterface",
      "outputs": [
        {
          "internalType": "bool",
          "name": "",
          "type": "bool"
        }
      ],
      "stateMutability": "view",
      "type": "function"
    },
    {
      "inputs": [],
      "name": "symbol",
      "outputs": [
        {
          "internalType": "string",
          "name": "",
          "type": "string"
        }
      ],
      "stateMutability": "view",
      "type": "function"
    },
    {
      "inputs": [
        {
          "internalType": "address",
          "name": "",
          "type": "address"
        },
        {
          "internalType": "uint256",
          "name": "",
          "type": "uint256"
        }
      ],
      "name": "ticketHolderIds",
      "outputs": [
        {
          "internalType": "uint256",
          "name": "",
          "type": "uint256"
        }
      ],
      "stateMutability": "view",
      "type": "function"
    },
    {
      "inputs": [
        {
          "internalType": "uint256",
          "name": "tokenId",
          "type": "uint256"
        }
      ],
      "name": "tokenURI",
      "outputs": [
        {
          "internalType": "string",
          "name": "",
          "type": "string"
        }
      ],
      "stateMutability": "view",
      "type": "function"
    },
    {
      "inputs": [],
      "name": "totalTicketCount",
      "outputs": [
        {
          "internalType": "uint256",
          "name": "",
          "type": "uint256"
        }
      ],
      "stateMutability": "view",
      "type": "function"
    },
    {
      "inputs": [],
      "name": "totalTickets",
      "outputs": [
        {
          "internalType": "uint256",
          "name": "",
          "type": "uint256"
        }
      ],
      "stateMutability": "view",
      "type": "function"
    },
    {
      "inputs": [
        {
          "internalType": "address",
          "name": "from",
          "type": "address"
        },
        {
          "internalType": "address",
          "name": "to",
          "type": "address"
        },
        {
          "internalType": "uint256",
          "name": "tokenId",
          "type": "uint256"
        }
      ],
      "name": "transferFrom",
      "outputs": [],
      "stateMutability": "nonpayable",
      "type": "function"
    },
    {
      "inputs": [
        {
          "internalType": "address",
          "name": "newOwner",
          "type": "address"
        }
      ],
      "name": "transferOwnership",
      "outputs": [],
      "stateMutability": "nonpayable",
      "type": "function"
    }
  ],
  "bytecode": "0x6103806040526102d66080818152906200341860a03980516200002b91600991602090910190620001a9565b5060405180610c400160405280610c1c8152602001620027fc610c1c913980516200005f91600a91602090910190620001a9565b506040805160208101918290526000908190526200008091600b91620001a9565b50600c805460ff191660011790556101f4600d819055600e5564174876e800600f55348015620000af57600080fd5b5060408051808201825260078152665465737420303160c81b60208083019182528351808501909452600384526254303160e81b908401528151919291620000fa91600091620001a9565b50805162000110906001906020840190620001a9565b5050506200012d620001276200014a60201b60201c565b6200014e565b620001446008620001a060201b620010cc1760201c565b6200028c565b3390565b600780546001600160a01b038381166001600160a01b0319831681179093556040519116919082907f8be0079c531659141344cd1fd0a4f28419497f9722a3daafe3b4186f6b6457e090600090a35050565b80546001019055565b828054620001b7906200024f565b90600052602060002090601f016020900481019282620001db576000855562000226565b82601f10620001f657805160ff191683800117855562000226565b8280016001018555821562000226579182015b828111156200022657825182559160200191906001019062000209565b506200023492915062000238565b5090565b5b8082111562000234576000815560010162000239565b600181811c908216806200026457607f821691505b602082108114156200028657634e487b7160e01b600052602260045260246000fd5b50919050565b612560806200029c6000396000f3fe608060405234801561001057600080fd5b50600436106101e55760003560e01c80636c1438621161010f578063b88d4fde116100a2578063e985e9c511610071578063e985e9c5146103be578063eb8d2444146103fa578063ee55efee14610407578063f2fde38b1461040f57600080fd5b8063b88d4fde1461037c578063c87b56dd1461038f578063d9a59e33146103a2578063dd11247e146103b557600080fd5b80638a216ab8116100de5780638a216ab81461033d5780638da5cb5b1461035057806395d89b4114610361578063a22cb4651461036957600080fd5b80636c1438621461030757806370a082311461030f578063715018a61461032257806380f2abe31461032a57600080fd5b80631a081330116101875780633d721ecd116101565780633d721ecd146102d057806342842e0e146102d85780636352211e146102eb5780636817c76c146102fe57600080fd5b80631a081330146102895780631acc9b621461029157806323b872dd146102b45780633cfa7e01146102c757600080fd5b8063095ea7b3116101c3578063095ea7b3146102525780631249c58b1461026757806314558fab1461026f578063167ff46f1461028157600080fd5b806301ffc9a7146101ea57806306fdde0314610212578063081812fc14610227575b600080fd5b6101fd6101f8366004611f5f565b610422565b60405190151581526020015b60405180910390f35b61021a610474565b604051610209919061223b565b61023a610235366004611f97565b610506565b6040516001600160a01b039091168152602001610209565b610265610260366004611f36565b610593565b005b6102656106a9565b600d545b604051908152602001610209565b610265610947565b6101fd610980565b6101fd61029f366004611da0565b60116020526000908152604090205460ff1681565b6102656102c2366004611dec565b6109c1565b610273600e5481565b600e54610273565b6102656102e6366004611dec565b6109f2565b61023a6102f9366004611f97565b610a0d565b610273600f5481565b610273610a84565b61027361031d366004611da0565b610a94565b610265610b1b565b6101fd610338366004611da0565b610b51565b61027361034b366004611f36565b610bc8565b6007546001600160a01b031661023a565b61021a610bf9565b610265610377366004611efc565b610c08565b61026561038a366004611e27565b610c17565b61021a61039d366004611f97565b610c4f565b6102656103b0366004611da0565b610dc6565b610273600d5481565b6101fd6103cc366004611dba565b6001600160a01b03918216600090815260056020908152604080832093909416825291909152205460ff1690565b600c546101fd9060ff1681565b610265610ffb565b61026561041d366004611da0565b611031565b60006001600160e01b031982166380ac58cd60e01b148061045357506001600160e01b03198216635b5e139f60e01b145b8061046e57506301ffc9a760e01b6001600160e01b03198316145b92915050565b60606000805461048390612428565b80601f01602080910402602001604051908101604052809291908181526020018280546104af90612428565b80156104fc5780601f106104d1576101008083540402835291602001916104fc565b820191906000526020600020905b8154815290600101906020018083116104df57829003601f168201915b5050505050905090565b6000610511826110d5565b6105775760405162461bcd60e51b815260206004820152602c60248201527f4552433732313a20617070726f76656420717565727920666f72206e6f6e657860448201526b34b9ba32b73a103a37b5b2b760a11b60648201526084015b60405180910390fd5b506000908152600460205260409020546001600160a01b031690565b600061059e82610a0d565b9050806001600160a01b0316836001600160a01b0316141561060c5760405162461bcd60e51b815260206004820152602160248201527f4552433732313a20617070726f76616c20746f2063757272656e74206f776e656044820152603960f91b606482015260840161056e565b336001600160a01b0382161480610628575061062881336103cc565b61069a5760405162461bcd60e51b815260206004820152603860248201527f4552433732313a20617070726f76652063616c6c6572206973206e6f74206f7760448201527f6e6572206e6f7220617070726f76656420666f7220616c6c0000000000000000606482015260840161056e565b6106a483836110f2565b505050565b6000600e54116106e65760405162461bcd60e51b815260206004820152600860248201526714dbdb19081bdd5d60c21b604482015260640161056e565b600c5460ff166107385760405162461bcd60e51b815260206004820152601760248201527f5469636b65747320617265206e6f74206f6e2073616c65000000000000000000604482015260640161056e565b600061074360085490565b9050600061075082611160565b9050600a8210156107865760408051808201909152600280825261030360f41b602090920191825261078491600b91611ceb565b505b6009821180156107965750606482105b156107c557604080518082019091526001808252600360fc1b60209092019182526107c391600b91611ceb565b505b60006009600b83600a6040516020016107e194939291906120a2565b604051602081830303815290604052905060006108246108008361127a565b60405160200161081091906120df565b60405160208183030381529060405261127a565b905060008160405160200161083991906121b9565b604051602081830303815290604052905061085c3361085760085490565b6113ee565b33600090815260106020908152604082206008805482546001810184559285529290932001555461088d9082611408565b6108b5604051806040016040528060078152602001661a5b881b5a5b9d60ca1b815250611493565b6108f46040518060400160405280601581526020017402fba34b1b5b2ba24b21731bab93932b73a14149d1605d1b8152506108ef60085490565b6114d6565b6109206040518060400160405280600a81526020016903a37b5b2b72aa9249d160b51b8152508261151b565b61092e600880546001019055565b6001600e5461093d91906123e5565b600e555050505050565b6007546001600160a01b031633146109715760405162461bcd60e51b815260040161056e90612314565b600c805460ff19166001179055565b60408051808201909152600e81526d039b0b632a4b9a0b1ba34bb329d160951b6020820152600c546000916109b79160ff16611560565b50600c5460ff1690565b6109cb33826115a5565b6109e75760405162461bcd60e51b815260040161056e90612349565b6106a483838361168b565b6106a483838360405180602001604052806000815250610c17565b6000818152600260205260408120546001600160a01b03168061046e5760405162461bcd60e51b815260206004820152602960248201527f4552433732313a206f776e657220717565727920666f72206e6f6e657869737460448201526832b73a103a37b5b2b760b91b606482015260840161056e565b6000610a8f60085490565b905090565b60006001600160a01b038216610aff5760405162461bcd60e51b815260206004820152602a60248201527f4552433732313a2062616c616e636520717565727920666f7220746865207a65604482015269726f206164647265737360b01b606482015260840161056e565b506001600160a01b031660009081526003602052604090205490565b6007546001600160a01b03163314610b455760405162461bcd60e51b815260040161056e90612314565b610b4f600061182b565b565b604080518082018252601e81527f7469636b6574486f6c6465724964735b616464795d2e6c656e6774683a2000006020808301919091526001600160a01b0384166000908152601090915291822054610baa91906114d6565b506001600160a01b0316600090815260106020526040902054151590565b60106020528160005260406000208181548110610be457600080fd5b90600052602060002001600091509150505481565b60606001805461048390612428565b610c1333838361187d565b5050565b610c2133836115a5565b610c3d5760405162461bcd60e51b815260040161056e90612349565b610c498484848461194c565b50505050565b6060610c5a826110d5565b610cc05760405162461bcd60e51b815260206004820152603160248201527f45524337323155524953746f726167653a2055524920717565727920666f72206044820152703737b732bc34b9ba32b73a103a37b5b2b760791b606482015260840161056e565b60008281526006602052604081208054610cd990612428565b80601f0160208091040260200160405190810160405280929190818152602001828054610d0590612428565b8015610d525780601f10610d2757610100808354040283529160200191610d52565b820191906000526020600020905b815481529060010190602001808311610d3557829003601f168201915b505050505090506000610d7060408051602081019091526000815290565b9050805160001415610d83575092915050565b815115610db5578082604051602001610d9d929190612073565b60405160208183030381529060405292505050919050565b610dbe8461197f565b949350505050565b6001600160a01b0381166000908152601160209081526040808320805460ff191660011790556010909152812080548290610e1157634e487b7160e01b600052603260045260246000fd5b906000526020600020015490506000610f4f604051602001610810907f7b226e616d65223a20224e69676874732026205765656b656e6473205365617381527f6f6e2031222c20226465736372697074696f6e223a2022353030206275696c6460208201527f657273207368697070696e6720666f722036207765656b732e204754464f4c2060408201527f6f72204754464f222c2022696d616765223a2022697066733a2f2f516d56335860608201527f6a664457415137506a4a6457766d48694c35654755744c6673794e4c5153593560808201527f326a36426d624c424c222c202261747472696275746573223a205b7b2022747260a08201527f6169745f74797065223a2022436865636b656420496e222c202276616c75652260c08201526b3a20227472756522207d5d7d60a01b60e082015260ec0190565b9050600081604051602001610f6491906121b9565b60408051601f19818403018152828201909152600a82526934b71031b432b1b5a4b760b11b60208301529150610f9990611493565b610fc56040518060400160405280600a81526020016903a34b1b5b2ba24b21d160b51b815250846114d6565b610ff16040518060400160405280600a81526020016903a37b5b2b72aa9249d160b51b8152508261151b565b610c498382611408565b6007546001600160a01b031633146110255760405162461bcd60e51b815260040161056e90612314565b600c805460ff19169055565b6007546001600160a01b0316331461105b5760405162461bcd60e51b815260040161056e90612314565b6001600160a01b0381166110c05760405162461bcd60e51b815260206004820152602660248201527f4f776e61626c653a206e6577206f776e657220697320746865207a65726f206160448201526564647265737360d01b606482015260840161056e565b6110c98161182b565b50565b80546001019055565b6000908152600260205260409020546001600160a01b0316151590565b600081815260046020526040902080546001600160a01b0319166001600160a01b038416908117909155819061112782610a0d565b6001600160a01b03167f8c5be1e5ebec7d5bd14f71427d1e84f3dd0314c0f7b2291e5b200ac8c7c3b92560405160405180910390a45050565b6060816111845750506040805180820190915260018152600360fc1b602082015290565b8160005b81156111ae578061119881612463565b91506111a79050600a836123b2565b9150611188565b60008167ffffffffffffffff8111156111d757634e487b7160e01b600052604160045260246000fd5b6040519080825280601f01601f191660200182016040528015611201576020820181803683370190505b5090505b8415610dbe576112166001836123e5565b9150611223600a8661247e565b61122e90603061239a565b60f81b81838151811061125157634e487b7160e01b600052603260045260246000fd5b60200101906001600160f81b031916908160001a905350611273600a866123b2565b9450611205565b80516060908061129a575050604080516020810190915260008152919050565b600060036112a983600261239a565b6112b391906123b2565b6112be9060046123c6565b905060006112cd82602061239a565b67ffffffffffffffff8111156112f357634e487b7160e01b600052604160045260246000fd5b6040519080825280601f01601f19166020018201604052801561131d576020820181803683370190505b50905060006040518060600160405280604081526020016124eb604091399050600181016020830160005b868110156113a9576003818a01810151603f601282901c8116860151600c83901c8216870151600684901c831688015192909316870151600891821b60ff94851601821b92841692909201901b91160160e01b835260049092019101611348565b5060038606600181146113c357600281146113d4576113e0565b613d3d60f01b6001198301526113e0565b603d60f81b6000198301525b505050918152949350505050565b610c13828260405180602001604052806000815250611a57565b611411826110d5565b6114745760405162461bcd60e51b815260206004820152602e60248201527f45524337323155524953746f726167653a2055524920736574206f66206e6f6e60448201526d32bc34b9ba32b73a103a37b5b2b760911b606482015260840161056e565b600082815260066020908152604090912082516106a492840190611ceb565b6110c9816040516024016114a7919061223b565b60408051601f198184030181529190526020810180516001600160e01b031663104c13eb60e21b179052611a8a565b610c1382826040516024016114ec9291906122a0565b60408051601f198184030181529190526020810180516001600160e01b03166309710a9d60e41b179052611a8a565b610c138282604051602401611531929190612272565b60408051601f198184030181529190526020810180516001600160e01b0316634b5c427760e01b179052611a8a565b610c13828260405160240161157692919061224e565b60408051601f198184030181529190526020810180516001600160e01b031663c3b5563560e01b179052611a8a565b60006115b0826110d5565b6116115760405162461bcd60e51b815260206004820152602c60248201527f4552433732313a206f70657261746f7220717565727920666f72206e6f6e657860448201526b34b9ba32b73a103a37b5b2b760a11b606482015260840161056e565b600061161c83610a0d565b9050806001600160a01b0316846001600160a01b031614806116575750836001600160a01b031661164c84610506565b6001600160a01b0316145b80610dbe57506001600160a01b0380821660009081526005602090815260408083209388168352929052205460ff16610dbe565b826001600160a01b031661169e82610a0d565b6001600160a01b0316146117065760405162461bcd60e51b815260206004820152602960248201527f4552433732313a207472616e73666572206f6620746f6b656e2074686174206960448201526839903737ba1037bbb760b91b606482015260840161056e565b6001600160a01b0382166117685760405162461bcd60e51b8152602060048201526024808201527f4552433732313a207472616e7366657220746f20746865207a65726f206164646044820152637265737360e01b606482015260840161056e565b6117736000826110f2565b6001600160a01b038316600090815260036020526040812080546001929061179c9084906123e5565b90915550506001600160a01b03821660009081526003602052604081208054600192906117ca90849061239a565b909155505060008181526002602052604080822080546001600160a01b0319166001600160a01b0386811691821790925591518493918716917fddf252ad1be2c89b69c2b068fc378daa952ba7f163c4a11628f55a4df523b3ef91a4505050565b600780546001600160a01b038381166001600160a01b0319831681179093556040519116919082907f8be0079c531659141344cd1fd0a4f28419497f9722a3daafe3b4186f6b6457e090600090a35050565b816001600160a01b0316836001600160a01b031614156118df5760405162461bcd60e51b815260206004820152601960248201527f4552433732313a20617070726f766520746f2063616c6c657200000000000000604482015260640161056e565b6001600160a01b03838116600081815260056020908152604080832094871680845294825291829020805460ff191686151590811790915591519182527f17307eab39ab6107e8899845ad3d59bd9653f200f220920489ca2b5937696c31910160405180910390a3505050565b61195784848461168b565b61196384848484611aab565b610c495760405162461bcd60e51b815260040161056e906122c2565b606061198a826110d5565b6119ee5760405162461bcd60e51b815260206004820152602f60248201527f4552433732314d657461646174613a2055524920717565727920666f72206e6f60448201526e3732bc34b9ba32b73a103a37b5b2b760891b606482015260840161056e565b6000611a0560408051602081019091526000815290565b90506000815111611a255760405180602001604052806000815250611a50565b80611a2f84611160565b604051602001611a40929190612073565b6040516020818303038152906040525b9392505050565b611a618383611bb8565b611a6e6000848484611aab565b6106a45760405162461bcd60e51b815260040161056e906122c2565b80516a636f6e736f6c652e6c6f67602083016000808483855afa5050505050565b60006001600160a01b0384163b15611bad57604051630a85bd0160e11b81526001600160a01b0385169063150b7a0290611aef9033908990889088906004016121fe565b602060405180830381600087803b158015611b0957600080fd5b505af1925050508015611b39575060408051601f3d908101601f19168201909252611b3691810190611f7b565b60015b611b93573d808015611b67576040519150601f19603f3d011682016040523d82523d6000602084013e611b6c565b606091505b508051611b8b5760405162461bcd60e51b815260040161056e906122c2565b805181602001fd5b6001600160e01b031916630a85bd0160e11b149050610dbe565b506001949350505050565b6001600160a01b038216611c0e5760405162461bcd60e51b815260206004820181905260248201527f4552433732313a206d696e7420746f20746865207a65726f2061646472657373604482015260640161056e565b611c17816110d5565b15611c645760405162461bcd60e51b815260206004820152601c60248201527f4552433732313a20746f6b656e20616c7265616479206d696e74656400000000604482015260640161056e565b6001600160a01b0382166000908152600360205260408120805460019290611c8d90849061239a565b909155505060008181526002602052604080822080546001600160a01b0319166001600160a01b03861690811790915590518392907fddf252ad1be2c89b69c2b068fc378daa952ba7f163c4a11628f55a4df523b3ef908290a45050565b828054611cf790612428565b90600052602060002090601f016020900481019282611d195760008555611d5f565b82601f10611d3257805160ff1916838001178555611d5f565b82800160010185558215611d5f579182015b82811115611d5f578251825591602001919060010190611d44565b50611d6b929150611d6f565b5090565b5b80821115611d6b5760008155600101611d70565b80356001600160a01b0381168114611d9b57600080fd5b919050565b600060208284031215611db1578081fd5b611a5082611d84565b60008060408385031215611dcc578081fd5b611dd583611d84565b9150611de360208401611d84565b90509250929050565b600080600060608486031215611e00578081fd5b611e0984611d84565b9250611e1760208501611d84565b9150604084013590509250925092565b60008060008060808587031215611e3c578081fd5b611e4585611d84565b9350611e5360208601611d84565b925060408501359150606085013567ffffffffffffffff80821115611e76578283fd5b818701915087601f830112611e89578283fd5b813581811115611e9b57611e9b6124be565b604051601f8201601f19908116603f01168101908382118183101715611ec357611ec36124be565b816040528281528a6020848701011115611edb578586fd5b82602086016020830137918201602001949094529598949750929550505050565b60008060408385031215611f0e578182fd5b611f1783611d84565b915060208301358015158114611f2b578182fd5b809150509250929050565b60008060408385031215611f48578182fd5b611f5183611d84565b946020939093013593505050565b600060208284031215611f70578081fd5b8135611a50816124d4565b600060208284031215611f8c578081fd5b8151611a50816124d4565b600060208284031215611fa8578081fd5b5035919050565b60008151808452611fc78160208601602086016123fc565b601f01601f19169290920160200192915050565b8054600090600181811c9080831680611ff557607f831692505b602080841082141561201557634e487b7160e01b86526022600452602486fd5b818015612029576001811461203a57612067565b60ff19861689528489019650612067565b60008881526020902060005b8681101561205f5781548b820152908501908301612046565b505084890196505b50505050505092915050565b600083516120858184602088016123fc565b8351908301906120998183602088016123fc565b01949350505050565b60006120b76120b18388611fdb565b86611fdb565b84516120c78183602089016123fc565b6120d381830186611fdb565b98975050505050505050565b7f7b226e616d65223a20224e69676874732026205765656b656e6473205365617381527f6f6e2031222c20226465736372697074696f6e223a2022353030206275696c6460208201527f657273207368697070696e6720666f722036207765656b732e204754464f4c2060408201527f6f72204754464f222c2022696d616765223a2022646174613a696d6167652f7360608201526d1d99cade1b5b0ed8985cd94d8d0b60921b6080820152600082516121a081608e8501602087016123fc565b61227d60f01b608e939091019283015250609001919050565b7f646174613a6170706c69636174696f6e2f6a736f6e3b6261736536342c0000008152600082516121f181601d8501602087016123fc565b91909101601d0192915050565b6001600160a01b038581168252841660208201526040810183905260806060820181905260009061223190830184611faf565b9695505050505050565b602081526000611a506020830184611faf565b6040815260006122616040830185611faf565b905082151560208301529392505050565b6040815260006122856040830185611faf565b82810360208401526122978185611faf565b95945050505050565b6040815260006122b36040830185611faf565b90508260208301529392505050565b60208082526032908201527f4552433732313a207472616e7366657220746f206e6f6e20455243373231526560408201527131b2b4bb32b91034b6b83632b6b2b73a32b960711b606082015260800190565b6020808252818101527f4f776e61626c653a2063616c6c6572206973206e6f7420746865206f776e6572604082015260600190565b60208082526031908201527f4552433732313a207472616e736665722063616c6c6572206973206e6f74206f6040820152701ddb995c881b9bdc88185c1c1c9bdd9959607a1b606082015260800190565b600082198211156123ad576123ad612492565b500190565b6000826123c1576123c16124a8565b500490565b60008160001904831182151516156123e0576123e0612492565b500290565b6000828210156123f7576123f7612492565b500390565b60005b838110156124175781810151838201526020016123ff565b83811115610c495750506000910152565b600181811c9082168061243c57607f821691505b6020821081141561245d57634e487b7160e01b600052602260045260246000fd5b50919050565b600060001982141561247757612477612492565b5060010190565b60008261248d5761248d6124a8565b500690565b634e487b7160e01b600052601160045260246000fd5b634e487b7160e01b600052601260045260246000fd5b634e487b7160e01b600052604160045260246000fd5b6001600160e01b0319811681146110c957600080fdfe4142434445464748494a4b4c4d4e4f505152535455565758595a6162636465666768696a6b6c6d6e6f707172737475767778797a303132333435363738392b2fa2646970667358221220212f7de328fb33b443bb8333f4379a31868dab5df0f821438a39ed81dfea47da64736f6c634300080400333c2f746578743e3c73766720783d273238302720793d273439302720786d6c6e733d27687474703a2f2f7777772e77332e6f72672f323030302f73766727206865696768743d27313030272077696474683d27313030272076696577426f783d2730203020323920323927207265646e657241733d27737667273e3c706174682066696c6c3d27233036304131462720643d274d302c302068323976323948307a272073686170652d72656e646572696e673d2763726973704564676573273e3c2f706174683e3c706174682066696c6c3d2777686974652720643d274d3020306837763148307a4d3820306835763148387a4d31342030683176314831347a4d31362030683576314831367a4d32322c3020683776314832327a4d3020316831763148307a4d3620316831763148367a4d3820316831763148387a4d31312031683476314831317a4d31382031683176314831387a4d32322031683176314832327a4d32382c3120683176314832387a4d3020326831763148307a4d3220326833763148327a4d3620326831763148367a4d3920326836763148397a4d32302032683176314832307a4d32322032683176314832327a4d32342032683376314832347a4d32382c3220683176314832387a4d3020336831763148307a4d3220336833763148327a4d3620336831763148367a4d3820336831763148387a4d31352033683176314831357a4d31372033683176314831377a4d31392033683176314831397a4d32322033683176314832327a4d32342033683376314832347a4d32382c3320683176314832387a4d3020346831763148307a4d3220346833763148327a4d3620346831763148367a4d3920346832763148397a4d31332034683476314831337a4d31392034683276314831397a4d32322034683176314832327a4d32342034683376314832347a4d32382c3420683176314832387a4d3020356831763148307a4d3620356831763148367a4d3920356831763148397a4d31322035683176314831327a4d31342035683176314831347a4d31362035683176314831367a4d31392035683276314831397a4d32322035683176314832327a4d32382c3520683176314832387a4d3020366837763148307a4d3820366831763148387a4d31302036683176314831307a4d31322036683176314831327a4d31342036683176314831347a4d31362036683176314831367a4d31382036683176314831387a4d32302036683176314832307a4d32322c3620683776314832327a4d3820376831763148387a4d3130203768313076314831307a4d3020386831763148307a4d3220386832763148327a4d3520386833763148357a4d3920386831763148397a4d31332038683676314831337a4d32322038683176314832327a4d32352038683176314832357a4d32372c3820683276314832377a4d3020396833763148307a4d3420396831763148347a4d3820396831763148387a4d31362039683176314831367a4d31382039683776314831387a4d32382c3920683176314832387a4d302031306832763148307a4d342031306831763148347a4d362031306834763148367a4d3131203130683176314831317a4d3134203130683176314831347a4d3136203130683176314831367a4d3138203130683176314831387a4d3231203130683176314832317a4d3233203130683176314832337a4d3236203130683276314832367a4d302031316831763148307a4d332031316833763148337a4d382031316831763148387a4d3133203131683276314831337a4d3138203131683176314831387a4d3232203131683376314832327a4d32382c313120683176314832387a4d342031326831763148347a4d362031326831763148367a4d382031326831763148387a4d3130203132683176314831307a4d3132203132683176314831327a4d3135203132683176314831357a4d3137203132683176314831377a4d3230203132683176314832307a4d3235203132683276314832357a4d302031336831763148307a4d322031336834763148327a4d372031336831763148377a4d392031336835763148397a4d3135203133683276314831357a4d3139203133683176314831397a4d3231203133683276314832317a4d32362c313320683376314832367a4d302031346832763148307a4d352031346833763148357a4d392031346832763148397a4d3134203134683176314831347a4d3139203134683176314831397a4d3232203134683276314832327a4d32362c313420683376314832367a4d302031356831763148307a4d322031356833763148327a4d3130203135683276314831307a4d3133203135683176314831337a4d3138203135683376314831387a4d3232203135683176314832327a4d3237203135683176314832377a4d302031366831763148307a4d332031366831763148337a4d362031366831763148367a4d382031366831763148387a4d3130203136683376314831307a4d3135203136683176314831357a4d3138203136683476314831387a4d3233203136683376314832337a4d3237203136683176314832377a4d352031376831763148357a4d382031376831763148387a4d3131203137683376314831317a4d3135203137683176314831357a4d3138203137683176314831387a4d3231203137683176314832317a4d3233203137683176314832337a4d3235203137683376314832357a4d302031386831763148307a4d332031386834763148337a4d392031386831763148397a4d3131203138683276314831317a4d3135203138683276314831357a4d3230203138683276314832307a4d3233203138683276314832337a4d3236203138683176314832367a4d322031396832763148327a4d392031396831763148397a4d3131203139683176314831317a4d3136203139683276314831367a4d3236203139683176314832367a4d312032306832763148317a4d362032306832763148367a4d392032306835763148397a4d313620323068313176314831367a4d382032316831763148387a4d3132203231683376314831327a4d3136203231683176314831367a4d3230203231683176314832307a4d32342c323120683576314832347a4d302032326837763148307a4d382032326832763148387a4d3132203232683276314831327a4d3136203232683176314831367a4d3139203232683276314831397a4d3232203232683176314832327a4d3234203232683276314832347a4d3237203232683176314832377a4d302032336831763148307a4d362032336831763148367a4d382032336834763148387a4d3138203233683176314831387a4d3230203233683176314832307a4d3234203233683276314832347a4d32372c323320683276314832377a4d302032346831763148307a4d322032346833763148327a4d362032346831763148367a4d392032346833763148397a4d3134203234683276314831347a4d3137203234683276314831377a4d3230203234683576314832307a4d3236203234683176314832367a4d302032356831763148307a4d322032356833763148327a4d362032356831763148367a4d382032356831763148387a4d3131203235683276314831317a4d3134203235683376314831347a4d3139203235683176314831397a4d3231203235683176314832317a4d3234203235683276314832347a4d32382c323520683176314832387a4d302032366831763148307a4d322032366833763148327a4d362032366831763148367a4d382032366831763148387a4d3131203236683276314831317a4d3134203236683176314831347a4d3138203236683276314831387a4d3233203236683176314832337a4d3236203236683176314832367a4d32382c323620683176314832387a4d302032376831763148307a4d362032376831763148367a4d3130203237683176314831307a4d3132203237683276314831327a4d3136203237683176314831367a4d3230203237683276314832307a4d3235203237683176314832357a4d3237203237683176314832377a4d302032386837763148307a4d382032386831763148387a4d3130203238683376314831307a4d3136203238683176314831367a4d3138203238683476314831387a4d3233203238683176314832337a4d3237203238683176314832377a272073686170652d72656e646572696e673d2763726973704564676573273e3c2f706174683e3c2f7376673e3c2f7376673e3c73766720786d6c6e733d27687474703a2f2f7777772e77332e6f72672f323030302f737667272077696474683d2734303027206865696768743d27363030273e3c726563742077696474683d2734303027206865696768743d2736303027207374796c653d2766696c6c3a72676228362c2031302c203331293b7374726f6b652d77696474683a3327202f3e3c7465787420783d2732352720793d2737352720666f6e742d66616d696c793d2756657264616e612720666f6e742d73697a653d273630273ef09f8c993c2f746578743e3c7465787420783d2739302720793d273136352720666f6e742d66616d696c793d2756657264616e612720666f6e742d73697a653d273435272066696c6c3d27726762283235302c203230342c20323129273e4e49474854532026616d703b3c2f746578743e3c7465787420783d2738302720793d273230302720666f6e742d66616d696c793d2756657264616e612720666f6e742d73697a653d273435272066696c6c3d27726762283235302c203230342c20323129273e5745454b454e44533c2f746578743e3c7465787420783d273132302720793d273339302720666f6e742d66616d696c793d2756657264616e612720666f6e742d73697a653d27313430273ef09fa6843c2f746578743e3c7465787420783d273132302720793d273435352720666f6e742d66616d696c793d2756657264616e612720666f6e742d73697a653d273330272066696c6c3d27726762283235302c203230342c20323129273e534541534f4e2030313c2f746578743e3c7265637420783d27302720793d27343735272077696474683d2734303027206865696768743d27323030272066696c6c3d277267622839312c2035312c20393229273e3c2f726563743e3c7465787420783d2738302720793d273535302720666f6e742d66616d696c793d2756657264616e612720666f6e742d73697a653d273530272066696c6c3d277768697465273e",
  "linkReferences": {},
  "deployedLinkReferences": {}
}