{
  "_format": "hh-sol-artifact-1",
  "contractName": "NWS01NFT",
  "sourceName": "contracts/NWS01NFT.sol",
  "abi": [
    {
      "inputs": [],
      "stateMutability": "nonpayable",
      "type": "constructor"
    },
    {
      "anonymous": false,
      "inputs": [
        {
          "indexed": true,
          "internalType": "address",
          "name": "owner",
          "type": "address"
        },
        {
          "indexed": true,
          "internalType": "address",
          "name": "approved",
          "type": "address"
        },
        {
          "indexed": true,
          "internalType": "uint256",
          "name": "tokenId",
          "type": "uint256"
        }
      ],
      "name": "Approval",
      "type": "event"
    },
    {
      "anonymous": false,
      "inputs": [
        {
          "indexed": true,
          "internalType": "address",
          "name": "owner",
          "type": "address"
        },
        {
          "indexed": true,
          "internalType": "address",
          "name": "operator",
          "type": "address"
        },
        {
          "indexed": false,
          "internalType": "bool",
          "name": "approved",
          "type": "bool"
        }
      ],
      "name": "ApprovalForAll",
      "type": "event"
    },
    {
      "anonymous": false,
      "inputs": [
        {
          "indexed": true,
          "internalType": "address",
          "name": "previousOwner",
          "type": "address"
        },
        {
          "indexed": true,
          "internalType": "address",
          "name": "newOwner",
          "type": "address"
        }
      ],
      "name": "OwnershipTransferred",
      "type": "event"
    },
    {
      "anonymous": false,
      "inputs": [
        {
          "indexed": true,
          "internalType": "address",
          "name": "from",
          "type": "address"
        },
        {
          "indexed": true,
          "internalType": "address",
          "name": "to",
          "type": "address"
        },
        {
          "indexed": true,
          "internalType": "uint256",
          "name": "tokenId",
          "type": "uint256"
        }
      ],
      "name": "Transfer",
      "type": "event"
    },
    {
      "inputs": [
        {
          "internalType": "address",
          "name": "to",
          "type": "address"
        },
        {
          "internalType": "uint256",
          "name": "tokenId",
          "type": "uint256"
        }
      ],
      "name": "approve",
      "outputs": [],
      "stateMutability": "nonpayable",
      "type": "function"
    },
    {
      "inputs": [],
      "name": "availableTicketCount",
      "outputs": [
        {
          "internalType": "uint256",
          "name": "",
          "type": "uint256"
        }
      ],
      "stateMutability": "view",
      "type": "function"
    },
    {
      "inputs": [],
      "name": "availableTickets",
      "outputs": [
        {
          "internalType": "uint256",
          "name": "",
          "type": "uint256"
        }
      ],
      "stateMutability": "view",
      "type": "function"
    },
    {
      "inputs": [
        {
          "internalType": "address",
          "name": "owner",
          "type": "address"
        }
      ],
      "name": "balanceOf",
      "outputs": [
        {
          "internalType": "uint256",
          "name": "",
          "type": "uint256"
        }
      ],
      "stateMutability": "view",
      "type": "function"
    },
    {
      "inputs": [
        {
          "internalType": "address",
          "name": "addy",
          "type": "address"
        }
      ],
      "name": "checkIn",
      "outputs": [],
      "stateMutability": "nonpayable",
      "type": "function"
    },
    {
      "inputs": [
        {
          "internalType": "address",
          "name": "",
          "type": "address"
        }
      ],
      "name": "checkIns",
      "outputs": [
        {
          "internalType": "bool",
          "name": "",
          "type": "bool"
        }
      ],
      "stateMutability": "view",
      "type": "function"
    },
    {
      "inputs": [],
      "name": "closeSale",
      "outputs": [],
      "stateMutability": "nonpayable",
      "type": "function"
    },
    {
      "inputs": [
        {
          "internalType": "address",
          "name": "addy",
          "type": "address"
        }
      ],
      "name": "confirmOwnership",
      "outputs": [
        {
          "internalType": "bool",
          "name": "",
          "type": "bool"
        }
      ],
      "stateMutability": "view",
      "type": "function"
    },
    {
      "inputs": [
        {
          "internalType": "uint256",
          "name": "tokenId",
          "type": "uint256"
        }
      ],
      "name": "getApproved",
      "outputs": [
        {
          "internalType": "address",
          "name": "",
          "type": "address"
        }
      ],
      "stateMutability": "view",
      "type": "function"
    },
    {
      "inputs": [],
      "name": "getCurrentId",
      "outputs": [
        {
          "internalType": "uint256",
          "name": "",
          "type": "uint256"
        }
      ],
      "stateMutability": "view",
      "type": "function"
    },
    {
      "inputs": [
        {
          "internalType": "address",
          "name": "owner",
          "type": "address"
        },
        {
          "internalType": "address",
          "name": "operator",
          "type": "address"
        }
      ],
      "name": "isApprovedForAll",
      "outputs": [
        {
          "internalType": "bool",
          "name": "",
          "type": "bool"
        }
      ],
      "stateMutability": "view",
      "type": "function"
    },
    {
      "inputs": [],
      "name": "isSaleOpen",
      "outputs": [
        {
          "internalType": "bool",
          "name": "",
          "type": "bool"
        }
      ],
      "stateMutability": "view",
      "type": "function"
    },
    {
      "inputs": [],
      "name": "mint",
      "outputs": [],
      "stateMutability": "nonpayable",
      "type": "function"
    },
    {
      "inputs": [],
      "name": "mintPrice",
      "outputs": [
        {
          "internalType": "uint256",
          "name": "",
          "type": "uint256"
        }
      ],
      "stateMutability": "view",
      "type": "function"
    },
    {
      "inputs": [],
      "name": "name",
      "outputs": [
        {
          "internalType": "string",
          "name": "",
          "type": "string"
        }
      ],
      "stateMutability": "view",
      "type": "function"
    },
    {
      "inputs": [],
      "name": "openSale",
      "outputs": [],
      "stateMutability": "nonpayable",
      "type": "function"
    },
    {
      "inputs": [],
      "name": "owner",
      "outputs": [
        {
          "internalType": "address",
          "name": "",
          "type": "address"
        }
      ],
      "stateMutability": "view",
      "type": "function"
    },
    {
      "inputs": [
        {
          "internalType": "uint256",
          "name": "tokenId",
          "type": "uint256"
        }
      ],
      "name": "ownerOf",
      "outputs": [
        {
          "internalType": "address",
          "name": "",
          "type": "address"
        }
      ],
      "stateMutability": "view",
      "type": "function"
    },
    {
      "inputs": [],
      "name": "renounceOwnership",
      "outputs": [],
      "stateMutability": "nonpayable",
      "type": "function"
    },
    {
      "inputs": [
        {
          "internalType": "address",
          "name": "from",
          "type": "address"
        },
        {
          "internalType": "address",
          "name": "to",
          "type": "address"
        },
        {
          "internalType": "uint256",
          "name": "tokenId",
          "type": "uint256"
        }
      ],
      "name": "safeTransferFrom",
      "outputs": [],
      "stateMutability": "nonpayable",
      "type": "function"
    },
    {
      "inputs": [
        {
          "internalType": "address",
          "name": "from",
          "type": "address"
        },
        {
          "internalType": "address",
          "name": "to",
          "type": "address"
        },
        {
          "internalType": "uint256",
          "name": "tokenId",
          "type": "uint256"
        },
        {
          "internalType": "bytes",
          "name": "data",
          "type": "bytes"
        }
      ],
      "name": "safeTransferFrom",
      "outputs": [],
      "stateMutability": "nonpayable",
      "type": "function"
    },
    {
      "inputs": [],
      "name": "saleIsActive",
      "outputs": [
        {
          "internalType": "bool",
          "name": "",
          "type": "bool"
        }
      ],
      "stateMutability": "view",
      "type": "function"
    },
    {
      "inputs": [
        {
          "internalType": "address",
          "name": "operator",
          "type": "address"
        },
        {
          "internalType": "bool",
          "name": "approved",
          "type": "bool"
        }
      ],
      "name": "setApprovalForAll",
      "outputs": [],
      "stateMutability": "nonpayable",
      "type": "function"
    },
    {
      "inputs": [
        {
          "internalType": "bytes4",
          "name": "interfaceId",
          "type": "bytes4"
        }
      ],
      "name": "supportsInterface",
      "outputs": [
        {
          "internalType": "bool",
          "name": "",
          "type": "bool"
        }
      ],
      "stateMutability": "view",
      "type": "function"
    },
    {
      "inputs": [],
      "name": "symbol",
      "outputs": [
        {
          "internalType": "string",
          "name": "",
          "type": "string"
        }
      ],
      "stateMutability": "view",
      "type": "function"
    },
    {
      "inputs": [
        {
          "internalType": "address",
          "name": "",
          "type": "address"
        },
        {
          "internalType": "uint256",
          "name": "",
          "type": "uint256"
        }
      ],
      "name": "ticketHolderIds",
      "outputs": [
        {
          "internalType": "uint256",
          "name": "",
          "type": "uint256"
        }
      ],
      "stateMutability": "view",
      "type": "function"
    },
    {
      "inputs": [
        {
          "internalType": "uint256",
          "name": "tokenId",
          "type": "uint256"
        }
      ],
      "name": "tokenURI",
      "outputs": [
        {
          "internalType": "string",
          "name": "",
          "type": "string"
        }
      ],
      "stateMutability": "view",
      "type": "function"
    },
    {
      "inputs": [],
      "name": "totalTicketCount",
      "outputs": [
        {
          "internalType": "uint256",
          "name": "",
          "type": "uint256"
        }
      ],
      "stateMutability": "view",
      "type": "function"
    },
    {
      "inputs": [],
      "name": "totalTickets",
      "outputs": [
        {
          "internalType": "uint256",
          "name": "",
          "type": "uint256"
        }
      ],
      "stateMutability": "view",
      "type": "function"
    },
    {
      "inputs": [
        {
          "internalType": "address",
          "name": "from",
          "type": "address"
        },
        {
          "internalType": "address",
          "name": "to",
          "type": "address"
        },
        {
          "internalType": "uint256",
          "name": "tokenId",
          "type": "uint256"
        }
      ],
      "name": "transferFrom",
      "outputs": [],
      "stateMutability": "nonpayable",
      "type": "function"
    },
    {
      "inputs": [
        {
          "internalType": "address",
          "name": "newOwner",
          "type": "address"
        }
      ],
      "name": "transferOwnership",
      "outputs": [],
      "stateMutability": "nonpayable",
      "type": "function"
    }
  ],
  "bytecode": "0x60806040526040518061030001604052806102d68152602001620049b36102d69139600990805190602001906200003892919062000295565b5060405180610c400160405280610c1c815260200162003d97610c1c9139600a90805190602001906200006d92919062000295565b5060405180602001604052806000815250600b90805190602001906200009592919062000295565b506001600c60006101000a81548160ff0219169083151502179055506101f4600d556101f4600e5564174876e800600f55348015620000d357600080fd5b506040518060400160405280601781526020017f4e696768747320616e64205765656b656e6473205330310000000000000000008152506040518060400160405280600581526020017f4e5753303100000000000000000000000000000000000000000000000000000081525081600090805190602001906200015892919062000295565b5080600190805190602001906200017192919062000295565b5050506200019462000188620001b160201b60201c565b620001b960201b60201c565b620001ab60086200027f60201b620013121760201c565b620003aa565b600033905090565b6000600760009054906101000a900473ffffffffffffffffffffffffffffffffffffffff16905081600760006101000a81548173ffffffffffffffffffffffffffffffffffffffff021916908373ffffffffffffffffffffffffffffffffffffffff1602179055508173ffffffffffffffffffffffffffffffffffffffff168173ffffffffffffffffffffffffffffffffffffffff167f8be0079c531659141344cd1fd0a4f28419497f9722a3daafe3b4186f6b6457e060405160405180910390a35050565b6001816000016000828254019250508190555050565b828054620002a39062000345565b90600052602060002090601f016020900481019282620002c7576000855562000313565b82601f10620002e257805160ff191683800117855562000313565b8280016001018555821562000313579182015b8281111562000312578251825591602001919060010190620002f5565b5b50905062000322919062000326565b5090565b5b808211156200034157600081600090555060010162000327565b5090565b600060028204905060018216806200035e57607f821691505b602082108114156200037557620003746200037b565b5b50919050565b7f4e487b7100000000000000000000000000000000000000000000000000000000600052602260045260246000fd5b6139dd80620003ba6000396000f3fe608060405234801561001057600080fd5b50600436106101e55760003560e01c80636c1438621161010f578063b88d4fde116100a2578063e985e9c511610071578063e985e9c51461055c578063eb8d24441461058c578063ee55efee146105aa578063f2fde38b146105b4576101e5565b8063b88d4fde146104d6578063c87b56dd146104f2578063d9a59e3314610522578063dd11247e1461053e576101e5565b80638a216ab8116100de5780638a216ab81461044e5780638da5cb5b1461047e57806395d89b411461049c578063a22cb465146104ba576101e5565b80636c143862146103c657806370a08231146103e4578063715018a61461041457806380f2abe31461041e576101e5565b80631a081330116101875780633d721ecd116101565780633d721ecd1461033e57806342842e0e1461035c5780636352211e146103785780636817c76c146103a8576101e5565b80631a081330146102b65780631acc9b62146102d457806323b872dd146103045780633cfa7e0114610320576101e5565b8063095ea7b3116101c3578063095ea7b3146102685780631249c58b1461028457806314558fab1461028e578063167ff46f146102ac576101e5565b806301ffc9a7146101ea57806306fdde031461021a578063081812fc14610238575b600080fd5b61020460048036038101906101ff91906126b1565b6105d0565b6040516102119190612c64565b60405180910390f35b6102226106b2565b60405161022f9190612c7f565b60405180910390f35b610252600480360381019061024d9190612703565b610744565b60405161025f9190612bfd565b60405180910390f35b610282600480360381019061027d9190612675565b61078a565b005b61028c6108a2565b005b610296610b2e565b6040516102a39190612ea1565b60405180910390f35b6102b4610b38565b005b6102be610b5d565b6040516102cb9190612c64565b60405180910390f35b6102ee60048036038101906102e9919061250a565b610b74565b6040516102fb9190612c64565b60405180910390f35b61031e6004803603810190610319919061256f565b610b94565b005b610328610bf4565b6040516103359190612ea1565b60405180910390f35b610346610bfa565b6040516103539190612ea1565b60405180910390f35b6103766004803603810190610371919061256f565b610c04565b005b610392600480360381019061038d9190612703565b610c24565b60405161039f9190612bfd565b60405180910390f35b6103b0610cd6565b6040516103bd9190612ea1565b60405180910390f35b6103ce610cdc565b6040516103db9190612ea1565b60405180910390f35b6103fe60048036038101906103f9919061250a565b610ced565b60405161040b9190612ea1565b60405180910390f35b61041c610da5565b005b6104386004803603810190610433919061250a565b610db9565b6040516104459190612c64565b60405180910390f35b61046860048036038101906104639190612675565b610e07565b6040516104759190612ea1565b60405180910390f35b610486610e38565b6040516104939190612bfd565b60405180910390f35b6104a4610e62565b6040516104b19190612c7f565b60405180910390f35b6104d460048036038101906104cf9190612639565b610ef4565b005b6104f060048036038101906104eb91906125be565b610f0a565b005b61050c60048036038101906105079190612703565b610f6c565b6040516105199190612c7f565b60405180910390f35b61053c6004803603810190610537919061250a565b61107f565b005b6105466111bc565b6040516105539190612ea1565b60405180910390f35b61057660048036038101906105719190612533565b6111c2565b6040516105839190612c64565b60405180910390f35b610594611256565b6040516105a19190612c64565b60405180910390f35b6105b2611269565b005b6105ce60048036038101906105c9919061250a565b61128e565b005b60007f80ac58cd000000000000000000000000000000000000000000000000000000007bffffffffffffffffffffffffffffffffffffffffffffffffffffffff1916827bffffffffffffffffffffffffffffffffffffffffffffffffffffffff1916148061069b57507f5b5e139f000000000000000000000000000000000000000000000000000000007bffffffffffffffffffffffffffffffffffffffffffffffffffffffff1916827bffffffffffffffffffffffffffffffffffffffffffffffffffffffff1916145b806106ab57506106aa82611328565b5b9050919050565b6060600080546106c190613135565b80601f01602080910402602001604051908101604052809291908181526020018280546106ed90613135565b801561073a5780601f1061070f5761010080835404028352916020019161073a565b820191906000526020600020905b81548152906001019060200180831161071d57829003601f168201915b5050505050905090565b600061074f82611392565b6004600083815260200190815260200160002060009054906101000a900473ffffffffffffffffffffffffffffffffffffffff169050919050565b600061079582610c24565b90508073ffffffffffffffffffffffffffffffffffffffff168373ffffffffffffffffffffffffffffffffffffffff161415610806576040517f08c379a00000000000000000000000000000000000000000000000000000000081526004016107fd90612e41565b60405180910390fd5b8073ffffffffffffffffffffffffffffffffffffffff166108256113dd565b73ffffffffffffffffffffffffffffffffffffffff16148061085457506108538161084e6113dd565b6111c2565b5b610893576040517f08c379a000000000000000000000000000000000000000000000000000000000815260040161088a90612dc1565b60405180910390fd5b61089d83836113e5565b505050565b6000600e54116108e7576040517f08c379a00000000000000000000000000000000000000000000000000000000081526004016108de90612e61565b60405180910390fd5b600c60009054906101000a900460ff16610936576040517f08c379a000000000000000000000000000000000000000000000000000000000815260040161092d90612da1565b60405180910390fd5b6000610942600861149e565b9050600061094f826114ac565b9050600a8210156109a7576040518060400160405280600281526020017f3030000000000000000000000000000000000000000000000000000000000000815250600b90805190602001906109a5929190612396565b505b6009821180156109b75750606482105b15610a09576040518060400160405280600181526020017f3000000000000000000000000000000000000000000000000000000000000000815250600b9080519060200190610a07929190612396565b505b60006009600b83600a604051602001610a259493929190612b5b565b60405160208183030381529060405290506000610a68610a4483611659565b604051602001610a549190612b99565b604051602081830303815290604052611659565b9050600081604051602001610a7d9190612bdb565b6040516020818303038152906040529050610a983386611817565b601060003373ffffffffffffffffffffffffffffffffffffffff1673ffffffffffffffffffffffffffffffffffffffff168152602001908152602001600020859080600181540180825580915050600190039060005260206000200160009091909190915055610b088582611835565b610b126008611312565b6001600e54610b21919061304b565b600e819055505050505050565b6000600d54905090565b610b406118a9565b6001600c60006101000a81548160ff021916908315150217905550565b6000600c60009054906101000a900460ff16905090565b60116020528060005260406000206000915054906101000a900460ff1681565b610ba5610b9f6113dd565b82611927565b610be4576040517f08c379a0000000000000000000000000000000000000000000000000000000008152600401610bdb90612e81565b60405180910390fd5b610bef8383836119bc565b505050565b600e5481565b6000600e54905090565b610c1f83838360405180602001604052806000815250610f0a565b505050565b6000806002600084815260200190815260200160002060009054906101000a900473ffffffffffffffffffffffffffffffffffffffff169050600073ffffffffffffffffffffffffffffffffffffffff168173ffffffffffffffffffffffffffffffffffffffff161415610ccd576040517f08c379a0000000000000000000000000000000000000000000000000000000008152600401610cc490612e21565b60405180910390fd5b80915050919050565b600f5481565b6000610ce8600861149e565b905090565b60008073ffffffffffffffffffffffffffffffffffffffff168273ffffffffffffffffffffffffffffffffffffffff161415610d5e576040517f08c379a0000000000000000000000000000000000000000000000000000000008152600401610d5590612d61565b60405180910390fd5b600360008373ffffffffffffffffffffffffffffffffffffffff1673ffffffffffffffffffffffffffffffffffffffff168152602001908152602001600020549050919050565b610dad6118a9565b610db76000611c23565b565b600080601060008473ffffffffffffffffffffffffffffffffffffffff1673ffffffffffffffffffffffffffffffffffffffff16815260200190815260200160002080549050119050919050565b60106020528160005260406000208181548110610e2357600080fd5b90600052602060002001600091509150505481565b6000600760009054906101000a900473ffffffffffffffffffffffffffffffffffffffff16905090565b606060018054610e7190613135565b80601f0160208091040260200160405190810160405280929190818152602001828054610e9d90613135565b8015610eea5780601f10610ebf57610100808354040283529160200191610eea565b820191906000526020600020905b815481529060010190602001808311610ecd57829003601f168201915b5050505050905090565b610f06610eff6113dd565b8383611ce9565b5050565b610f1b610f156113dd565b83611927565b610f5a576040517f08c379a0000000000000000000000000000000000000000000000000000000008152600401610f5190612e81565b60405180910390fd5b610f6684848484611e56565b50505050565b6060610f7782611392565b6000600660008481526020019081526020016000208054610f9790613135565b80601f0160208091040260200160405190810160405280929190818152602001828054610fc390613135565b80156110105780601f10610fe557610100808354040283529160200191611010565b820191906000526020600020905b815481529060010190602001808311610ff357829003601f168201915b505050505090506000611021611eb2565b905060008151141561103757819250505061107a565b60008251111561106c578082604051602001611054929190612b37565b6040516020818303038152906040529250505061107a565b61107584611ec9565b925050505b919050565b6001601160008373ffffffffffffffffffffffffffffffffffffffff1673ffffffffffffffffffffffffffffffffffffffff16815260200190815260200160002060006101000a81548160ff0219169083151502179055506000601060008373ffffffffffffffffffffffffffffffffffffffff1673ffffffffffffffffffffffffffffffffffffffff168152602001908152602001600020600081548110611151577f4e487b7100000000000000000000000000000000000000000000000000000000600052603260045260246000fd5b90600052602060002001549050600061118660405160200161117290612bc6565b604051602081830303815290604052611659565b905060008160405160200161119b9190612bdb565b60405160208183030381529060405290506111b68382611835565b50505050565b600d5481565b6000600560008473ffffffffffffffffffffffffffffffffffffffff1673ffffffffffffffffffffffffffffffffffffffff16815260200190815260200160002060008373ffffffffffffffffffffffffffffffffffffffff1673ffffffffffffffffffffffffffffffffffffffff16815260200190815260200160002060009054906101000a900460ff16905092915050565b600c60009054906101000a900460ff1681565b6112716118a9565b6000600c60006101000a81548160ff021916908315150217905550565b6112966118a9565b600073ffffffffffffffffffffffffffffffffffffffff168173ffffffffffffffffffffffffffffffffffffffff161415611306576040517f08c379a00000000000000000000000000000000000000000000000000000000081526004016112fd90612cc1565b60405180910390fd5b61130f81611c23565b50565b6001816000016000828254019250508190555050565b60007f01ffc9a7000000000000000000000000000000000000000000000000000000007bffffffffffffffffffffffffffffffffffffffffffffffffffffffff1916827bffffffffffffffffffffffffffffffffffffffffffffffffffffffff1916149050919050565b61139b81611f31565b6113da576040517f08c379a00000000000000000000000000000000000000000000000000000000081526004016113d190612e21565b60405180910390fd5b50565b600033905090565b816004600083815260200190815260200160002060006101000a81548173ffffffffffffffffffffffffffffffffffffffff021916908373ffffffffffffffffffffffffffffffffffffffff160217905550808273ffffffffffffffffffffffffffffffffffffffff1661145883610c24565b73ffffffffffffffffffffffffffffffffffffffff167f8c5be1e5ebec7d5bd14f71427d1e84f3dd0314c0f7b2291e5b200ac8c7c3b92560405160405180910390a45050565b600081600001549050919050565b606060008214156114f4576040518060400160405280600181526020017f30000000000000000000000000000000000000000000000000000000000000008152509050611654565b600082905060005b6000821461152657808061150f90613198565b915050600a8261151f9190612fc0565b91506114fc565b60008167ffffffffffffffff811115611568577f4e487b7100000000000000000000000000000000000000000000000000000000600052604160045260246000fd5b6040519080825280601f01601f19166020018201604052801561159a5781602001600182028036833780820191505090505b5090505b6000851461164d576001826115b3919061304b565b9150600a856115c291906131e1565b60306115ce9190612f6a565b60f81b81838151811061160a577f4e487b7100000000000000000000000000000000000000000000000000000000600052603260045260246000fd5b60200101907effffffffffffffffffffffffffffffffffffffffffffffffffffffffffffff1916908160001a905350600a856116469190612fc0565b945061159e565b8093505050505b919050565b606060008251905060008114156116825760405180602001604052806000815250915050611812565b600060036002836116939190612f6a565b61169d9190612fc0565b60046116a99190612ff1565b905060006020826116ba9190612f6a565b67ffffffffffffffff8111156116f9577f4e487b7100000000000000000000000000000000000000000000000000000000600052604160045260246000fd5b6040519080825280601f01601f19166020018201604052801561172b5781602001600182028036833780820191505090505b5090506000604051806060016040528060408152602001613968604091399050600181016020830160005b868110156117cf5760038101905062ffffff818a015116603f8160121c168401518060081b905060ff603f83600c1c1686015116810190508060081b905060ff603f8360061c1686015116810190508060081b905060ff603f831686015116810190508060e01b90508084526004840193505050611756565b5060038606600181146117e957600281146117f957611804565b613d3d60f01b6002830352611804565b603d60f81b60018303525b508484525050819450505050505b919050565b611831828260405180602001604052806000815250611f9d565b5050565b61183e82611f31565b61187d576040517f08c379a000000000000000000000000000000000000000000000000000000000815260040161187490612d81565b60405180910390fd5b806006600084815260200190815260200160002090805190602001906118a4929190612396565b505050565b6118b16113dd565b73ffffffffffffffffffffffffffffffffffffffff166118cf610e38565b73ffffffffffffffffffffffffffffffffffffffff1614611925576040517f08c379a000000000000000000000000000000000000000000000000000000000815260040161191c90612e01565b60405180910390fd5b565b60008061193383610c24565b90508073ffffffffffffffffffffffffffffffffffffffff168473ffffffffffffffffffffffffffffffffffffffff161480611975575061197481856111c2565b5b806119b357508373ffffffffffffffffffffffffffffffffffffffff1661199b84610744565b73ffffffffffffffffffffffffffffffffffffffff16145b91505092915050565b8273ffffffffffffffffffffffffffffffffffffffff166119dc82610c24565b73ffffffffffffffffffffffffffffffffffffffff1614611a32576040517f08c379a0000000000000000000000000000000000000000000000000000000008152600401611a2990612ce1565b60405180910390fd5b600073ffffffffffffffffffffffffffffffffffffffff168273ffffffffffffffffffffffffffffffffffffffff161415611aa2576040517f08c379a0000000000000000000000000000000000000000000000000000000008152600401611a9990612d21565b60405180910390fd5b611aad838383611ff8565b611ab86000826113e5565b6001600360008573ffffffffffffffffffffffffffffffffffffffff1673ffffffffffffffffffffffffffffffffffffffff1681526020019081526020016000206000828254611b08919061304b565b925050819055506001600360008473ffffffffffffffffffffffffffffffffffffffff1673ffffffffffffffffffffffffffffffffffffffff1681526020019081526020016000206000828254611b5f9190612f6a565b92505081905550816002600083815260200190815260200160002060006101000a81548173ffffffffffffffffffffffffffffffffffffffff021916908373ffffffffffffffffffffffffffffffffffffffff160217905550808273ffffffffffffffffffffffffffffffffffffffff168473ffffffffffffffffffffffffffffffffffffffff167fddf252ad1be2c89b69c2b068fc378daa952ba7f163c4a11628f55a4df523b3ef60405160405180910390a4611c1e838383611ffd565b505050565b6000600760009054906101000a900473ffffffffffffffffffffffffffffffffffffffff16905081600760006101000a81548173ffffffffffffffffffffffffffffffffffffffff021916908373ffffffffffffffffffffffffffffffffffffffff1602179055508173ffffffffffffffffffffffffffffffffffffffff168173ffffffffffffffffffffffffffffffffffffffff167f8be0079c531659141344cd1fd0a4f28419497f9722a3daafe3b4186f6b6457e060405160405180910390a35050565b8173ffffffffffffffffffffffffffffffffffffffff168373ffffffffffffffffffffffffffffffffffffffff161415611d58576040517f08c379a0000000000000000000000000000000000000000000000000000000008152600401611d4f90612d41565b60405180910390fd5b80600560008573ffffffffffffffffffffffffffffffffffffffff1673ffffffffffffffffffffffffffffffffffffffff16815260200190815260200160002060008473ffffffffffffffffffffffffffffffffffffffff1673ffffffffffffffffffffffffffffffffffffffff16815260200190815260200160002060006101000a81548160ff0219169083151502179055508173ffffffffffffffffffffffffffffffffffffffff168373ffffffffffffffffffffffffffffffffffffffff167f17307eab39ab6107e8899845ad3d59bd9653f200f220920489ca2b5937696c3183604051611e499190612c64565b60405180910390a3505050565b611e618484846119bc565b611e6d84848484612002565b611eac576040517f08c379a0000000000000000000000000000000000000000000000000000000008152600401611ea390612ca1565b60405180910390fd5b50505050565b606060405180602001604052806000815250905090565b6060611ed482611392565b6000611ede611eb2565b90506000815111611efe5760405180602001604052806000815250611f29565b80611f08846114ac565b604051602001611f19929190612b37565b6040516020818303038152906040525b915050919050565b60008073ffffffffffffffffffffffffffffffffffffffff166002600084815260200190815260200160002060009054906101000a900473ffffffffffffffffffffffffffffffffffffffff1673ffffffffffffffffffffffffffffffffffffffff1614159050919050565b611fa78383612199565b611fb46000848484612002565b611ff3576040517f08c379a0000000000000000000000000000000000000000000000000000000008152600401611fea90612ca1565b60405180910390fd5b505050565b505050565b505050565b60006120238473ffffffffffffffffffffffffffffffffffffffff16612373565b1561218c578373ffffffffffffffffffffffffffffffffffffffff1663150b7a0261204c6113dd565b8786866040518563ffffffff1660e01b815260040161206e9493929190612c18565b602060405180830381600087803b15801561208857600080fd5b505af19250505080156120b957506040513d601f19601f820116820180604052508101906120b691906126da565b60015b61213c573d80600081146120e9576040519150601f19603f3d011682016040523d82523d6000602084013e6120ee565b606091505b50600081511415612134576040517f08c379a000000000000000000000000000000000000000000000000000000000815260040161212b90612ca1565b60405180910390fd5b805181602001fd5b63150b7a0260e01b7bffffffffffffffffffffffffffffffffffffffffffffffffffffffff1916817bffffffffffffffffffffffffffffffffffffffffffffffffffffffff191614915050612191565b600190505b949350505050565b600073ffffffffffffffffffffffffffffffffffffffff168273ffffffffffffffffffffffffffffffffffffffff161415612209576040517f08c379a000000000000000000000000000000000000000000000000000000000815260040161220090612de1565b60405180910390fd5b61221281611f31565b15612252576040517f08c379a000000000000000000000000000000000000000000000000000000000815260040161224990612d01565b60405180910390fd5b61225e60008383611ff8565b6001600360008473ffffffffffffffffffffffffffffffffffffffff1673ffffffffffffffffffffffffffffffffffffffff16815260200190815260200160002060008282546122ae9190612f6a565b92505081905550816002600083815260200190815260200160002060006101000a81548173ffffffffffffffffffffffffffffffffffffffff021916908373ffffffffffffffffffffffffffffffffffffffff160217905550808273ffffffffffffffffffffffffffffffffffffffff16600073ffffffffffffffffffffffffffffffffffffffff167fddf252ad1be2c89b69c2b068fc378daa952ba7f163c4a11628f55a4df523b3ef60405160405180910390a461236f60008383611ffd565b5050565b6000808273ffffffffffffffffffffffffffffffffffffffff163b119050919050565b8280546123a290613135565b90600052602060002090601f0160209004810192826123c4576000855561240b565b82601f106123dd57805160ff191683800117855561240b565b8280016001018555821561240b579182015b8281111561240a5782518255916020019190600101906123ef565b5b509050612418919061241c565b5090565b5b8082111561243557600081600090555060010161241d565b5090565b600061244c61244784612ee1565b612ebc565b90508281526020810184848401111561246457600080fd5b61246f8482856130f3565b509392505050565b6000813590506124868161390b565b92915050565b60008135905061249b81613922565b92915050565b6000813590506124b081613939565b92915050565b6000815190506124c581613939565b92915050565b600082601f8301126124dc57600080fd5b81356124ec848260208601612439565b91505092915050565b60008135905061250481613950565b92915050565b60006020828403121561251c57600080fd5b600061252a84828501612477565b91505092915050565b6000806040838503121561254657600080fd5b600061255485828601612477565b925050602061256585828601612477565b9150509250929050565b60008060006060848603121561258457600080fd5b600061259286828701612477565b93505060206125a386828701612477565b92505060406125b4868287016124f5565b9150509250925092565b600080600080608085870312156125d457600080fd5b60006125e287828801612477565b94505060206125f387828801612477565b9350506040612604878288016124f5565b925050606085013567ffffffffffffffff81111561262157600080fd5b61262d878288016124cb565b91505092959194509250565b6000806040838503121561264c57600080fd5b600061265a85828601612477565b925050602061266b8582860161248c565b9150509250929050565b6000806040838503121561268857600080fd5b600061269685828601612477565b92505060206126a7858286016124f5565b9150509250929050565b6000602082840312156126c357600080fd5b60006126d1848285016124a1565b91505092915050565b6000602082840312156126ec57600080fd5b60006126fa848285016124b6565b91505092915050565b60006020828403121561271557600080fd5b6000612723848285016124f5565b91505092915050565b6127358161307f565b82525050565b61274481613091565b82525050565b600061275582612f27565b61275f8185612f3d565b935061276f818560208601613102565b612778816132ce565b840191505092915050565b600061278e82612f32565b6127988185612f4e565b93506127a8818560208601613102565b6127b1816132ce565b840191505092915050565b60006127c782612f32565b6127d18185612f5f565b93506127e1818560208601613102565b80840191505092915050565b600081546127fa81613135565b6128048186612f5f565b9450600182166000811461281f576001811461283057612863565b60ff19831686528186019350612863565b61283985612f12565b60005b8381101561285b5781548189015260018201915060208101905061283c565b838801955050505b50505092915050565b6000612879603283612f4e565b9150612884826132df565b604082019050919050565b600061289c602683612f4e565b91506128a78261332e565b604082019050919050565b60006128bf602583612f4e565b91506128ca8261337d565b604082019050919050565b60006128e2601c83612f4e565b91506128ed826133cc565b602082019050919050565b6000612905602483612f4e565b9150612910826133f5565b604082019050919050565b6000612928601983612f4e565b915061293382613444565b602082019050919050565b600061294b602983612f4e565b91506129568261346d565b604082019050919050565b600061296e602e83612f4e565b9150612979826134bc565b604082019050919050565b6000612991601783612f4e565b915061299c8261350b565b602082019050919050565b60006129b4600283612f5f565b91506129bf82613534565b600282019050919050565b60006129d7608e83612f5f565b91506129e28261355d565b608e82019050919050565b60006129fa603e83612f4e565b9150612a058261361e565b604082019050919050565b6000612a1d602083612f4e565b9150612a288261366d565b602082019050919050565b6000612a40602083612f4e565b9150612a4b82613696565b602082019050919050565b6000612a6360ec83612f5f565b9150612a6e826136bf565b60ec82019050919050565b6000612a86601883612f4e565b9150612a91826137f2565b602082019050919050565b6000612aa9602183612f4e565b9150612ab48261381b565b604082019050919050565b6000612acc601d83612f5f565b9150612ad78261386a565b601d82019050919050565b6000612aef600883612f4e565b9150612afa82613893565b602082019050919050565b6000612b12602e83612f4e565b9150612b1d826138bc565b604082019050919050565b612b31816130e9565b82525050565b6000612b4382856127bc565b9150612b4f82846127bc565b91508190509392505050565b6000612b6782876127ed565b9150612b7382866127ed565b9150612b7f82856127bc565b9150612b8b82846127ed565b915081905095945050505050565b6000612ba4826129ca565b9150612bb082846127bc565b9150612bbb826129a7565b915081905092915050565b6000612bd182612a56565b9150819050919050565b6000612be682612abf565b9150612bf282846127bc565b915081905092915050565b6000602082019050612c12600083018461272c565b92915050565b6000608082019050612c2d600083018761272c565b612c3a602083018661272c565b612c476040830185612b28565b8181036060830152612c59818461274a565b905095945050505050565b6000602082019050612c79600083018461273b565b92915050565b60006020820190508181036000830152612c998184612783565b905092915050565b60006020820190508181036000830152612cba8161286c565b9050919050565b60006020820190508181036000830152612cda8161288f565b9050919050565b60006020820190508181036000830152612cfa816128b2565b9050919050565b60006020820190508181036000830152612d1a816128d5565b9050919050565b60006020820190508181036000830152612d3a816128f8565b9050919050565b60006020820190508181036000830152612d5a8161291b565b9050919050565b60006020820190508181036000830152612d7a8161293e565b9050919050565b60006020820190508181036000830152612d9a81612961565b9050919050565b60006020820190508181036000830152612dba81612984565b9050919050565b60006020820190508181036000830152612dda816129ed565b9050919050565b60006020820190508181036000830152612dfa81612a10565b9050919050565b60006020820190508181036000830152612e1a81612a33565b9050919050565b60006020820190508181036000830152612e3a81612a79565b9050919050565b60006020820190508181036000830152612e5a81612a9c565b9050919050565b60006020820190508181036000830152612e7a81612ae2565b9050919050565b60006020820190508181036000830152612e9a81612b05565b9050919050565b6000602082019050612eb66000830184612b28565b92915050565b6000612ec6612ed7565b9050612ed28282613167565b919050565b6000604051905090565b600067ffffffffffffffff821115612efc57612efb61329f565b5b612f05826132ce565b9050602081019050919050565b60008190508160005260206000209050919050565b600081519050919050565b600081519050919050565b600082825260208201905092915050565b600082825260208201905092915050565b600081905092915050565b6000612f75826130e9565b9150612f80836130e9565b9250827fffffffffffffffffffffffffffffffffffffffffffffffffffffffffffffffff03821115612fb557612fb4613212565b5b828201905092915050565b6000612fcb826130e9565b9150612fd6836130e9565b925082612fe657612fe5613241565b5b828204905092915050565b6000612ffc826130e9565b9150613007836130e9565b9250817fffffffffffffffffffffffffffffffffffffffffffffffffffffffffffffffff04831182151516156130405761303f613212565b5b828202905092915050565b6000613056826130e9565b9150613061836130e9565b92508282101561307457613073613212565b5b828203905092915050565b600061308a826130c9565b9050919050565b60008115159050919050565b60007fffffffff0000000000000000000000000000000000000000000000000000000082169050919050565b600073ffffffffffffffffffffffffffffffffffffffff82169050919050565b6000819050919050565b82818337600083830152505050565b60005b83811015613120578082015181840152602081019050613105565b8381111561312f576000848401525b50505050565b6000600282049050600182168061314d57607f821691505b6020821081141561316157613160613270565b5b50919050565b613170826132ce565b810181811067ffffffffffffffff8211171561318f5761318e61329f565b5b80604052505050565b60006131a3826130e9565b91507fffffffffffffffffffffffffffffffffffffffffffffffffffffffffffffffff8214156131d6576131d5613212565b5b600182019050919050565b60006131ec826130e9565b91506131f7836130e9565b92508261320757613206613241565b5b828206905092915050565b7f4e487b7100000000000000000000000000000000000000000000000000000000600052601160045260246000fd5b7f4e487b7100000000000000000000000000000000000000000000000000000000600052601260045260246000fd5b7f4e487b7100000000000000000000000000000000000000000000000000000000600052602260045260246000fd5b7f4e487b7100000000000000000000000000000000000000000000000000000000600052604160045260246000fd5b6000601f19601f8301169050919050565b7f4552433732313a207472616e7366657220746f206e6f6e20455243373231526560008201527f63656976657220696d706c656d656e7465720000000000000000000000000000602082015250565b7f4f776e61626c653a206e6577206f776e657220697320746865207a65726f206160008201527f6464726573730000000000000000000000000000000000000000000000000000602082015250565b7f4552433732313a207472616e736665722066726f6d20696e636f72726563742060008201527f6f776e6572000000000000000000000000000000000000000000000000000000602082015250565b7f4552433732313a20746f6b656e20616c7265616479206d696e74656400000000600082015250565b7f4552433732313a207472616e7366657220746f20746865207a65726f2061646460008201527f7265737300000000000000000000000000000000000000000000000000000000602082015250565b7f4552433732313a20617070726f766520746f2063616c6c657200000000000000600082015250565b7f4552433732313a2061646472657373207a65726f206973206e6f74206120766160008201527f6c6964206f776e65720000000000000000000000000000000000000000000000602082015250565b7f45524337323155524953746f726167653a2055524920736574206f66206e6f6e60008201527f6578697374656e7420746f6b656e000000000000000000000000000000000000602082015250565b7f5469636b65747320617265206e6f74206f6e2073616c65000000000000000000600082015250565b7f227d000000000000000000000000000000000000000000000000000000000000600082015250565b7f7b226e616d65223a20224e69676874732026205765656b656e6473205365617360008201527f6f6e2031222c20226465736372697074696f6e223a2022353030206275696c6460208201527f657273207368697070696e6720666f722036207765656b732e204754464f4c2060408201527f6f72204754464f222c2022696d616765223a2022646174613a696d6167652f7360608201527f76672b786d6c3b6261736536342c000000000000000000000000000000000000608082015250565b7f4552433732313a20617070726f76652063616c6c6572206973206e6f7420746f60008201527f6b656e206f776e6572206e6f7220617070726f76656420666f7220616c6c0000602082015250565b7f4552433732313a206d696e7420746f20746865207a65726f2061646472657373600082015250565b7f4f776e61626c653a2063616c6c6572206973206e6f7420746865206f776e6572600082015250565b7f7b226e616d65223a20224e69676874732026205765656b656e6473205365617360008201527f6f6e2031222c20226465736372697074696f6e223a2022353030206275696c6460208201527f657273207368697070696e6720666f722036207765656b732e204754464f4c2060408201527f6f72204754464f222c2022696d616765223a2022697066733a2f2f516d56335860608201527f6a664457415137506a4a6457766d48694c35654755744c6673794e4c5153593560808201527f326a36426d624c424c222c202261747472696275746573223a205b7b2022747260a08201527f6169745f74797065223a2022436865636b656420496e222c202276616c75652260c08201527f3a20227472756522207d5d7d000000000000000000000000000000000000000060e082015250565b7f4552433732313a20696e76616c696420746f6b656e2049440000000000000000600082015250565b7f4552433732313a20617070726f76616c20746f2063757272656e74206f776e6560008201527f7200000000000000000000000000000000000000000000000000000000000000602082015250565b7f646174613a6170706c69636174696f6e2f6a736f6e3b6261736536342c000000600082015250565b7f536f6c64206f7574000000000000000000000000000000000000000000000000600082015250565b7f4552433732313a2063616c6c6572206973206e6f7420746f6b656e206f776e6560008201527f72206e6f7220617070726f766564000000000000000000000000000000000000602082015250565b6139148161307f565b811461391f57600080fd5b50565b61392b81613091565b811461393657600080fd5b50565b6139428161309d565b811461394d57600080fd5b50565b613959816130e9565b811461396457600080fd5b5056fe4142434445464748494a4b4c4d4e4f505152535455565758595a6162636465666768696a6b6c6d6e6f707172737475767778797a303132333435363738392b2fa2646970667358221220b0fb2b10c217d59cf9cb9dba0be81f733f91357be1441fde88c17240979d417464736f6c634300080100333c2f746578743e3c73766720783d273238302720793d273439302720786d6c6e733d27687474703a2f2f7777772e77332e6f72672f323030302f73766727206865696768743d27313030272077696474683d27313030272076696577426f783d2730203020323920323927207265646e657241733d27737667273e3c706174682066696c6c3d27233036304131462720643d274d302c302068323976323948307a272073686170652d72656e646572696e673d2763726973704564676573273e3c2f706174683e3c706174682066696c6c3d2777686974652720643d274d3020306837763148307a4d3820306835763148387a4d31342030683176314831347a4d31362030683576314831367a4d32322c3020683776314832327a4d3020316831763148307a4d3620316831763148367a4d3820316831763148387a4d31312031683476314831317a4d31382031683176314831387a4d32322031683176314832327a4d32382c3120683176314832387a4d3020326831763148307a4d3220326833763148327a4d3620326831763148367a4d3920326836763148397a4d32302032683176314832307a4d32322032683176314832327a4d32342032683376314832347a4d32382c3220683176314832387a4d3020336831763148307a4d3220336833763148327a4d3620336831763148367a4d3820336831763148387a4d31352033683176314831357a4d31372033683176314831377a4d31392033683176314831397a4d32322033683176314832327a4d32342033683376314832347a4d32382c3320683176314832387a4d3020346831763148307a4d3220346833763148327a4d3620346831763148367a4d3920346832763148397a4d31332034683476314831337a4d31392034683276314831397a4d32322034683176314832327a4d32342034683376314832347a4d32382c3420683176314832387a4d3020356831763148307a4d3620356831763148367a4d3920356831763148397a4d31322035683176314831327a4d31342035683176314831347a4d31362035683176314831367a4d31392035683276314831397a4d32322035683176314832327a4d32382c3520683176314832387a4d3020366837763148307a4d3820366831763148387a4d31302036683176314831307a4d31322036683176314831327a4d31342036683176314831347a4d31362036683176314831367a4d31382036683176314831387a4d32302036683176314832307a4d32322c3620683776314832327a4d3820376831763148387a4d3130203768313076314831307a4d3020386831763148307a4d3220386832763148327a4d3520386833763148357a4d3920386831763148397a4d31332038683676314831337a4d32322038683176314832327a4d32352038683176314832357a4d32372c3820683276314832377a4d3020396833763148307a4d3420396831763148347a4d3820396831763148387a4d31362039683176314831367a4d31382039683776314831387a4d32382c3920683176314832387a4d302031306832763148307a4d342031306831763148347a4d362031306834763148367a4d3131203130683176314831317a4d3134203130683176314831347a4d3136203130683176314831367a4d3138203130683176314831387a4d3231203130683176314832317a4d3233203130683176314832337a4d3236203130683276314832367a4d302031316831763148307a4d332031316833763148337a4d382031316831763148387a4d3133203131683276314831337a4d3138203131683176314831387a4d3232203131683376314832327a4d32382c313120683176314832387a4d342031326831763148347a4d362031326831763148367a4d382031326831763148387a4d3130203132683176314831307a4d3132203132683176314831327a4d3135203132683176314831357a4d3137203132683176314831377a4d3230203132683176314832307a4d3235203132683276314832357a4d302031336831763148307a4d322031336834763148327a4d372031336831763148377a4d392031336835763148397a4d3135203133683276314831357a4d3139203133683176314831397a4d3231203133683276314832317a4d32362c313320683376314832367a4d302031346832763148307a4d352031346833763148357a4d392031346832763148397a4d3134203134683176314831347a4d3139203134683176314831397a4d3232203134683276314832327a4d32362c313420683376314832367a4d302031356831763148307a4d322031356833763148327a4d3130203135683276314831307a4d3133203135683176314831337a4d3138203135683376314831387a4d3232203135683176314832327a4d3237203135683176314832377a4d302031366831763148307a4d332031366831763148337a4d362031366831763148367a4d382031366831763148387a4d3130203136683376314831307a4d3135203136683176314831357a4d3138203136683476314831387a4d3233203136683376314832337a4d3237203136683176314832377a4d352031376831763148357a4d382031376831763148387a4d3131203137683376314831317a4d3135203137683176314831357a4d3138203137683176314831387a4d3231203137683176314832317a4d3233203137683176314832337a4d3235203137683376314832357a4d302031386831763148307a4d332031386834763148337a4d392031386831763148397a4d3131203138683276314831317a4d3135203138683276314831357a4d3230203138683276314832307a4d3233203138683276314832337a4d3236203138683176314832367a4d322031396832763148327a4d392031396831763148397a4d3131203139683176314831317a4d3136203139683276314831367a4d3236203139683176314832367a4d312032306832763148317a4d362032306832763148367a4d392032306835763148397a4d313620323068313176314831367a4d382032316831763148387a4d3132203231683376314831327a4d3136203231683176314831367a4d3230203231683176314832307a4d32342c323120683576314832347a4d302032326837763148307a4d382032326832763148387a4d3132203232683276314831327a4d3136203232683176314831367a4d3139203232683276314831397a4d3232203232683176314832327a4d3234203232683276314832347a4d3237203232683176314832377a4d302032336831763148307a4d362032336831763148367a4d382032336834763148387a4d3138203233683176314831387a4d3230203233683176314832307a4d3234203233683276314832347a4d32372c323320683276314832377a4d302032346831763148307a4d322032346833763148327a4d362032346831763148367a4d392032346833763148397a4d3134203234683276314831347a4d3137203234683276314831377a4d3230203234683576314832307a4d3236203234683176314832367a4d302032356831763148307a4d322032356833763148327a4d362032356831763148367a4d382032356831763148387a4d3131203235683276314831317a4d3134203235683376314831347a4d3139203235683176314831397a4d3231203235683176314832317a4d3234203235683276314832347a4d32382c323520683176314832387a4d302032366831763148307a4d322032366833763148327a4d362032366831763148367a4d382032366831763148387a4d3131203236683276314831317a4d3134203236683176314831347a4d3138203236683276314831387a4d3233203236683176314832337a4d3236203236683176314832367a4d32382c323620683176314832387a4d302032376831763148307a4d362032376831763148367a4d3130203237683176314831307a4d3132203237683276314831327a4d3136203237683176314831367a4d3230203237683276314832307a4d3235203237683176314832357a4d3237203237683176314832377a4d302032386837763148307a4d382032386831763148387a4d3130203238683376314831307a4d3136203238683176314831367a4d3138203238683476314831387a4d3233203238683176314832337a4d3237203238683176314832377a272073686170652d72656e646572696e673d2763726973704564676573273e3c2f706174683e3c2f7376673e3c2f7376673e3c73766720786d6c6e733d27687474703a2f2f7777772e77332e6f72672f323030302f737667272077696474683d2734303027206865696768743d27363030273e3c726563742077696474683d2734303027206865696768743d2736303027207374796c653d2766696c6c3a72676228362c2031302c203331293b7374726f6b652d77696474683a3327202f3e3c7465787420783d2732352720793d2737352720666f6e742d66616d696c793d2756657264616e612720666f6e742d73697a653d273630273ef09f8c993c2f746578743e3c7465787420783d2739302720793d273136352720666f6e742d66616d696c793d2756657264616e612720666f6e742d73697a653d273435272066696c6c3d27726762283235302c203230342c20323129273e4e49474854532026616d703b3c2f746578743e3c7465787420783d2738302720793d273230302720666f6e742d66616d696c793d2756657264616e612720666f6e742d73697a653d273435272066696c6c3d27726762283235302c203230342c20323129273e5745454b454e44533c2f746578743e3c7465787420783d273132302720793d273339302720666f6e742d66616d696c793d2756657264616e612720666f6e742d73697a653d27313430273ef09fa6843c2f746578743e3c7465787420783d273132302720793d273435352720666f6e742d66616d696c793d2756657264616e612720666f6e742d73697a653d273330272066696c6c3d27726762283235302c203230342c20323129273e534541534f4e2030313c2f746578743e3c7265637420783d27302720793d27343735272077696474683d2734303027206865696768743d27323030272066696c6c3d277267622839312c2035312c20393229273e3c2f726563743e3c7465787420783d2738302720793d273535302720666f6e742d66616d696c793d2756657264616e612720666f6e742d73697a653d273530272066696c6c3d277768697465273e",
  "linkReferences": {},
  "deployedLinkReferences": {}
}